{
	"contracts/Code Eater/Vote.sol": {
		"Vote": {
			"abi": [
				{
					"inputs": [],
					"stateMutability": "nonpayable",
					"type": "constructor"
				},
				{
					"inputs": [],
					"name": "announceVotingResult",
					"outputs": [],
					"stateMutability": "nonpayable",
					"type": "function"
				},
				{
					"inputs": [
						{
							"internalType": "uint256[3]",
							"name": "_arr",
							"type": "uint256[3]"
						}
					],
					"name": "arrManipulation",
					"outputs": [
						{
							"internalType": "uint256[3]",
							"name": "",
							"type": "uint256[3]"
						}
					],
					"stateMutability": "pure",
					"type": "function"
				},
				{
					"inputs": [],
					"name": "blocktimestamp",
					"outputs": [
						{
							"internalType": "uint256",
							"name": "",
							"type": "uint256"
						}
					],
					"stateMutability": "view",
					"type": "function"
				},
				{
					"inputs": [],
					"name": "calledByMsgSender",
					"outputs": [
						{
							"internalType": "address",
							"name": "",
							"type": "address"
						}
					],
					"stateMutability": "view",
					"type": "function"
				},
				{
					"inputs": [
						{
							"internalType": "uint256",
							"name": "_voterId",
							"type": "uint256"
						},
						{
							"internalType": "uint256",
							"name": "_candidateId",
							"type": "uint256"
						}
					],
					"name": "castVote",
					"outputs": [],
					"stateMutability": "nonpayable",
					"type": "function"
				},
				{
					"inputs": [],
					"name": "electionCommission",
					"outputs": [
						{
							"internalType": "address",
							"name": "",
							"type": "address"
						}
					],
					"stateMutability": "view",
					"type": "function"
				},
				{
					"inputs": [],
					"name": "emergencyStopVoting",
					"outputs": [],
					"stateMutability": "nonpayable",
					"type": "function"
				},
				{
					"inputs": [],
					"name": "getCandidateList",
					"outputs": [
						{
							"components": [
								{
									"internalType": "string",
									"name": "name",
									"type": "string"
								},
								{
									"internalType": "string",
									"name": "party",
									"type": "string"
								},
								{
									"internalType": "uint256",
									"name": "age",
									"type": "uint256"
								},
								{
									"internalType": "enum Vote.Gender",
									"name": "gender",
									"type": "uint8"
								},
								{
									"internalType": "uint256",
									"name": "candidateId",
									"type": "uint256"
								},
								{
									"internalType": "address",
									"name": "candidateAddress",
									"type": "address"
								},
								{
									"internalType": "uint256",
									"name": "votes",
									"type": "uint256"
								}
							],
							"internalType": "struct Vote.Candidate[]",
							"name": "",
							"type": "tuple[]"
						}
					],
					"stateMutability": "view",
					"type": "function"
				},
				{
					"inputs": [],
					"name": "getVoterList",
					"outputs": [
						{
							"components": [
								{
									"internalType": "string",
									"name": "name",
									"type": "string"
								},
								{
									"internalType": "uint256",
									"name": "age",
									"type": "uint256"
								},
								{
									"internalType": "uint256",
									"name": "voterId",
									"type": "uint256"
								},
								{
									"internalType": "enum Vote.Gender",
									"name": "gender",
									"type": "uint8"
								},
								{
									"internalType": "uint256",
									"name": "voteCandidateId",
									"type": "uint256"
								},
								{
									"internalType": "address",
									"name": "voterAddress",
									"type": "address"
								}
							],
							"internalType": "struct Vote.Voter[]",
							"name": "",
							"type": "tuple[]"
						}
					],
					"stateMutability": "view",
					"type": "function"
				},
				{
					"inputs": [],
					"name": "getVotingStatus",
					"outputs": [
						{
							"internalType": "enum Vote.VotingStatus",
							"name": "",
							"type": "uint8"
						}
					],
					"stateMutability": "view",
					"type": "function"
				},
				{
					"inputs": [
						{
							"internalType": "string",
							"name": "_name",
							"type": "string"
						},
						{
							"internalType": "string",
							"name": "_party",
							"type": "string"
						},
						{
							"internalType": "uint256",
							"name": "_age",
							"type": "uint256"
						},
						{
							"internalType": "enum Vote.Gender",
							"name": "_gender",
							"type": "uint8"
						}
					],
					"name": "registerCandidate",
					"outputs": [],
					"stateMutability": "nonpayable",
					"type": "function"
				},
				{
					"inputs": [
						{
							"internalType": "string",
							"name": "_name",
							"type": "string"
						},
						{
							"internalType": "uint256",
							"name": "_age",
							"type": "uint256"
						},
						{
							"internalType": "enum Vote.Gender",
							"name": "_gender",
							"type": "uint8"
						}
					],
					"name": "registerVoter",
					"outputs": [],
					"stateMutability": "nonpayable",
					"type": "function"
				},
				{
					"inputs": [
						{
							"internalType": "uint256",
							"name": "_startTime",
							"type": "uint256"
						},
						{
							"internalType": "uint256",
							"name": "_endTime",
							"type": "uint256"
						}
					],
					"name": "setVotingPeriod",
					"outputs": [],
					"stateMutability": "nonpayable",
					"type": "function"
				},
				{
					"inputs": [],
					"name": "winner",
					"outputs": [
						{
							"internalType": "address",
							"name": "",
							"type": "address"
						}
					],
					"stateMutability": "view",
					"type": "function"
				}
			],
			"devdoc": {
				"kind": "dev",
				"methods": {},
				"version": 1
			},
			"evm": {
				"assembly": "    /* \"contracts/Code Eater/Vote.sol\":58:6586  contract Vote {... */\n  mstore(0x40, 0x80)\n    /* \"contracts/Code Eater/Vote.sol\":693:694  1 */\n  0x01\n    /* \"contracts/Code Eater/Vote.sol\":674:694  uint nextVoterId = 1 */\n  0x02\n  sstore\n    /* \"contracts/Code Eater/Vote.sol\":723:724  1 */\n  0x01\n    /* \"contracts/Code Eater/Vote.sol\":700:724  uint nextCandidateId = 1 */\n  0x03\n  sstore\n    /* \"contracts/Code Eater/Vote.sol\":1013:1154  constructor() {... */\n  callvalue\n  dup1\n  iszero\n  tag_1\n  jumpi\n  0x00\n  dup1\n  revert\ntag_1:\n  pop\n    /* \"contracts/Code Eater/Vote.sol\":1037:1055  electionCommission */\n  0x00\n    /* \"contracts/Code Eater/Vote.sol\":1037:1068  electionCommission = msg.sender */\n  dup1\n  sload\n  not(sub(shl(0xa0, 0x01), 0x01))\n  and\n    /* \"contracts/Code Eater/Vote.sol\":1058:1068  msg.sender */\n  caller\n    /* \"contracts/Code Eater/Vote.sol\":1037:1068  electionCommission = msg.sender */\n  or\n  swap1\n  sstore\n    /* \"contracts/Code Eater/Vote.sol\":58:6586  contract Vote {... */\n  dataSize(sub_0)\n  dup1\n  dataOffset(sub_0)\n  0x00\n  codecopy\n  0x00\n  return\nstop\n\nsub_0: assembly {\n        /* \"contracts/Code Eater/Vote.sol\":58:6586  contract Vote {... */\n      mstore(0x40, 0x80)\n      callvalue\n      dup1\n      iszero\n      tag_1\n      jumpi\n      0x00\n      dup1\n      revert\n    tag_1:\n      pop\n      jumpi(tag_2, lt(calldatasize, 0x04))\n      shr(0xe0, calldataload(0x00))\n      dup1\n      0x982c777d\n      gt\n      tag_17\n      jumpi\n      dup1\n      0xaab46b7f\n      gt\n      tag_18\n      jumpi\n      dup1\n      0xaab46b7f\n      eq\n      tag_13\n      jumpi\n      dup1\n      0xb28d92ae\n      eq\n      tag_14\n      jumpi\n      dup1\n      0xdfbf53ae\n      eq\n      tag_15\n      jumpi\n      dup1\n      0xfdbc4006\n      eq\n      tag_16\n      jumpi\n      0x00\n      dup1\n      revert\n    tag_18:\n      dup1\n      0x982c777d\n      eq\n      tag_10\n      jumpi\n      dup1\n      0x9fa4e440\n      eq\n      tag_11\n      jumpi\n      dup1\n      0xa15a36c7\n      eq\n      tag_12\n      jumpi\n      0x00\n      dup1\n      revert\n    tag_17:\n      dup1\n      0x6ce2ccc0\n      gt\n      tag_19\n      jumpi\n      dup1\n      0x6ce2ccc0\n      eq\n      tag_6\n      jumpi\n      dup1\n      0x8182a11f\n      eq\n      tag_7\n      jumpi\n      dup1\n      0x81ba732f\n      eq\n      tag_8\n      jumpi\n      dup1\n      0x8fdd8f81\n      eq\n      tag_9\n      jumpi\n      0x00\n      dup1\n      revert\n    tag_19:\n      dup1\n      0x06457d07\n      eq\n      tag_3\n      jumpi\n      dup1\n      0x2c0a3f89\n      eq\n      tag_4\n      jumpi\n      dup1\n      0x581c281c\n      eq\n      tag_5\n      jumpi\n    tag_2:\n      0x00\n      dup1\n      revert\n        /* \"contracts/Code Eater/Vote.sol\":1400:1536  function arrManipulation(uint[3] memory _arr) external pure returns(uint[3] memory) {... */\n    tag_3:\n      tag_20\n      tag_21\n      calldatasize\n      0x04\n      tag_22\n      jump\t// in\n    tag_21:\n      tag_23\n      jump\t// in\n    tag_20:\n      mload(0x40)\n      tag_24\n      swap2\n      swap1\n      tag_25\n      jump\t// in\n    tag_24:\n      mload(0x40)\n      dup1\n      swap2\n      sub\n      swap1\n      return\n        /* \"contracts/Code Eater/Vote.sol\":4953:5461  function castVote(uint _voterId, uint _candidateId) external {... */\n    tag_4:\n      tag_26\n      tag_27\n      calldatasize\n      0x04\n      tag_28\n      jump\t// in\n    tag_27:\n      tag_29\n      jump\t// in\n    tag_26:\n      stop\n        /* \"contracts/Code Eater/Vote.sol\":5836:6158  function getVotingStatus() public view returns (VotingStatus) {... */\n    tag_5:\n      tag_30\n      tag_31\n      jump\t// in\n    tag_30:\n      mload(0x40)\n      tag_24\n      swap2\n      swap1\n      tag_33\n      jump\t// in\n        /* \"contracts/Code Eater/Vote.sol\":6165:6487  function announceVotingResult() external onlyCommissioner() {... */\n    tag_6:\n      tag_26\n      tag_35\n      jump\t// in\n        /* \"contracts/Code Eater/Vote.sol\":1303:1395  function blocktimestamp() public view returns (uint) {... */\n    tag_7:\n      mload(0x40)\n        /* \"contracts/Code Eater/Vote.sol\":1373:1388  block.timestamp */\n      timestamp\n        /* \"#utility.yul\":2319:2344   */\n      dup2\n      mstore\n        /* \"#utility.yul\":2307:2309   */\n      0x20\n        /* \"#utility.yul\":2292:2310   */\n      add\n        /* \"contracts/Code Eater/Vote.sol\":1303:1395  function blocktimestamp() public view returns (uint) {... */\n      tag_24\n        /* \"#utility.yul\":2173:2350   */\n      jump\n        /* \"contracts/Code Eater/Vote.sol\":3960:4632  function registerVoter(... */\n    tag_8:\n      tag_26\n      tag_41\n      calldatasize\n      0x04\n      tag_42\n      jump\t// in\n    tag_41:\n      tag_43\n      jump\t// in\n        /* \"contracts/Code Eater/Vote.sol\":1206:1298  function calledByMsgSender() public view returns(address) {... */\n    tag_9:\n        /* \"contracts/Code Eater/Vote.sol\":1281:1291  msg.sender */\n      caller\n        /* \"contracts/Code Eater/Vote.sol\":1206:1298  function calledByMsgSender() public view returns(address) {... */\n    tag_44:\n      mload(0x40)\n      sub(shl(0xa0, 0x01), 0x01)\n        /* \"#utility.yul\":3641:3696   */\n      swap1\n      swap2\n      and\n        /* \"#utility.yul\":3623:3697   */\n      dup2\n      mstore\n        /* \"#utility.yul\":3611:3613   */\n      0x20\n        /* \"#utility.yul\":3596:3614   */\n      add\n        /* \"contracts/Code Eater/Vote.sol\":1206:1298  function calledByMsgSender() public view returns(address) {... */\n      tag_24\n        /* \"#utility.yul\":3477:3703   */\n      jump\n        /* \"contracts/Code Eater/Vote.sol\":1999:2860  function registerCandidate(... */\n    tag_10:\n      tag_26\n      tag_49\n      calldatasize\n      0x04\n      tag_50\n      jump\t// in\n    tag_49:\n      tag_51\n      jump\t// in\n        /* \"contracts/Code Eater/Vote.sol\":6494:6584  function emergencyStopVoting() public onlyCommissioner() {... */\n    tag_11:\n      tag_26\n      tag_53\n      jump\t// in\n        /* \"contracts/Code Eater/Vote.sol\":5468:5829  function setVotingPeriod(uint _startTime, uint _endTime) external onlyCommissioner() {... */\n    tag_12:\n      tag_26\n      tag_55\n      calldatasize\n      0x04\n      tag_28\n      jump\t// in\n    tag_55:\n      tag_56\n      jump\t// in\n        /* \"contracts/Code Eater/Vote.sol\":607:640  address public electionCommission */\n    tag_13:\n      sload(0x00)\n      tag_44\n      swap1\n      sub(shl(0xa0, 0x01), 0x01)\n      and\n      dup2\n      jump\n        /* \"contracts/Code Eater/Vote.sol\":4639:4946  function getVoterList() public view returns (Voter[] memory) {... */\n    tag_14:\n      tag_60\n      tag_61\n      jump\t// in\n    tag_60:\n      mload(0x40)\n      tag_24\n      swap2\n      swap1\n      tag_63\n      jump\t// in\n        /* \"contracts/Code Eater/Vote.sol\":647:668  address public winner */\n    tag_15:\n      sload(0x01)\n      tag_44\n      swap1\n      sub(shl(0xa0, 0x01), 0x01)\n      and\n      dup2\n      jump\n        /* \"contracts/Code Eater/Vote.sol\":3166:3645  function getCandidateList() public view returns (Candidate[] memory) {... */\n    tag_16:\n      tag_67\n      tag_68\n      jump\t// in\n    tag_67:\n      mload(0x40)\n      tag_24\n      swap2\n      swap1\n      tag_70\n      jump\t// in\n        /* \"contracts/Code Eater/Vote.sol\":1400:1536  function arrManipulation(uint[3] memory _arr) external pure returns(uint[3] memory) {... */\n    tag_23:\n        /* \"contracts/Code Eater/Vote.sol\":1468:1482  uint[3] memory */\n      tag_71\n      tag_72\n      jump\t// in\n    tag_71:\n      pop\n        /* \"contracts/Code Eater/Vote.sol\":1504:1508  3657 */\n      0x0e49\n        /* \"contracts/Code Eater/Vote.sol\":1494:1508  _arr[0] = 3657 */\n      dup2\n      mstore\n        /* \"contracts/Code Eater/Vote.sol\":1494:1498  _arr */\n      swap1\n        /* \"contracts/Code Eater/Vote.sol\":1400:1536  function arrManipulation(uint[3] memory _arr) external pure returns(uint[3] memory) {... */\n      jump\t// out\n        /* \"contracts/Code Eater/Vote.sol\":4953:5461  function castVote(uint _voterId, uint _candidateId) external {... */\n    tag_29:\n        /* \"contracts/Code Eater/Vote.sol\":5032:5054  voterDetails[_voterId] */\n      0x00\n      dup3\n      dup2\n      mstore\n        /* \"contracts/Code Eater/Vote.sol\":5032:5044  voterDetails */\n      0x07\n        /* \"contracts/Code Eater/Vote.sol\":5032:5054  voterDetails[_voterId] */\n      0x20\n      mstore\n      0x40\n      swap1\n      keccak256\n        /* \"contracts/Code Eater/Vote.sol\":5032:5070  voterDetails[_voterId].voteCandidateId */\n      0x04\n      add\n      sload\n        /* \"contracts/Code Eater/Vote.sol\":5032:5075  voterDetails[_voterId].voteCandidateId == 0 */\n      iszero\n        /* \"contracts/Code Eater/Vote.sol\":5024:5102  require(voterDetails[_voterId].voteCandidateId == 0, \"You have already voted\") */\n      tag_78\n      jumpi\n      mload(0x40)\n      shl(0xe5, 0x461bcd)\n      dup2\n      mstore\n        /* \"#utility.yul\":8329:8331   */\n      0x20\n        /* \"contracts/Code Eater/Vote.sol\":5024:5102  require(voterDetails[_voterId].voteCandidateId == 0, \"You have already voted\") */\n      0x04\n      dup3\n      add\n        /* \"#utility.yul\":8311:8332   */\n      mstore\n        /* \"#utility.yul\":8368:8370   */\n      0x16\n        /* \"#utility.yul\":8348:8366   */\n      0x24\n      dup3\n      add\n        /* \"#utility.yul\":8341:8371   */\n      mstore\n        /* \"#utility.yul\":8407:8431   */\n      0x596f75206861766520616c726561647920766f74656400000000000000000000\n        /* \"#utility.yul\":8387:8405   */\n      0x44\n      dup3\n      add\n        /* \"#utility.yul\":8380:8432   */\n      mstore\n        /* \"#utility.yul\":8449:8467   */\n      0x64\n      add\n        /* \"contracts/Code Eater/Vote.sol\":5024:5102  require(voterDetails[_voterId].voteCandidateId == 0, \"You have already voted\") */\n    tag_79:\n      mload(0x40)\n      dup1\n      swap2\n      sub\n      swap1\n      revert\n    tag_78:\n        /* \"contracts/Code Eater/Vote.sol\":5120:5142  voterDetails[_voterId] */\n      0x00\n      dup3\n      dup2\n      mstore\n        /* \"contracts/Code Eater/Vote.sol\":5120:5132  voterDetails */\n      0x07\n        /* \"contracts/Code Eater/Vote.sol\":5120:5142  voterDetails[_voterId] */\n      0x20\n      mstore\n      0x40\n      swap1\n      keccak256\n        /* \"contracts/Code Eater/Vote.sol\":5120:5155  voterDetails[_voterId].voterAddress */\n      0x05\n      add\n      sload\n      sub(shl(0xa0, 0x01), 0x01)\n      and\n        /* \"contracts/Code Eater/Vote.sol\":5159:5169  msg.sender */\n      caller\n        /* \"contracts/Code Eater/Vote.sol\":5120:5169  voterDetails[_voterId].voterAddress == msg.sender */\n      eq\n        /* \"contracts/Code Eater/Vote.sol\":5112:5193  require(voterDetails[_voterId].voterAddress == msg.sender,\"You are not autorizd\") */\n      tag_81\n      jumpi\n      mload(0x40)\n      shl(0xe5, 0x461bcd)\n      dup2\n      mstore\n        /* \"#utility.yul\":8680:8682   */\n      0x20\n        /* \"contracts/Code Eater/Vote.sol\":5112:5193  require(voterDetails[_voterId].voterAddress == msg.sender,\"You are not autorizd\") */\n      0x04\n      dup3\n      add\n        /* \"#utility.yul\":8662:8683   */\n      mstore\n        /* \"#utility.yul\":8719:8721   */\n      0x14\n        /* \"#utility.yul\":8699:8717   */\n      0x24\n      dup3\n      add\n        /* \"#utility.yul\":8692:8722   */\n      mstore\n      shl(0x62, 0x165bdd48185c99481b9bdd08185d5d1bdc9a5e99)\n        /* \"#utility.yul\":8738:8756   */\n      0x44\n      dup3\n      add\n        /* \"#utility.yul\":8731:8781   */\n      mstore\n        /* \"#utility.yul\":8798:8816   */\n      0x64\n      add\n        /* \"contracts/Code Eater/Vote.sol\":5112:5193  require(voterDetails[_voterId].voterAddress == msg.sender,\"You are not autorizd\") */\n      tag_79\n        /* \"#utility.yul\":8478:8822   */\n      jump\n        /* \"contracts/Code Eater/Vote.sol\":5112:5193  require(voterDetails[_voterId].voterAddress == msg.sender,\"You are not autorizd\") */\n    tag_81:\n        /* \"contracts/Code Eater/Vote.sol\":5226:5227  0 */\n      0x00\n        /* \"contracts/Code Eater/Vote.sol\":5211:5223  _candidateId */\n      dup2\n        /* \"contracts/Code Eater/Vote.sol\":5211:5227  _candidateId > 0 */\n      gt\n        /* \"contracts/Code Eater/Vote.sol\":5211:5247  _candidateId > 0 && _candidateId < 3 */\n      dup1\n      iszero\n      tag_84\n      jumpi\n      pop\n        /* \"contracts/Code Eater/Vote.sol\":5246:5247  3 */\n      0x03\n        /* \"contracts/Code Eater/Vote.sol\":5231:5243  _candidateId */\n      dup2\n        /* \"contracts/Code Eater/Vote.sol\":5231:5247  _candidateId < 3 */\n      lt\n        /* \"contracts/Code Eater/Vote.sol\":5211:5247  _candidateId > 0 && _candidateId < 3 */\n    tag_84:\n        /* \"contracts/Code Eater/Vote.sol\":5203:5279  require(_candidateId > 0 && _candidateId < 3, \"Candidate Id is not correct\") */\n      tag_85\n      jumpi\n      mload(0x40)\n      shl(0xe5, 0x461bcd)\n      dup2\n      mstore\n        /* \"#utility.yul\":9029:9031   */\n      0x20\n        /* \"contracts/Code Eater/Vote.sol\":5203:5279  require(_candidateId > 0 && _candidateId < 3, \"Candidate Id is not correct\") */\n      0x04\n      dup3\n      add\n        /* \"#utility.yul\":9011:9032   */\n      mstore\n        /* \"#utility.yul\":9068:9070   */\n      0x1b\n        /* \"#utility.yul\":9048:9066   */\n      0x24\n      dup3\n      add\n        /* \"#utility.yul\":9041:9071   */\n      mstore\n        /* \"#utility.yul\":9107:9136   */\n      0x43616e646964617465204964206973206e6f7420636f72726563740000000000\n        /* \"#utility.yul\":9087:9105   */\n      0x44\n      dup3\n      add\n        /* \"#utility.yul\":9080:9137   */\n      mstore\n        /* \"#utility.yul\":9154:9172   */\n      0x64\n      add\n        /* \"contracts/Code Eater/Vote.sol\":5203:5279  require(_candidateId > 0 && _candidateId < 3, \"Candidate Id is not correct\") */\n      tag_79\n        /* \"#utility.yul\":8827:9178   */\n      jump\n        /* \"contracts/Code Eater/Vote.sol\":5203:5279  require(_candidateId > 0 && _candidateId < 3, \"Candidate Id is not correct\") */\n    tag_85:\n        /* \"contracts/Code Eater/Vote.sol\":5289:5311  voterDetails[_voterId] */\n      0x00\n      dup3\n      dup2\n      mstore\n        /* \"contracts/Code Eater/Vote.sol\":5289:5301  voterDetails */\n      0x07\n        /* \"contracts/Code Eater/Vote.sol\":5289:5311  voterDetails[_voterId] */\n      0x20\n      swap1\n      dup2\n      mstore\n      0x40\n      dup1\n      dup4\n      keccak256\n        /* \"contracts/Code Eater/Vote.sol\":5289:5327  voterDetails[_voterId].voteCandidateId */\n      0x04\n      add\n        /* \"contracts/Code Eater/Vote.sol\":5289:5343  voterDetails[_voterId].voteCandidateId  = _candidateId */\n      dup5\n      swap1\n      sstore\n        /* \"contracts/Code Eater/Vote.sol\":5382:5412  candidateDetails[_candidateId] */\n      dup4\n      dup4\n      mstore\n        /* \"contracts/Code Eater/Vote.sol\":5382:5398  candidateDetails */\n      0x08\n        /* \"contracts/Code Eater/Vote.sol\":5382:5412  candidateDetails[_candidateId] */\n      swap1\n      swap2\n      mstore\n      dup2\n      keccak256\n        /* \"contracts/Code Eater/Vote.sol\":5382:5418  candidateDetails[_candidateId].votes */\n      0x06\n      add\n        /* \"contracts/Code Eater/Vote.sol\":5382:5420  candidateDetails[_candidateId].votes++ */\n      dup1\n      sload\n      swap2\n      tag_88\n      dup4\n      tag_89\n      jump\t// in\n    tag_88:\n      swap2\n      swap1\n      pop\n      sstore\n      pop\n        /* \"contracts/Code Eater/Vote.sol\":4953:5461  function castVote(uint _voterId, uint _candidateId) external {... */\n      pop\n      pop\n      jump\t// out\n        /* \"contracts/Code Eater/Vote.sol\":5836:6158  function getVotingStatus() public view returns (VotingStatus) {... */\n    tag_31:\n        /* \"contracts/Code Eater/Vote.sol\":5884:5896  VotingStatus */\n      0x00\n        /* \"contracts/Code Eater/Vote.sol\":5911:5920  startTime */\n      sload(0x04)\n        /* \"contracts/Code Eater/Vote.sol\":5924:5925  0 */\n      0x00\n        /* \"contracts/Code Eater/Vote.sol\":5911:5925  startTime == 0 */\n      sub\n        /* \"contracts/Code Eater/Vote.sol\":5908:6152  if(startTime == 0) {... */\n      tag_91\n      jumpi\n      pop\n        /* \"contracts/Code Eater/Vote.sol\":5948:5971  VotingStatus.NotStarted */\n      0x00\n      swap1\n        /* \"contracts/Code Eater/Vote.sol\":5836:6158  function getVotingStatus() public view returns (VotingStatus) {... */\n      jump\t// out\n        /* \"contracts/Code Eater/Vote.sol\":5908:6152  if(startTime == 0) {... */\n    tag_91:\n        /* \"contracts/Code Eater/Vote.sol\":6001:6016  block.timestamp */\n      timestamp\n        /* \"contracts/Code Eater/Vote.sol\":5991:5998  endTime */\n      sload(0x05)\n        /* \"contracts/Code Eater/Vote.sol\":5991:6016  endTime > block.timestamp */\n      gt\n        /* \"contracts/Code Eater/Vote.sol\":5991:6039  endTime > block.timestamp && stopVoting == false */\n      dup1\n      iszero\n      tag_93\n      jumpi\n      pop\n        /* \"contracts/Code Eater/Vote.sol\":6020:6030  stopVoting */\n      and(0xff, sload(0x06))\n        /* \"contracts/Code Eater/Vote.sol\":6020:6039  stopVoting == false */\n      iszero\n        /* \"contracts/Code Eater/Vote.sol\":5991:6039  endTime > block.timestamp && stopVoting == false */\n    tag_93:\n        /* \"contracts/Code Eater/Vote.sol\":5988:6152  if(endTime > block.timestamp && stopVoting == false) {... */\n      iszero\n      tag_94\n      jumpi\n      pop\n        /* \"contracts/Code Eater/Vote.sol\":6062:6085  VotingStatus.InProgress */\n      0x01\n      swap1\n        /* \"contracts/Code Eater/Vote.sol\":5836:6158  function getVotingStatus() public view returns (VotingStatus) {... */\n      jump\t// out\n        /* \"contracts/Code Eater/Vote.sol\":5988:6152  if(endTime > block.timestamp && stopVoting == false) {... */\n    tag_94:\n      pop\n        /* \"contracts/Code Eater/Vote.sol\":6123:6141  VotingStatus.Ended */\n      0x02\n      swap1\n        /* \"contracts/Code Eater/Vote.sol\":5836:6158  function getVotingStatus() public view returns (VotingStatus) {... */\n      jump\t// out\n        /* \"contracts/Code Eater/Vote.sol\":6165:6487  function announceVotingResult() external onlyCommissioner() {... */\n    tag_35:\n        /* \"contracts/Code Eater/Vote.sol\":1763:1781  electionCommission */\n      and(sub(shl(0xa0, 0x01), 0x01), sload(0x00))\n        /* \"contracts/Code Eater/Vote.sol\":1785:1795  msg.sender */\n      caller\n        /* \"contracts/Code Eater/Vote.sol\":1763:1795  electionCommission == msg.sender */\n      eq\n        /* \"contracts/Code Eater/Vote.sol\":1755:1851  require(electionCommission == msg.sender, \"You Have not the permission to execut this function\") */\n      tag_97\n      jumpi\n      mload(0x40)\n      shl(0xe5, 0x461bcd)\n      dup2\n      mstore\n      0x04\n      add\n      tag_79\n      swap1\n      tag_99\n      jump\t// in\n    tag_97:\n        /* \"contracts/Code Eater/Vote.sol\":6235:6243  uint max */\n      0x00\n        /* \"contracts/Code Eater/Vote.sol\":6260:6266  uint i */\n      dup1\n        /* \"contracts/Code Eater/Vote.sol\":6256:6480  for(uint i=0; i<nextCandidateId;i++) {... */\n    tag_101:\n        /* \"contracts/Code Eater/Vote.sol\":6272:6287  nextCandidateId */\n      sload(0x03)\n        /* \"contracts/Code Eater/Vote.sol\":6270:6271  i */\n      dup2\n        /* \"contracts/Code Eater/Vote.sol\":6270:6287  i<nextCandidateId */\n      lt\n        /* \"contracts/Code Eater/Vote.sol\":6256:6480  for(uint i=0; i<nextCandidateId;i++) {... */\n      iszero\n      tag_102\n      jumpi\n        /* \"contracts/Code Eater/Vote.sol\":6310:6329  candidateDetails[i] */\n      0x00\n      dup2\n      dup2\n      mstore\n        /* \"contracts/Code Eater/Vote.sol\":6310:6326  candidateDetails */\n      0x08\n        /* \"contracts/Code Eater/Vote.sol\":6310:6329  candidateDetails[i] */\n      0x20\n      mstore\n      0x40\n      swap1\n      keccak256\n        /* \"contracts/Code Eater/Vote.sol\":6310:6335  candidateDetails[i].votes */\n      0x06\n      add\n      sload\n        /* \"contracts/Code Eater/Vote.sol\":6310:6341  candidateDetails[i].votes > max */\n      dup3\n      lt\n        /* \"contracts/Code Eater/Vote.sol\":6307:6470  if(candidateDetails[i].votes > max) {... */\n      iszero\n      tag_104\n      jumpi\n        /* \"contracts/Code Eater/Vote.sol\":6367:6386  candidateDetails[i] */\n      0x00\n      dup2\n      dup2\n      mstore\n        /* \"contracts/Code Eater/Vote.sol\":6367:6383  candidateDetails */\n      0x08\n        /* \"contracts/Code Eater/Vote.sol\":6367:6386  candidateDetails[i] */\n      0x20\n      mstore\n      0x40\n      swap1\n      keccak256\n        /* \"contracts/Code Eater/Vote.sol\":6367:6392  candidateDetails[i].votes */\n      0x06\n      dup2\n      add\n      sload\n        /* \"contracts/Code Eater/Vote.sol\":6419:6455  candidateDetails[i].candidateAddress */\n      0x05\n      swap1\n      swap2\n      add\n      sload\n      0x01\n        /* \"contracts/Code Eater/Vote.sol\":6410:6455  winner = candidateDetails[i].candidateAddress */\n      dup1\n      sload\n      not(sub(shl(0xa0, 0x01), 0x01))\n      and\n      sub(shl(0xa0, 0x01), 0x01)\n        /* \"contracts/Code Eater/Vote.sol\":6419:6455  candidateDetails[i].candidateAddress */\n      swap1\n      swap3\n      and\n        /* \"contracts/Code Eater/Vote.sol\":6410:6455  winner = candidateDetails[i].candidateAddress */\n      swap2\n      swap1\n      swap2\n      or\n      swap1\n      sstore\n        /* \"contracts/Code Eater/Vote.sol\":6367:6392  candidateDetails[i].votes */\n      swap2\n      pop\n        /* \"contracts/Code Eater/Vote.sol\":6307:6470  if(candidateDetails[i].votes > max) {... */\n    tag_104:\n        /* \"contracts/Code Eater/Vote.sol\":6288:6291  i++ */\n      0x01\n      add\n        /* \"contracts/Code Eater/Vote.sol\":6256:6480  for(uint i=0; i<nextCandidateId;i++) {... */\n      jump(tag_101)\n    tag_102:\n      pop\n        /* \"contracts/Code Eater/Vote.sol\":6225:6487  {... */\n      pop\n        /* \"contracts/Code Eater/Vote.sol\":6165:6487  function announceVotingResult() external onlyCommissioner() {... */\n      jump\t// out\n        /* \"contracts/Code Eater/Vote.sol\":3960:4632  function registerVoter(... */\n    tag_43:\n        /* \"contracts/Code Eater/Vote.sol\":4088:4092  _age */\n      dup2\n        /* \"contracts/Code Eater/Vote.sol\":1951:1953  18 */\n      0x12\n        /* \"contracts/Code Eater/Vote.sol\":1937:1948  _requireage */\n      dup2\n        /* \"contracts/Code Eater/Vote.sol\":1937:1953  _requireage >=18 */\n      lt\n      iszero\n        /* \"contracts/Code Eater/Vote.sol\":1928:1974  require (_requireage >=18, \"You are below 18\") */\n      tag_107\n      jumpi\n      mload(0x40)\n      shl(0xe5, 0x461bcd)\n      dup2\n      mstore\n        /* \"#utility.yul\":10077:10079   */\n      0x20\n        /* \"contracts/Code Eater/Vote.sol\":1928:1974  require (_requireage >=18, \"You are below 18\") */\n      0x04\n      dup3\n      add\n        /* \"#utility.yul\":10059:10080   */\n      mstore\n        /* \"#utility.yul\":10116:10118   */\n      0x10\n        /* \"#utility.yul\":10096:10114   */\n      0x24\n      dup3\n      add\n        /* \"#utility.yul\":10089:10119   */\n      mstore\n      shl(0x83, 0x0b2deea40c2e4ca40c4cad8deee40627)\n        /* \"#utility.yul\":10135:10153   */\n      0x44\n      dup3\n      add\n        /* \"#utility.yul\":10128:10174   */\n      mstore\n        /* \"#utility.yul\":10191:10209   */\n      0x64\n      add\n        /* \"contracts/Code Eater/Vote.sol\":1928:1974  require (_requireage >=18, \"You are below 18\") */\n      tag_79\n        /* \"#utility.yul\":9875:10215   */\n      jump\n        /* \"contracts/Code Eater/Vote.sol\":1928:1974  require (_requireage >=18, \"You are below 18\") */\n    tag_107:\n        /* \"contracts/Code Eater/Vote.sol\":4164:4196  isVoterNotRegistered(msg.sender) */\n      tag_111\n        /* \"contracts/Code Eater/Vote.sol\":4185:4195  msg.sender */\n      caller\n        /* \"contracts/Code Eater/Vote.sol\":4164:4184  isVoterNotRegistered */\n      tag_112\n        /* \"contracts/Code Eater/Vote.sol\":4164:4196  isVoterNotRegistered(msg.sender) */\n      jump\t// in\n    tag_111:\n        /* \"contracts/Code Eater/Vote.sol\":4156:4226  require(isVoterNotRegistered(msg.sender),\"You are already registered\") */\n      tag_113\n      jumpi\n      mload(0x40)\n      shl(0xe5, 0x461bcd)\n      dup2\n      mstore\n        /* \"#utility.yul\":10422:10424   */\n      0x20\n        /* \"contracts/Code Eater/Vote.sol\":4156:4226  require(isVoterNotRegistered(msg.sender),\"You are already registered\") */\n      0x04\n      dup3\n      add\n        /* \"#utility.yul\":10404:10425   */\n      mstore\n        /* \"#utility.yul\":10461:10463   */\n      0x1a\n        /* \"#utility.yul\":10441:10459   */\n      0x24\n      dup3\n      add\n        /* \"#utility.yul\":10434:10464   */\n      mstore\n        /* \"#utility.yul\":10500:10528   */\n      0x596f752061726520616c72656164792072656769737465726564000000000000\n        /* \"#utility.yul\":10480:10498   */\n      0x44\n      dup3\n      add\n        /* \"#utility.yul\":10473:10529   */\n      mstore\n        /* \"#utility.yul\":10546:10564   */\n      0x64\n      add\n        /* \"contracts/Code Eater/Vote.sol\":4156:4226  require(isVoterNotRegistered(msg.sender),\"You are already registered\") */\n      tag_79\n        /* \"#utility.yul\":10220:10570   */\n      jump\n        /* \"contracts/Code Eater/Vote.sol\":4156:4226  require(isVoterNotRegistered(msg.sender),\"You are already registered\") */\n    tag_113:\n        /* \"contracts/Code Eater/Vote.sol\":4257:4275  electionCommission */\n      and(sub(shl(0xa0, 0x01), 0x01), sload(0x00))\n        /* \"contracts/Code Eater/Vote.sol\":4244:4254  msg.sender */\n      caller\n        /* \"contracts/Code Eater/Vote.sol\":4244:4275  msg.sender!= electionCommission */\n      sub\n        /* \"contracts/Code Eater/Vote.sol\":4236:4322  require(msg.sender!= electionCommission, \"Election commision not allowed to register\") */\n      tag_116\n      jumpi\n      mload(0x40)\n      shl(0xe5, 0x461bcd)\n      dup2\n      mstore\n      0x04\n      add\n      tag_79\n      swap1\n      tag_118\n      jump\t// in\n    tag_116:\n        /* \"contracts/Code Eater/Vote.sol\":4361:4602  Voter(... */\n      mload(0x40)\n      dup1\n      0xc0\n      add\n      0x40\n      mstore\n      dup1\n        /* \"contracts/Code Eater/Vote.sol\":4404:4409  _name */\n      dup7\n      dup7\n        /* \"contracts/Code Eater/Vote.sol\":4361:4602  Voter(... */\n      dup1\n      dup1\n      0x1f\n      add\n      0x20\n      dup1\n      swap2\n      div\n      mul\n      0x20\n      add\n      mload(0x40)\n      swap1\n      dup2\n      add\n      0x40\n      mstore\n      dup1\n      swap4\n      swap3\n      swap2\n      swap1\n      dup2\n      dup2\n      mstore\n      0x20\n      add\n      dup4\n      dup4\n      dup1\n      dup3\n      dup5\n      calldatacopy\n      0x00\n      swap3\n      add\n      swap2\n      swap1\n      swap2\n      mstore\n      pop\n      pop\n      pop\n      swap1\n      dup3\n      mstore\n      pop\n      0x20\n      dup2\n      add\n      dup6\n      swap1\n      mstore\n        /* \"contracts/Code Eater/Vote.sol\":4463:4474  nextVoterId */\n      sload(0x02)\n        /* \"contracts/Code Eater/Vote.sol\":4361:4602  Voter(... */\n      0x40\n      dup3\n      add\n      mstore\n      0x60\n      add\n        /* \"contracts/Code Eater/Vote.sol\":4501:4508  _gender */\n      dup4\n        /* \"contracts/Code Eater/Vote.sol\":4361:4602  Voter(... */\n      0x03\n      dup2\n      gt\n      iszero\n      tag_120\n      jumpi\n      tag_120\n      tag_121\n      jump\t// in\n    tag_120:\n      dup2\n      mstore\n        /* \"contracts/Code Eater/Vote.sol\":4543:4544  0 */\n      0x00\n        /* \"contracts/Code Eater/Vote.sol\":4361:4602  Voter(... */\n      0x20\n      dup1\n      dup4\n      add\n      dup3\n      swap1\n      mstore\n        /* \"contracts/Code Eater/Vote.sol\":4577:4587  msg.sender */\n      caller\n        /* \"contracts/Code Eater/Vote.sol\":4361:4602  Voter(... */\n      0x40\n      swap4\n      dup5\n      add\n      mstore\n        /* \"contracts/Code Eater/Vote.sol\":4346:4357  nextVoterId */\n      sload(0x02)\n        /* \"contracts/Code Eater/Vote.sol\":4333:4358  voterDetails[nextVoterId] */\n      dup3\n      mstore\n        /* \"contracts/Code Eater/Vote.sol\":4333:4345  voterDetails */\n      0x07\n        /* \"contracts/Code Eater/Vote.sol\":4333:4358  voterDetails[nextVoterId] */\n      swap1\n      mstore\n      keccak256\n        /* \"contracts/Code Eater/Vote.sol\":4333:4602  voterDetails[nextVoterId] = Voter(... */\n      dup2\n      mload\n        /* \"contracts/Code Eater/Vote.sol\":4333:4358  voterDetails[nextVoterId] */\n      dup2\n      swap1\n        /* \"contracts/Code Eater/Vote.sol\":4333:4602  voterDetails[nextVoterId] = Voter(... */\n      tag_122\n      swap1\n        /* \"contracts/Code Eater/Vote.sol\":4333:4358  voterDetails[nextVoterId] */\n      dup3\n        /* \"contracts/Code Eater/Vote.sol\":4333:4602  voterDetails[nextVoterId] = Voter(... */\n      tag_123\n      jump\t// in\n    tag_122:\n      pop\n      0x20\n      dup3\n      add\n      mload\n      dup2\n      0x01\n      add\n      sstore\n      0x40\n      dup3\n      add\n      mload\n      dup2\n      0x02\n      add\n      sstore\n      0x60\n      dup3\n      add\n      mload\n      dup2\n      0x03\n      add\n      exp(0x0100, 0x00)\n      dup2\n      sload\n      dup2\n      0xff\n      mul\n      not\n      and\n      swap1\n      dup4\n      0x03\n      dup2\n      gt\n      iszero\n      tag_125\n      jumpi\n      tag_125\n      tag_121\n      jump\t// in\n    tag_125:\n      mul\n      or\n      swap1\n      sstore\n      pop\n      0x80\n      dup3\n      add\n      mload\n      0x04\n      dup3\n      add\n      sstore\n      0xa0\n      swap1\n      swap2\n      add\n      mload\n      0x05\n      swap1\n      swap2\n      add\n      dup1\n      sload\n      not(sub(shl(0xa0, 0x01), 0x01))\n      and\n      sub(shl(0xa0, 0x01), 0x01)\n      swap1\n      swap3\n      and\n      swap2\n      swap1\n      swap2\n      or\n      swap1\n      sstore\n        /* \"contracts/Code Eater/Vote.sol\":4612:4623  nextVoterId */\n      0x02\n        /* \"contracts/Code Eater/Vote.sol\":4612:4625  nextVoterId++ */\n      dup1\n      sload\n      swap1\n      0x00\n      tag_126\n      dup4\n      tag_89\n      jump\t// in\n    tag_126:\n      swap2\n      swap1\n      pop\n      sstore\n      pop\n        /* \"contracts/Code Eater/Vote.sol\":3960:4632  function registerVoter(... */\n      pop\n      pop\n      pop\n      pop\n      pop\n      jump\t// out\n        /* \"contracts/Code Eater/Vote.sol\":1999:2860  function registerCandidate(... */\n    tag_51:\n        /* \"contracts/Code Eater/Vote.sol\":2217:2221  _age */\n      dup2\n        /* \"contracts/Code Eater/Vote.sol\":1951:1953  18 */\n      0x12\n        /* \"contracts/Code Eater/Vote.sol\":1937:1948  _requireage */\n      dup2\n        /* \"contracts/Code Eater/Vote.sol\":1937:1953  _requireage >=18 */\n      lt\n      iszero\n        /* \"contracts/Code Eater/Vote.sol\":1928:1974  require (_requireage >=18, \"You are below 18\") */\n      tag_129\n      jumpi\n      mload(0x40)\n      shl(0xe5, 0x461bcd)\n      dup2\n      mstore\n        /* \"#utility.yul\":10077:10079   */\n      0x20\n        /* \"contracts/Code Eater/Vote.sol\":1928:1974  require (_requireage >=18, \"You are below 18\") */\n      0x04\n      dup3\n      add\n        /* \"#utility.yul\":10059:10080   */\n      mstore\n        /* \"#utility.yul\":10116:10118   */\n      0x10\n        /* \"#utility.yul\":10096:10114   */\n      0x24\n      dup3\n      add\n        /* \"#utility.yul\":10089:10119   */\n      mstore\n      shl(0x83, 0x0b2deea40c2e4ca40c4cad8deee40627)\n        /* \"#utility.yul\":10135:10153   */\n      0x44\n      dup3\n      add\n        /* \"#utility.yul\":10128:10174   */\n      mstore\n        /* \"#utility.yul\":10191:10209   */\n      0x64\n      add\n        /* \"contracts/Code Eater/Vote.sol\":1928:1974  require (_requireage >=18, \"You are below 18\") */\n      tag_79\n        /* \"#utility.yul\":9875:10215   */\n      jump\n        /* \"contracts/Code Eater/Vote.sol\":1928:1974  require (_requireage >=18, \"You are below 18\") */\n    tag_129:\n        /* \"contracts/Code Eater/Vote.sol\":2293:2329  isCandidateNotRegistered(msg.sender) */\n      tag_132\n        /* \"contracts/Code Eater/Vote.sol\":2318:2328  msg.sender */\n      caller\n        /* \"contracts/Code Eater/Vote.sol\":2293:2317  isCandidateNotRegistered */\n      tag_133\n        /* \"contracts/Code Eater/Vote.sol\":2293:2329  isCandidateNotRegistered(msg.sender) */\n      jump\t// in\n    tag_132:\n        /* \"contracts/Code Eater/Vote.sol\":2285:2359  require(isCandidateNotRegistered(msg.sender),\"You are already registered\") */\n      tag_134\n      jumpi\n      mload(0x40)\n      shl(0xe5, 0x461bcd)\n      dup2\n      mstore\n        /* \"#utility.yul\":10422:10424   */\n      0x20\n        /* \"contracts/Code Eater/Vote.sol\":2285:2359  require(isCandidateNotRegistered(msg.sender),\"You are already registered\") */\n      0x04\n      dup3\n      add\n        /* \"#utility.yul\":10404:10425   */\n      mstore\n        /* \"#utility.yul\":10461:10463   */\n      0x1a\n        /* \"#utility.yul\":10441:10459   */\n      0x24\n      dup3\n      add\n        /* \"#utility.yul\":10434:10464   */\n      mstore\n        /* \"#utility.yul\":10500:10528   */\n      0x596f752061726520616c72656164792072656769737465726564000000000000\n        /* \"#utility.yul\":10480:10498   */\n      0x44\n      dup3\n      add\n        /* \"#utility.yul\":10473:10529   */\n      mstore\n        /* \"#utility.yul\":10546:10564   */\n      0x64\n      add\n        /* \"contracts/Code Eater/Vote.sol\":2285:2359  require(isCandidateNotRegistered(msg.sender),\"You are already registered\") */\n      tag_79\n        /* \"#utility.yul\":10220:10570   */\n      jump\n        /* \"contracts/Code Eater/Vote.sol\":2285:2359  require(isCandidateNotRegistered(msg.sender),\"You are already registered\") */\n    tag_134:\n        /* \"contracts/Code Eater/Vote.sol\":2393:2394  3 */\n      0x03\n        /* \"contracts/Code Eater/Vote.sol\":2377:2392  nextCandidateId */\n      dup1\n      sload\n        /* \"contracts/Code Eater/Vote.sol\":2377:2394  nextCandidateId<3 */\n      lt\n        /* \"contracts/Code Eater/Vote.sol\":2369:2436  require(nextCandidateId<3,\"Candidate Registration fulled , i.e. 2\") */\n      tag_136\n      jumpi\n      mload(0x40)\n      shl(0xe5, 0x461bcd)\n      dup2\n      mstore\n        /* \"#utility.yul\":13697:13699   */\n      0x20\n        /* \"contracts/Code Eater/Vote.sol\":2369:2436  require(nextCandidateId<3,\"Candidate Registration fulled , i.e. 2\") */\n      0x04\n      dup3\n      add\n        /* \"#utility.yul\":13679:13700   */\n      mstore\n        /* \"#utility.yul\":13736:13738   */\n      0x26\n        /* \"#utility.yul\":13716:13734   */\n      0x24\n      dup3\n      add\n        /* \"#utility.yul\":13709:13739   */\n      mstore\n        /* \"#utility.yul\":13775:13809   */\n      0x43616e64696461746520526567697374726174696f6e2066756c6c6564202c20\n        /* \"#utility.yul\":13755:13773   */\n      0x44\n      dup3\n      add\n        /* \"#utility.yul\":13748:13810   */\n      mstore\n      shl(0xd1, 0x349732971019)\n        /* \"#utility.yul\":13826:13844   */\n      0x64\n      dup3\n      add\n        /* \"#utility.yul\":13819:13855   */\n      mstore\n        /* \"#utility.yul\":13872:13891   */\n      0x84\n      add\n        /* \"contracts/Code Eater/Vote.sol\":2369:2436  require(nextCandidateId<3,\"Candidate Registration fulled , i.e. 2\") */\n      tag_79\n        /* \"#utility.yul\":13495:13897   */\n      jump\n        /* \"contracts/Code Eater/Vote.sol\":2369:2436  require(nextCandidateId<3,\"Candidate Registration fulled , i.e. 2\") */\n    tag_136:\n        /* \"contracts/Code Eater/Vote.sol\":2467:2485  electionCommission */\n      and(sub(shl(0xa0, 0x01), 0x01), sload(0x00))\n        /* \"contracts/Code Eater/Vote.sol\":2454:2464  msg.sender */\n      caller\n        /* \"contracts/Code Eater/Vote.sol\":2454:2485  msg.sender!= electionCommission */\n      sub\n        /* \"contracts/Code Eater/Vote.sol\":2446:2532  require(msg.sender!= electionCommission, \"Election commision not allowed to register\") */\n      tag_139\n      jumpi\n      mload(0x40)\n      shl(0xe5, 0x461bcd)\n      dup2\n      mstore\n      0x04\n      add\n      tag_79\n      swap1\n      tag_118\n      jump\t// in\n    tag_139:\n        /* \"contracts/Code Eater/Vote.sol\":2577:2826  Candidate(... */\n      mload(0x40)\n      dup1\n      0xe0\n      add\n      0x40\n      mstore\n      dup1\n        /* \"contracts/Code Eater/Vote.sol\":2616:2621  _name */\n      dup9\n      dup9\n        /* \"contracts/Code Eater/Vote.sol\":2577:2826  Candidate(... */\n      dup1\n      dup1\n      0x1f\n      add\n      0x20\n      dup1\n      swap2\n      div\n      mul\n      0x20\n      add\n      mload(0x40)\n      swap1\n      dup2\n      add\n      0x40\n      mstore\n      dup1\n      swap4\n      swap3\n      swap2\n      swap1\n      dup2\n      dup2\n      mstore\n      0x20\n      add\n      dup4\n      dup4\n      dup1\n      dup3\n      dup5\n      calldatacopy\n      0x00\n      swap3\n      add\n      swap2\n      swap1\n      swap2\n      mstore\n      pop\n      pop\n      pop\n      swap1\n      dup3\n      mstore\n      pop\n      0x40\n      dup1\n      mload\n      0x20\n      0x1f\n      dup10\n      add\n      dup2\n      swap1\n      div\n      dup2\n      mul\n      dup3\n      add\n      dup2\n      add\n      swap1\n      swap3\n      mstore\n      dup8\n      dup2\n      mstore\n      swap2\n      dup2\n      add\n      swap2\n      swap1\n        /* \"contracts/Code Eater/Vote.sol\":2644:2650  _party */\n      dup9\n      swap1\n      dup9\n      swap1\n      dup2\n      swap1\n        /* \"contracts/Code Eater/Vote.sol\":2577:2826  Candidate(... */\n      dup5\n      add\n        /* \"contracts/Code Eater/Vote.sol\":2644:2650  _party */\n      dup4\n      dup3\n      dup1\n      dup3\n        /* \"contracts/Code Eater/Vote.sol\":2577:2826  Candidate(... */\n      dup5\n      calldatacopy\n      0x00\n      swap3\n      add\n      swap2\n      swap1\n      swap2\n      mstore\n      pop\n      pop\n      pop\n      swap1\n      dup3\n      mstore\n      pop\n      0x20\n      dup2\n      add\n      dup6\n      swap1\n      mstore\n      0x40\n      add\n        /* \"contracts/Code Eater/Vote.sol\":2697:2704  _gender */\n      dup4\n        /* \"contracts/Code Eater/Vote.sol\":2577:2826  Candidate(... */\n      0x03\n      dup2\n      gt\n      iszero\n      tag_142\n      jumpi\n      tag_142\n      tag_121\n      jump\t// in\n    tag_142:\n      dup2\n      mstore\n        /* \"contracts/Code Eater/Vote.sol\":2732:2747  nextCandidateId */\n      sload(0x03)\n        /* \"contracts/Code Eater/Vote.sol\":2577:2826  Candidate(... */\n      0x20\n      dup1\n      dup4\n      add\n      dup3\n      swap1\n      mstore\n        /* \"contracts/Code Eater/Vote.sol\":2782:2792  msg.sender */\n      caller\n        /* \"contracts/Code Eater/Vote.sol\":2577:2826  Candidate(... */\n      0x40\n      dup1\n      dup6\n      add\n      swap2\n      swap1\n      swap2\n      mstore\n      0x00\n      0x60\n      swap1\n      swap5\n      add\n      dup5\n      swap1\n      mstore\n        /* \"contracts/Code Eater/Vote.sol\":2541:2574  candidateDetails[nextCandidateId] */\n      swap2\n      dup4\n      mstore\n        /* \"contracts/Code Eater/Vote.sol\":2541:2557  candidateDetails */\n      0x08\n        /* \"contracts/Code Eater/Vote.sol\":2541:2574  candidateDetails[nextCandidateId] */\n      swap1\n      mstore\n      swap1\n      keccak256\n        /* \"contracts/Code Eater/Vote.sol\":2541:2826  candidateDetails[nextCandidateId] = Candidate(... */\n      dup2\n      mload\n        /* \"contracts/Code Eater/Vote.sol\":2541:2574  candidateDetails[nextCandidateId] */\n      dup2\n      swap1\n        /* \"contracts/Code Eater/Vote.sol\":2541:2826  candidateDetails[nextCandidateId] = Candidate(... */\n      tag_143\n      swap1\n        /* \"contracts/Code Eater/Vote.sol\":2541:2574  candidateDetails[nextCandidateId] */\n      dup3\n        /* \"contracts/Code Eater/Vote.sol\":2541:2826  candidateDetails[nextCandidateId] = Candidate(... */\n      tag_123\n      jump\t// in\n    tag_143:\n      pop\n      0x20\n      dup3\n      add\n      mload\n      0x01\n      dup3\n      add\n      swap1\n      tag_144\n      swap1\n      dup3\n      tag_123\n      jump\t// in\n    tag_144:\n      pop\n      0x40\n      dup3\n      add\n      mload\n      dup2\n      0x02\n      add\n      sstore\n      0x60\n      dup3\n      add\n      mload\n      dup2\n      0x03\n      add\n      exp(0x0100, 0x00)\n      dup2\n      sload\n      dup2\n      0xff\n      mul\n      not\n      and\n      swap1\n      dup4\n      0x03\n      dup2\n      gt\n      iszero\n      tag_146\n      jumpi\n      tag_146\n      tag_121\n      jump\t// in\n    tag_146:\n      mul\n      or\n      swap1\n      sstore\n      pop\n      0x80\n      dup3\n      add\n      mload\n      0x04\n      dup3\n      add\n      sstore\n      0xa0\n      dup3\n      add\n      mload\n      0x05\n      dup3\n      add\n      dup1\n      sload\n      not(sub(shl(0xa0, 0x01), 0x01))\n      and\n      sub(shl(0xa0, 0x01), 0x01)\n      swap1\n      swap3\n      and\n      swap2\n      swap1\n      swap2\n      or\n      swap1\n      sstore\n      0xc0\n      swap1\n      swap2\n      add\n      mload\n      0x06\n      swap1\n      swap2\n      add\n      sstore\n        /* \"contracts/Code Eater/Vote.sol\":2836:2851  nextCandidateId */\n      0x03\n        /* \"contracts/Code Eater/Vote.sol\":2836:2853  nextCandidateId++ */\n      dup1\n      sload\n      swap1\n      0x00\n      tag_147\n      dup4\n      tag_89\n      jump\t// in\n    tag_147:\n      swap2\n      swap1\n      pop\n      sstore\n      pop\n        /* \"contracts/Code Eater/Vote.sol\":1999:2860  function registerCandidate(... */\n      pop\n      pop\n      pop\n      pop\n      pop\n      pop\n      pop\n      jump\t// out\n        /* \"contracts/Code Eater/Vote.sol\":6494:6584  function emergencyStopVoting() public onlyCommissioner() {... */\n    tag_53:\n        /* \"contracts/Code Eater/Vote.sol\":1763:1781  electionCommission */\n      and(sub(shl(0xa0, 0x01), 0x01), sload(0x00))\n        /* \"contracts/Code Eater/Vote.sol\":1785:1795  msg.sender */\n      caller\n        /* \"contracts/Code Eater/Vote.sol\":1763:1795  electionCommission == msg.sender */\n      eq\n        /* \"contracts/Code Eater/Vote.sol\":1755:1851  require(electionCommission == msg.sender, \"You Have not the permission to execut this function\") */\n      tag_149\n      jumpi\n      mload(0x40)\n      shl(0xe5, 0x461bcd)\n      dup2\n      mstore\n      0x04\n      add\n      tag_79\n      swap1\n      tag_99\n      jump\t// in\n    tag_149:\n        /* \"contracts/Code Eater/Vote.sol\":6560:6570  stopVoting */\n      0x06\n        /* \"contracts/Code Eater/Vote.sol\":6560:6577  stopVoting = true */\n      dup1\n      sload\n      not(0xff)\n      and\n        /* \"contracts/Code Eater/Vote.sol\":6573:6577  true */\n      0x01\n        /* \"contracts/Code Eater/Vote.sol\":6560:6577  stopVoting = true */\n      or\n      swap1\n      sstore\n        /* \"contracts/Code Eater/Vote.sol\":6494:6584  function emergencyStopVoting() public onlyCommissioner() {... */\n      jump\t// out\n        /* \"contracts/Code Eater/Vote.sol\":5468:5829  function setVotingPeriod(uint _startTime, uint _endTime) external onlyCommissioner() {... */\n    tag_56:\n        /* \"contracts/Code Eater/Vote.sol\":1763:1781  electionCommission */\n      and(sub(shl(0xa0, 0x01), 0x01), sload(0x00))\n        /* \"contracts/Code Eater/Vote.sol\":1785:1795  msg.sender */\n      caller\n        /* \"contracts/Code Eater/Vote.sol\":1763:1795  electionCommission == msg.sender */\n      eq\n        /* \"contracts/Code Eater/Vote.sol\":1755:1851  require(electionCommission == msg.sender, \"You Have not the permission to execut this function\") */\n      tag_153\n      jumpi\n      mload(0x40)\n      shl(0xe5, 0x461bcd)\n      dup2\n      mstore\n      0x04\n      add\n      tag_79\n      swap1\n      tag_99\n      jump\t// in\n    tag_153:\n        /* \"contracts/Code Eater/Vote.sol\":5648:5652  3600 */\n      0x0e10\n        /* \"contracts/Code Eater/Vote.sol\":5637:5645  _endTime */\n      dup2\n        /* \"contracts/Code Eater/Vote.sol\":5637:5652  _endTime > 3600 */\n      gt\n        /* \"contracts/Code Eater/Vote.sol\":5629:5702  require(_endTime > 3600, \"_endtime duration must be greater than 1 hour\") */\n      tag_156\n      jumpi\n      mload(0x40)\n      shl(0xe5, 0x461bcd)\n      dup2\n      mstore\n        /* \"#utility.yul\":14104:14106   */\n      0x20\n        /* \"contracts/Code Eater/Vote.sol\":5629:5702  require(_endTime > 3600, \"_endtime duration must be greater than 1 hour\") */\n      0x04\n      dup3\n      add\n        /* \"#utility.yul\":14086:14107   */\n      mstore\n        /* \"#utility.yul\":14143:14145   */\n      0x2d\n        /* \"#utility.yul\":14123:14141   */\n      0x24\n      dup3\n      add\n        /* \"#utility.yul\":14116:14146   */\n      mstore\n        /* \"#utility.yul\":14182:14216   */\n      0x5f656e6474696d65206475726174696f6e206d75737420626520677265617465\n        /* \"#utility.yul\":14162:14180   */\n      0x44\n      dup3\n      add\n        /* \"#utility.yul\":14155:14217   */\n      mstore\n      shl(0x99, 0x39103a3430b71018903437bab9)\n        /* \"#utility.yul\":14233:14251   */\n      0x64\n      dup3\n      add\n        /* \"#utility.yul\":14226:14269   */\n      mstore\n        /* \"#utility.yul\":14286:14305   */\n      0x84\n      add\n        /* \"contracts/Code Eater/Vote.sol\":5629:5702  require(_endTime > 3600, \"_endtime duration must be greater than 1 hour\") */\n      tag_79\n        /* \"#utility.yul\":13902:14311   */\n      jump\n        /* \"contracts/Code Eater/Vote.sol\":5629:5702  require(_endTime > 3600, \"_endtime duration must be greater than 1 hour\") */\n    tag_156:\n        /* \"contracts/Code Eater/Vote.sol\":5724:5750  block.timestamp+_startTime */\n      tag_159\n        /* \"contracts/Code Eater/Vote.sol\":5740:5750  _startTime */\n      dup3\n        /* \"contracts/Code Eater/Vote.sol\":5724:5739  block.timestamp */\n      timestamp\n        /* \"contracts/Code Eater/Vote.sol\":5724:5750  block.timestamp+_startTime */\n      tag_160\n      jump\t// in\n    tag_159:\n        /* \"contracts/Code Eater/Vote.sol\":5712:5721  startTime */\n      0x04\n        /* \"contracts/Code Eater/Vote.sol\":5712:5750  startTime = block.timestamp+_startTime */\n      dup2\n      swap1\n      sstore\n        /* \"contracts/Code Eater/Vote.sol\":5804:5822  startTime+_endTime */\n      tag_161\n      swap1\n        /* \"contracts/Code Eater/Vote.sol\":5814:5822  _endTime */\n      dup3\n      swap1\n        /* \"contracts/Code Eater/Vote.sol\":5804:5822  startTime+_endTime */\n      tag_160\n      jump\t// in\n    tag_161:\n        /* \"contracts/Code Eater/Vote.sol\":5794:5801  endTime */\n      0x05\n        /* \"contracts/Code Eater/Vote.sol\":5794:5822  endTime = startTime+_endTime */\n      sstore\n      pop\n      pop\n        /* \"contracts/Code Eater/Vote.sol\":5468:5829  function setVotingPeriod(uint _startTime, uint _endTime) external onlyCommissioner() {... */\n      jump\t// out\n        /* \"contracts/Code Eater/Vote.sol\":4639:4946  function getVoterList() public view returns (Voter[] memory) {... */\n    tag_61:\n        /* \"contracts/Code Eater/Vote.sol\":4684:4698  Voter[] memory */\n      0x60\n        /* \"contracts/Code Eater/Vote.sol\":4710:4734  Voter[] memory voterlist */\n      0x00\n        /* \"contracts/Code Eater/Vote.sol\":4763:4764  1 */\n      0x01\n        /* \"contracts/Code Eater/Vote.sol\":4749:4760  nextVoterId */\n      sload(0x02)\n        /* \"contracts/Code Eater/Vote.sol\":4749:4764  nextVoterId - 1 */\n      tag_163\n      swap2\n      swap1\n      tag_164\n      jump\t// in\n    tag_163:\n        /* \"contracts/Code Eater/Vote.sol\":4737:4765  new Voter[](nextVoterId - 1) */\n      0xffffffffffffffff\n      dup2\n      gt\n      iszero\n      tag_166\n      jumpi\n      tag_166\n      tag_167\n      jump\t// in\n    tag_166:\n      mload(0x40)\n      swap1\n      dup1\n      dup3\n      mstore\n      dup1\n      0x20\n      mul\n      0x20\n      add\n      dup3\n      add\n      0x40\n      mstore\n      dup1\n      iszero\n      tag_168\n      jumpi\n      dup2\n      0x20\n      add\n    tag_169:\n      tag_170\n      tag_171\n      jump\t// in\n    tag_170:\n      dup2\n      mstore\n      0x20\n      add\n      swap1\n      0x01\n      swap1\n      sub\n      swap1\n      dup2\n      tag_169\n      jumpi\n      swap1\n      pop\n    tag_168:\n      pop\n        /* \"contracts/Code Eater/Vote.sol\":4710:4765  Voter[] memory voterlist = new Voter[](nextVoterId - 1) */\n      swap1\n      pop\n        /* \"contracts/Code Eater/Vote.sol\":4820:4826  uint i */\n      0x00\n        /* \"contracts/Code Eater/Vote.sol\":4816:4914  for(uint i=0; i < voterlist.length; i++) {... */\n    tag_172:\n        /* \"contracts/Code Eater/Vote.sol\":4834:4843  voterlist */\n      dup2\n        /* \"contracts/Code Eater/Vote.sol\":4834:4850  voterlist.length */\n      mload\n        /* \"contracts/Code Eater/Vote.sol\":4830:4831  i */\n      dup2\n        /* \"contracts/Code Eater/Vote.sol\":4830:4850  i < voterlist.length */\n      lt\n        /* \"contracts/Code Eater/Vote.sol\":4816:4914  for(uint i=0; i < voterlist.length; i++) {... */\n      iszero\n      tag_173\n      jumpi\n        /* \"contracts/Code Eater/Vote.sol\":4886:4898  voterDetails */\n      0x07\n        /* \"contracts/Code Eater/Vote.sol\":4886:4903  voterDetails[i+1] */\n      0x00\n        /* \"contracts/Code Eater/Vote.sol\":4899:4902  i+1 */\n      tag_175\n        /* \"contracts/Code Eater/Vote.sol\":4899:4900  i */\n      dup4\n        /* \"contracts/Code Eater/Vote.sol\":4901:4902  1 */\n      0x01\n        /* \"contracts/Code Eater/Vote.sol\":4899:4902  i+1 */\n      tag_160\n      jump\t// in\n    tag_175:\n        /* \"contracts/Code Eater/Vote.sol\":4886:4903  voterDetails[i+1] */\n      dup2\n      mstore\n      0x20\n      add\n      swap1\n      dup2\n      mstore\n      0x20\n      add\n      0x00\n      keccak256\n        /* \"contracts/Code Eater/Vote.sol\":4871:4903  voterlist[i] = voterDetails[i+1] */\n      mload(0x40)\n      dup1\n      0xc0\n      add\n      0x40\n      mstore\n      swap1\n      dup2\n      0x00\n      dup3\n      add\n      dup1\n      sload\n      tag_176\n      swap1\n      tag_177\n      jump\t// in\n    tag_176:\n      dup1\n      0x1f\n      add\n      0x20\n      dup1\n      swap2\n      div\n      mul\n      0x20\n      add\n      mload(0x40)\n      swap1\n      dup2\n      add\n      0x40\n      mstore\n      dup1\n      swap3\n      swap2\n      swap1\n      dup2\n      dup2\n      mstore\n      0x20\n      add\n      dup3\n      dup1\n      sload\n      tag_178\n      swap1\n      tag_177\n      jump\t// in\n    tag_178:\n      dup1\n      iszero\n      tag_179\n      jumpi\n      dup1\n      0x1f\n      lt\n      tag_180\n      jumpi\n      0x0100\n      dup1\n      dup4\n      sload\n      div\n      mul\n      dup4\n      mstore\n      swap2\n      0x20\n      add\n      swap2\n      jump(tag_179)\n    tag_180:\n      dup3\n      add\n      swap2\n      swap1\n      0x00\n      mstore\n      keccak256(0x00, 0x20)\n      swap1\n    tag_181:\n      dup2\n      sload\n      dup2\n      mstore\n      swap1\n      0x01\n      add\n      swap1\n      0x20\n      add\n      dup1\n      dup4\n      gt\n      tag_181\n      jumpi\n      dup3\n      swap1\n      sub\n      0x1f\n      and\n      dup3\n      add\n      swap2\n    tag_179:\n      pop\n      pop\n      pop\n      swap2\n      dup4\n      mstore\n      pop\n      pop\n      0x01\n      dup3\n      add\n      sload\n      0x20\n      dup3\n      add\n      mstore\n      0x02\n      dup3\n      add\n      sload\n      0x40\n      dup3\n      add\n      mstore\n      0x03\n      dup1\n      dup4\n      add\n      sload\n      0x60\n      swap1\n      swap3\n      add\n      swap2\n      0xff\n      and\n      swap1\n      dup2\n      gt\n      iszero\n      tag_183\n      jumpi\n      tag_183\n      tag_121\n      jump\t// in\n    tag_183:\n      0x03\n      dup2\n      gt\n      iszero\n      tag_185\n      jumpi\n      tag_185\n      tag_121\n      jump\t// in\n    tag_185:\n      dup2\n      mstore\n      0x04\n      dup3\n      add\n      sload\n      0x20\n      dup3\n      add\n      mstore\n      0x05\n      swap1\n      swap2\n      add\n      sload\n      sub(shl(0xa0, 0x01), 0x01)\n      and\n      0x40\n      swap1\n      swap2\n      add\n      mstore\n        /* \"contracts/Code Eater/Vote.sol\":4871:4883  voterlist[i] */\n      dup3\n      mload\n        /* \"contracts/Code Eater/Vote.sol\":4871:4880  voterlist */\n      dup4\n      swap1\n        /* \"contracts/Code Eater/Vote.sol\":4881:4882  i */\n      dup4\n      swap1\n        /* \"contracts/Code Eater/Vote.sol\":4871:4883  voterlist[i] */\n      dup2\n      lt\n      tag_187\n      jumpi\n      tag_187\n      tag_76\n      jump\t// in\n    tag_187:\n      0x20\n      swap1\n      dup2\n      mul\n      swap2\n      swap1\n      swap2\n      add\n      add\n        /* \"contracts/Code Eater/Vote.sol\":4871:4903  voterlist[i] = voterDetails[i+1] */\n      mstore\n        /* \"contracts/Code Eater/Vote.sol\":4852:4855  i++ */\n      0x01\n      add\n        /* \"contracts/Code Eater/Vote.sol\":4816:4914  for(uint i=0; i < voterlist.length; i++) {... */\n      jump(tag_172)\n    tag_173:\n      pop\n        /* \"contracts/Code Eater/Vote.sol\":4930:4939  voterlist */\n      swap2\n        /* \"contracts/Code Eater/Vote.sol\":4639:4946  function getVoterList() public view returns (Voter[] memory) {... */\n      swap1\n      pop\n      jump\t// out\n        /* \"contracts/Code Eater/Vote.sol\":3166:3645  function getCandidateList() public view returns (Candidate[] memory) {... */\n    tag_68:\n        /* \"contracts/Code Eater/Vote.sol\":3215:3233  Candidate[] memory */\n      0x60\n        /* \"contracts/Code Eater/Vote.sol\":3377:3409  Candidate[] memory candidateList */\n      0x00\n        /* \"contracts/Code Eater/Vote.sol\":3446:3447  1 */\n      0x01\n        /* \"contracts/Code Eater/Vote.sol\":3428:3443  nextCandidateId */\n      sload(0x03)\n        /* \"contracts/Code Eater/Vote.sol\":3428:3447  nextCandidateId - 1 */\n      tag_189\n      swap2\n      swap1\n      tag_164\n      jump\t// in\n    tag_189:\n        /* \"contracts/Code Eater/Vote.sol\":3412:3448  new Candidate[](nextCandidateId - 1) */\n      0xffffffffffffffff\n      dup2\n      gt\n      iszero\n      tag_191\n      jumpi\n      tag_191\n      tag_167\n      jump\t// in\n    tag_191:\n      mload(0x40)\n      swap1\n      dup1\n      dup3\n      mstore\n      dup1\n      0x20\n      mul\n      0x20\n      add\n      dup3\n      add\n      0x40\n      mstore\n      dup1\n      iszero\n      tag_192\n      jumpi\n      dup2\n      0x20\n      add\n    tag_193:\n      tag_194\n      tag_195\n      jump\t// in\n    tag_194:\n      dup2\n      mstore\n      0x20\n      add\n      swap1\n      0x01\n      swap1\n      sub\n      swap1\n      dup2\n      tag_193\n      jumpi\n      swap1\n      pop\n    tag_192:\n      pop\n        /* \"contracts/Code Eater/Vote.sol\":3377:3448  Candidate[] memory candidateList = new Candidate[](nextCandidateId - 1) */\n      swap1\n      pop\n        /* \"contracts/Code Eater/Vote.sol\":3503:3509  uint i */\n      0x00\n        /* \"contracts/Code Eater/Vote.sol\":3499:3609  for(uint i=0; i < candidateList.length; i++) {... */\n    tag_196:\n        /* \"contracts/Code Eater/Vote.sol\":3517:3530  candidateList */\n      dup2\n        /* \"contracts/Code Eater/Vote.sol\":3517:3537  candidateList.length */\n      mload\n        /* \"contracts/Code Eater/Vote.sol\":3513:3514  i */\n      dup2\n        /* \"contracts/Code Eater/Vote.sol\":3513:3537  i < candidateList.length */\n      lt\n        /* \"contracts/Code Eater/Vote.sol\":3499:3609  for(uint i=0; i < candidateList.length; i++) {... */\n      iszero\n      tag_173\n      jumpi\n        /* \"contracts/Code Eater/Vote.sol\":3577:3593  candidateDetails */\n      0x08\n        /* \"contracts/Code Eater/Vote.sol\":3577:3598  candidateDetails[i+1] */\n      0x00\n        /* \"contracts/Code Eater/Vote.sol\":3594:3597  i+1 */\n      tag_199\n        /* \"contracts/Code Eater/Vote.sol\":3594:3595  i */\n      dup4\n        /* \"contracts/Code Eater/Vote.sol\":3596:3597  1 */\n      0x01\n        /* \"contracts/Code Eater/Vote.sol\":3594:3597  i+1 */\n      tag_160\n      jump\t// in\n    tag_199:\n        /* \"contracts/Code Eater/Vote.sol\":3577:3598  candidateDetails[i+1] */\n      dup2\n      mstore\n      0x20\n      add\n      swap1\n      dup2\n      mstore\n      0x20\n      add\n      0x00\n      keccak256\n        /* \"contracts/Code Eater/Vote.sol\":3558:3598  candidateList[i] = candidateDetails[i+1] */\n      mload(0x40)\n      dup1\n      0xe0\n      add\n      0x40\n      mstore\n      swap1\n      dup2\n      0x00\n      dup3\n      add\n      dup1\n      sload\n      tag_200\n      swap1\n      tag_177\n      jump\t// in\n    tag_200:\n      dup1\n      0x1f\n      add\n      0x20\n      dup1\n      swap2\n      div\n      mul\n      0x20\n      add\n      mload(0x40)\n      swap1\n      dup2\n      add\n      0x40\n      mstore\n      dup1\n      swap3\n      swap2\n      swap1\n      dup2\n      dup2\n      mstore\n      0x20\n      add\n      dup3\n      dup1\n      sload\n      tag_201\n      swap1\n      tag_177\n      jump\t// in\n    tag_201:\n      dup1\n      iszero\n      tag_202\n      jumpi\n      dup1\n      0x1f\n      lt\n      tag_203\n      jumpi\n      0x0100\n      dup1\n      dup4\n      sload\n      div\n      mul\n      dup4\n      mstore\n      swap2\n      0x20\n      add\n      swap2\n      jump(tag_202)\n    tag_203:\n      dup3\n      add\n      swap2\n      swap1\n      0x00\n      mstore\n      keccak256(0x00, 0x20)\n      swap1\n    tag_204:\n      dup2\n      sload\n      dup2\n      mstore\n      swap1\n      0x01\n      add\n      swap1\n      0x20\n      add\n      dup1\n      dup4\n      gt\n      tag_204\n      jumpi\n      dup3\n      swap1\n      sub\n      0x1f\n      and\n      dup3\n      add\n      swap2\n    tag_202:\n      pop\n      pop\n      pop\n      pop\n      pop\n      dup2\n      mstore\n      0x20\n      add\n      0x01\n      dup3\n      add\n      dup1\n      sload\n      tag_205\n      swap1\n      tag_177\n      jump\t// in\n    tag_205:\n      dup1\n      0x1f\n      add\n      0x20\n      dup1\n      swap2\n      div\n      mul\n      0x20\n      add\n      mload(0x40)\n      swap1\n      dup2\n      add\n      0x40\n      mstore\n      dup1\n      swap3\n      swap2\n      swap1\n      dup2\n      dup2\n      mstore\n      0x20\n      add\n      dup3\n      dup1\n      sload\n      tag_206\n      swap1\n      tag_177\n      jump\t// in\n    tag_206:\n      dup1\n      iszero\n      tag_207\n      jumpi\n      dup1\n      0x1f\n      lt\n      tag_208\n      jumpi\n      0x0100\n      dup1\n      dup4\n      sload\n      div\n      mul\n      dup4\n      mstore\n      swap2\n      0x20\n      add\n      swap2\n      jump(tag_207)\n    tag_208:\n      dup3\n      add\n      swap2\n      swap1\n      0x00\n      mstore\n      keccak256(0x00, 0x20)\n      swap1\n    tag_209:\n      dup2\n      sload\n      dup2\n      mstore\n      swap1\n      0x01\n      add\n      swap1\n      0x20\n      add\n      dup1\n      dup4\n      gt\n      tag_209\n      jumpi\n      dup3\n      swap1\n      sub\n      0x1f\n      and\n      dup3\n      add\n      swap2\n    tag_207:\n      pop\n      pop\n      pop\n      swap2\n      dup4\n      mstore\n      pop\n      pop\n      0x02\n      dup3\n      add\n      sload\n      0x20\n      dup3\n      add\n      mstore\n      0x03\n      dup1\n      dup4\n      add\n      sload\n      0x40\n      swap1\n      swap3\n      add\n      swap2\n      0xff\n      and\n      swap1\n      dup2\n      gt\n      iszero\n      tag_211\n      jumpi\n      tag_211\n      tag_121\n      jump\t// in\n    tag_211:\n      0x03\n      dup2\n      gt\n      iszero\n      tag_213\n      jumpi\n      tag_213\n      tag_121\n      jump\t// in\n    tag_213:\n      dup2\n      mstore\n      0x04\n      dup3\n      add\n      sload\n      0x20\n      dup3\n      add\n      mstore\n      0x05\n      dup3\n      add\n      sload\n      sub(shl(0xa0, 0x01), 0x01)\n      and\n      0x40\n      dup3\n      add\n      mstore\n      0x06\n      swap1\n      swap2\n      add\n      sload\n      0x60\n      swap1\n      swap2\n      add\n      mstore\n        /* \"contracts/Code Eater/Vote.sol\":3558:3574  candidateList[i] */\n      dup3\n      mload\n        /* \"contracts/Code Eater/Vote.sol\":3558:3571  candidateList */\n      dup4\n      swap1\n        /* \"contracts/Code Eater/Vote.sol\":3572:3573  i */\n      dup4\n      swap1\n        /* \"contracts/Code Eater/Vote.sol\":3558:3574  candidateList[i] */\n      dup2\n      lt\n      tag_215\n      jumpi\n      tag_215\n      tag_76\n      jump\t// in\n    tag_215:\n      0x20\n      swap1\n      dup2\n      mul\n      swap2\n      swap1\n      swap2\n      add\n      add\n        /* \"contracts/Code Eater/Vote.sol\":3558:3598  candidateList[i] = candidateDetails[i+1] */\n      mstore\n        /* \"contracts/Code Eater/Vote.sol\":3539:3542  i++ */\n      0x01\n      add\n        /* \"contracts/Code Eater/Vote.sol\":3499:3609  for(uint i=0; i < candidateList.length; i++) {... */\n      jump(tag_196)\n        /* \"contracts/Code Eater/Vote.sol\":3687:3954  function isVoterNotRegistered(address _person) internal view returns (bool) {... */\n    tag_112:\n        /* \"contracts/Code Eater/Vote.sol\":3757:3761  bool */\n      0x00\n        /* \"contracts/Code Eater/Vote.sol\":3786:3787  1 */\n      0x01\n        /* \"contracts/Code Eater/Vote.sol\":3774:3924  for (uint i=1; i< nextVoterId; i++) {... */\n    tag_217:\n        /* \"contracts/Code Eater/Vote.sol\":3792:3803  nextVoterId */\n      sload(0x02)\n        /* \"contracts/Code Eater/Vote.sol\":3789:3790  i */\n      dup2\n        /* \"contracts/Code Eater/Vote.sol\":3789:3803  i< nextVoterId */\n      lt\n        /* \"contracts/Code Eater/Vote.sol\":3774:3924  for (uint i=1; i< nextVoterId; i++) {... */\n      iszero\n      tag_218\n      jumpi\n        /* \"contracts/Code Eater/Vote.sol\":3827:3842  voterDetails[i] */\n      0x00\n      dup2\n      dup2\n      mstore\n        /* \"contracts/Code Eater/Vote.sol\":3827:3839  voterDetails */\n      0x07\n        /* \"contracts/Code Eater/Vote.sol\":3827:3842  voterDetails[i] */\n      0x20\n      mstore\n      0x40\n      swap1\n      keccak256\n        /* \"contracts/Code Eater/Vote.sol\":3827:3855  voterDetails[i].voterAddress */\n      0x05\n      add\n      sload\n      sub(shl(0xa0, 0x01), 0x01)\n        /* \"contracts/Code Eater/Vote.sol\":3827:3866  voterDetails[i].voterAddress == _person */\n      dup1\n      dup6\n      and\n        /* \"contracts/Code Eater/Vote.sol\":3827:3855  voterDetails[i].voterAddress */\n      swap2\n      and\n        /* \"contracts/Code Eater/Vote.sol\":3827:3866  voterDetails[i].voterAddress == _person */\n      sub\n        /* \"contracts/Code Eater/Vote.sol\":3824:3913  if(voterDetails[i].voterAddress == _person) {... */\n      tag_220\n      jumpi\n      pop\n        /* \"contracts/Code Eater/Vote.sol\":3893:3898  false */\n      0x00\n      swap3\n        /* \"contracts/Code Eater/Vote.sol\":3687:3954  function isVoterNotRegistered(address _person) internal view returns (bool) {... */\n      swap2\n      pop\n      pop\n      jump\t// out\n        /* \"contracts/Code Eater/Vote.sol\":3824:3913  if(voterDetails[i].voterAddress == _person) {... */\n    tag_220:\n        /* \"contracts/Code Eater/Vote.sol\":3805:3808  i++ */\n      0x01\n      add\n        /* \"contracts/Code Eater/Vote.sol\":3774:3924  for (uint i=1; i< nextVoterId; i++) {... */\n      jump(tag_217)\n    tag_218:\n      pop\n        /* \"contracts/Code Eater/Vote.sol\":3941:3945  true */\n      0x01\n      swap3\n        /* \"contracts/Code Eater/Vote.sol\":3687:3954  function isVoterNotRegistered(address _person) internal view returns (bool) {... */\n      swap2\n      pop\n      pop\n      jump\t// out\n        /* \"contracts/Code Eater/Vote.sol\":2867:3150  function isCandidateNotRegistered(address _person) internal view returns (bool) {... */\n    tag_133:\n        /* \"contracts/Code Eater/Vote.sol\":2941:2945  bool */\n      0x00\n        /* \"contracts/Code Eater/Vote.sol\":2970:2971  1 */\n      0x01\n        /* \"contracts/Code Eater/Vote.sol\":2958:3120  for (uint i=1; i< nextCandidateId; i++) {... */\n    tag_222:\n        /* \"contracts/Code Eater/Vote.sol\":2976:2991  nextCandidateId */\n      sload(0x03)\n        /* \"contracts/Code Eater/Vote.sol\":2973:2974  i */\n      dup2\n        /* \"contracts/Code Eater/Vote.sol\":2973:2991  i< nextCandidateId */\n      lt\n        /* \"contracts/Code Eater/Vote.sol\":2958:3120  for (uint i=1; i< nextCandidateId; i++) {... */\n      iszero\n      tag_218\n      jumpi\n        /* \"contracts/Code Eater/Vote.sol\":3015:3034  candidateDetails[i] */\n      0x00\n      dup2\n      dup2\n      mstore\n        /* \"contracts/Code Eater/Vote.sol\":3015:3031  candidateDetails */\n      0x08\n        /* \"contracts/Code Eater/Vote.sol\":3015:3034  candidateDetails[i] */\n      0x20\n      mstore\n      0x40\n      swap1\n      keccak256\n        /* \"contracts/Code Eater/Vote.sol\":3015:3051  candidateDetails[i].candidateAddress */\n      0x05\n      add\n      sload\n      sub(shl(0xa0, 0x01), 0x01)\n        /* \"contracts/Code Eater/Vote.sol\":3015:3062  candidateDetails[i].candidateAddress == _person */\n      dup1\n      dup6\n      and\n        /* \"contracts/Code Eater/Vote.sol\":3015:3051  candidateDetails[i].candidateAddress */\n      swap2\n      and\n        /* \"contracts/Code Eater/Vote.sol\":3015:3062  candidateDetails[i].candidateAddress == _person */\n      sub\n        /* \"contracts/Code Eater/Vote.sol\":3012:3109  if(candidateDetails[i].candidateAddress == _person) {... */\n      tag_225\n      jumpi\n      pop\n        /* \"contracts/Code Eater/Vote.sol\":3089:3094  false */\n      0x00\n      swap3\n        /* \"contracts/Code Eater/Vote.sol\":2867:3150  function isCandidateNotRegistered(address _person) internal view returns (bool) {... */\n      swap2\n      pop\n      pop\n      jump\t// out\n        /* \"contracts/Code Eater/Vote.sol\":3012:3109  if(candidateDetails[i].candidateAddress == _person) {... */\n    tag_225:\n        /* \"contracts/Code Eater/Vote.sol\":2993:2996  i++ */\n      0x01\n      add\n        /* \"contracts/Code Eater/Vote.sol\":2958:3120  for (uint i=1; i< nextCandidateId; i++) {... */\n      jump(tag_222)\n    tag_72:\n      mload(0x40)\n      dup1\n      0x60\n      add\n      0x40\n      mstore\n      dup1\n      0x03\n      swap1\n      0x20\n      dup3\n      mul\n      dup1\n      calldatasize\n      dup4\n      calldatacopy\n      pop\n      swap2\n      swap3\n      swap2\n      pop\n      pop\n      jump\t// out\n    tag_171:\n      mload(0x40)\n      dup1\n      0xc0\n      add\n      0x40\n      mstore\n      dup1\n      0x60\n      dup2\n      mstore\n      0x20\n      add\n      0x00\n      dup2\n      mstore\n      0x20\n      add\n      0x00\n      dup2\n      mstore\n      0x20\n      add\n      0x00\n      0x03\n      dup2\n      gt\n      iszero\n      tag_227\n      jumpi\n      tag_227\n      tag_121\n      jump\t// in\n    tag_227:\n      dup2\n      mstore\n      0x00\n      0x20\n      dup3\n      add\n      dup2\n      swap1\n      mstore\n      0x40\n      swap1\n      swap2\n      add\n      mstore\n      swap1\n      jump\t// out\n    tag_195:\n      mload(0x40)\n      dup1\n      0xe0\n      add\n      0x40\n      mstore\n      dup1\n      0x60\n      dup2\n      mstore\n      0x20\n      add\n      0x60\n      dup2\n      mstore\n      0x20\n      add\n      0x00\n      dup2\n      mstore\n      0x20\n      add\n      0x00\n      0x03\n      dup2\n      gt\n      iszero\n      tag_229\n      jumpi\n      tag_229\n      tag_121\n      jump\t// in\n    tag_229:\n      dup2\n      mstore\n      0x20\n      add\n      0x00\n      dup2\n      mstore\n      0x20\n      add\n      and(sub(shl(0xa0, 0x01), 0x01), 0x00)\n      dup2\n      mstore\n      0x20\n      add\n      0x00\n      dup2\n      mstore\n      pop\n      swap1\n      jump\t// out\n        /* \"#utility.yul\":14:141   */\n    tag_167:\n        /* \"#utility.yul\":75:85   */\n      0x4e487b71\n        /* \"#utility.yul\":70:73   */\n      0xe0\n        /* \"#utility.yul\":66:86   */\n      shl\n        /* \"#utility.yul\":63:64   */\n      0x00\n        /* \"#utility.yul\":56:87   */\n      mstore\n        /* \"#utility.yul\":106:110   */\n      0x41\n        /* \"#utility.yul\":103:104   */\n      0x04\n        /* \"#utility.yul\":96:111   */\n      mstore\n        /* \"#utility.yul\":130:134   */\n      0x24\n        /* \"#utility.yul\":127:128   */\n      0x00\n        /* \"#utility.yul\":120:135   */\n      revert\n        /* \"#utility.yul\":146:958   */\n    tag_22:\n        /* \"#utility.yul\":228:234   */\n      0x00\n        /* \"#utility.yul\":281:283   */\n      0x60\n        /* \"#utility.yul\":269:278   */\n      dup3\n        /* \"#utility.yul\":260:267   */\n      dup5\n        /* \"#utility.yul\":256:279   */\n      sub\n        /* \"#utility.yul\":252:284   */\n      slt\n        /* \"#utility.yul\":249:301   */\n      iszero\n      tag_241\n      jumpi\n        /* \"#utility.yul\":297:298   */\n      0x00\n        /* \"#utility.yul\":294:295   */\n      dup1\n        /* \"#utility.yul\":287:299   */\n      revert\n        /* \"#utility.yul\":249:301   */\n    tag_241:\n        /* \"#utility.yul\":346:353   */\n      dup3\n        /* \"#utility.yul\":339:343   */\n      0x1f\n        /* \"#utility.yul\":328:337   */\n      dup4\n        /* \"#utility.yul\":324:344   */\n      add\n        /* \"#utility.yul\":320:354   */\n      slt\n        /* \"#utility.yul\":310:372   */\n      tag_242\n      jumpi\n        /* \"#utility.yul\":368:369   */\n      0x00\n        /* \"#utility.yul\":365:366   */\n      dup1\n        /* \"#utility.yul\":358:370   */\n      revert\n        /* \"#utility.yul\":310:372   */\n    tag_242:\n        /* \"#utility.yul\":401:403   */\n      0x40\n        /* \"#utility.yul\":395:404   */\n      mload\n        /* \"#utility.yul\":443:445   */\n      0x60\n        /* \"#utility.yul\":435:441   */\n      dup2\n        /* \"#utility.yul\":431:446   */\n      add\n        /* \"#utility.yul\":512:518   */\n      dup2\n        /* \"#utility.yul\":500:510   */\n      dup2\n        /* \"#utility.yul\":497:519   */\n      lt\n        /* \"#utility.yul\":476:494   */\n      0xffffffffffffffff\n        /* \"#utility.yul\":464:474   */\n      dup3\n        /* \"#utility.yul\":461:495   */\n      gt\n        /* \"#utility.yul\":458:520   */\n      or\n        /* \"#utility.yul\":455:543   */\n      iszero\n      tag_244\n      jumpi\n        /* \"#utility.yul\":523:541   */\n      tag_244\n      tag_167\n      jump\t// in\n    tag_244:\n        /* \"#utility.yul\":559:561   */\n      0x40\n        /* \"#utility.yul\":552:574   */\n      mstore\n        /* \"#utility.yul\":594:600   */\n      dup1\n        /* \"#utility.yul\":638:640   */\n      0x60\n        /* \"#utility.yul\":623:641   */\n      dup5\n      add\n        /* \"#utility.yul\":653:672   */\n      dup6\n      dup2\n      gt\n        /* \"#utility.yul\":650:689   */\n      iszero\n      tag_245\n      jumpi\n        /* \"#utility.yul\":685:686   */\n      0x00\n        /* \"#utility.yul\":682:683   */\n      dup1\n        /* \"#utility.yul\":675:687   */\n      revert\n        /* \"#utility.yul\":650:689   */\n    tag_245:\n        /* \"#utility.yul\":709:718   */\n      dup5\n        /* \"#utility.yul\":727:927   */\n    tag_246:\n        /* \"#utility.yul\":743:749   */\n      dup2\n        /* \"#utility.yul\":738:741   */\n      dup2\n        /* \"#utility.yul\":735:750   */\n      lt\n        /* \"#utility.yul\":727:927   */\n      iszero\n      tag_248\n      jumpi\n        /* \"#utility.yul\":835:852   */\n      dup1\n      calldataload\n        /* \"#utility.yul\":865:883   */\n      dup4\n      mstore\n        /* \"#utility.yul\":912:916   */\n      0x20\n        /* \"#utility.yul\":903:917   */\n      swap3\n      dup4\n      add\n      swap3\n        /* \"#utility.yul\":760:774   */\n      add\n        /* \"#utility.yul\":727:927   */\n      jump(tag_246)\n    tag_248:\n      pop\n        /* \"#utility.yul\":946:952   */\n      swap2\n      swap6\n        /* \"#utility.yul\":146:958   */\n      swap5\n      pop\n      pop\n      pop\n      pop\n      pop\n      jump\t// out\n        /* \"#utility.yul\":963:1434   */\n    tag_25:\n        /* \"#utility.yul\":1143:1145   */\n      0x60\n        /* \"#utility.yul\":1128:1146   */\n      dup2\n      add\n        /* \"#utility.yul\":1132:1141   */\n      dup2\n        /* \"#utility.yul\":1223:1229   */\n      dup4\n        /* \"#utility.yul\":1101:1105   */\n      0x00\n        /* \"#utility.yul\":1257:1428   */\n    tag_250:\n        /* \"#utility.yul\":1271:1275   */\n      0x03\n        /* \"#utility.yul\":1268:1269   */\n      dup2\n        /* \"#utility.yul\":1265:1276   */\n      lt\n        /* \"#utility.yul\":1257:1428   */\n      iszero\n      tag_252\n      jumpi\n        /* \"#utility.yul\":1330:1343   */\n      dup2\n      mload\n        /* \"#utility.yul\":1318:1344   */\n      dup4\n      mstore\n        /* \"#utility.yul\":1373:1377   */\n      0x20\n        /* \"#utility.yul\":1364:1378   */\n      swap3\n      dup4\n      add\n      swap3\n        /* \"#utility.yul\":1401:1418   */\n      swap1\n      swap2\n      add\n      swap1\n        /* \"#utility.yul\":1291:1292   */\n      0x01\n        /* \"#utility.yul\":1284:1293   */\n      add\n        /* \"#utility.yul\":1257:1428   */\n      jump(tag_250)\n    tag_252:\n        /* \"#utility.yul\":1261:1264   */\n      pop\n      pop\n      pop\n        /* \"#utility.yul\":963:1434   */\n      swap3\n      swap2\n      pop\n      pop\n      jump\t// out\n        /* \"#utility.yul\":1439:1785   */\n    tag_28:\n        /* \"#utility.yul\":1507:1513   */\n      0x00\n        /* \"#utility.yul\":1515:1521   */\n      dup1\n        /* \"#utility.yul\":1568:1570   */\n      0x40\n        /* \"#utility.yul\":1556:1565   */\n      dup4\n        /* \"#utility.yul\":1547:1554   */\n      dup6\n        /* \"#utility.yul\":1543:1566   */\n      sub\n        /* \"#utility.yul\":1539:1571   */\n      slt\n        /* \"#utility.yul\":1536:1588   */\n      iszero\n      tag_254\n      jumpi\n        /* \"#utility.yul\":1584:1585   */\n      0x00\n        /* \"#utility.yul\":1581:1582   */\n      dup1\n        /* \"#utility.yul\":1574:1586   */\n      revert\n        /* \"#utility.yul\":1536:1588   */\n    tag_254:\n      pop\n      pop\n        /* \"#utility.yul\":1629:1652   */\n      dup1\n      calldataload\n      swap3\n        /* \"#utility.yul\":1749:1751   */\n      0x20\n        /* \"#utility.yul\":1734:1752   */\n      swap1\n      swap2\n      add\n        /* \"#utility.yul\":1721:1753   */\n      calldataload\n      swap2\n      pop\n        /* \"#utility.yul\":1439:1785   */\n      jump\t// out\n        /* \"#utility.yul\":1790:1917   */\n    tag_121:\n        /* \"#utility.yul\":1851:1861   */\n      0x4e487b71\n        /* \"#utility.yul\":1846:1849   */\n      0xe0\n        /* \"#utility.yul\":1842:1862   */\n      shl\n        /* \"#utility.yul\":1839:1840   */\n      0x00\n        /* \"#utility.yul\":1832:1863   */\n      mstore\n        /* \"#utility.yul\":1882:1886   */\n      0x21\n        /* \"#utility.yul\":1879:1880   */\n      0x04\n        /* \"#utility.yul\":1872:1887   */\n      mstore\n        /* \"#utility.yul\":1906:1910   */\n      0x24\n        /* \"#utility.yul\":1903:1904   */\n      0x00\n        /* \"#utility.yul\":1896:1911   */\n      revert\n        /* \"#utility.yul\":1922:2168   */\n    tag_33:\n        /* \"#utility.yul\":2069:2071   */\n      0x20\n        /* \"#utility.yul\":2054:2072   */\n      dup2\n      add\n        /* \"#utility.yul\":2102:2103   */\n      0x03\n        /* \"#utility.yul\":2091:2104   */\n      dup4\n      lt\n        /* \"#utility.yul\":2081:2128   */\n      tag_258\n      jumpi\n        /* \"#utility.yul\":2108:2126   */\n      tag_258\n      tag_121\n      jump\t// in\n    tag_258:\n        /* \"#utility.yul\":2137:2162   */\n      swap2\n      swap1\n      mstore\n        /* \"#utility.yul\":1922:2168   */\n      swap1\n      jump\t// out\n        /* \"#utility.yul\":2355:2703   */\n    tag_230:\n        /* \"#utility.yul\":2407:2415   */\n      0x00\n        /* \"#utility.yul\":2417:2423   */\n      dup1\n        /* \"#utility.yul\":2471:2474   */\n      dup4\n        /* \"#utility.yul\":2464:2468   */\n      0x1f\n        /* \"#utility.yul\":2456:2462   */\n      dup5\n        /* \"#utility.yul\":2452:2469   */\n      add\n        /* \"#utility.yul\":2448:2475   */\n      slt\n        /* \"#utility.yul\":2438:2493   */\n      tag_261\n      jumpi\n        /* \"#utility.yul\":2489:2490   */\n      0x00\n        /* \"#utility.yul\":2486:2487   */\n      dup1\n        /* \"#utility.yul\":2479:2491   */\n      revert\n        /* \"#utility.yul\":2438:2493   */\n    tag_261:\n      pop\n        /* \"#utility.yul\":2512:2532   */\n      dup2\n      calldataload\n        /* \"#utility.yul\":2555:2573   */\n      0xffffffffffffffff\n        /* \"#utility.yul\":2544:2574   */\n      dup2\n      gt\n        /* \"#utility.yul\":2541:2591   */\n      iszero\n      tag_262\n      jumpi\n        /* \"#utility.yul\":2587:2588   */\n      0x00\n        /* \"#utility.yul\":2584:2585   */\n      dup1\n        /* \"#utility.yul\":2577:2589   */\n      revert\n        /* \"#utility.yul\":2541:2591   */\n    tag_262:\n        /* \"#utility.yul\":2624:2628   */\n      0x20\n        /* \"#utility.yul\":2616:2622   */\n      dup4\n        /* \"#utility.yul\":2612:2629   */\n      add\n        /* \"#utility.yul\":2600:2629   */\n      swap2\n      pop\n        /* \"#utility.yul\":2676:2679   */\n      dup4\n        /* \"#utility.yul\":2669:2673   */\n      0x20\n        /* \"#utility.yul\":2660:2666   */\n      dup3\n        /* \"#utility.yul\":2652:2658   */\n      dup6\n        /* \"#utility.yul\":2648:2667   */\n      add\n        /* \"#utility.yul\":2644:2674   */\n      add\n        /* \"#utility.yul\":2641:2680   */\n      gt\n        /* \"#utility.yul\":2638:2697   */\n      iszero\n      tag_263\n      jumpi\n        /* \"#utility.yul\":2693:2694   */\n      0x00\n        /* \"#utility.yul\":2690:2691   */\n      dup1\n        /* \"#utility.yul\":2683:2695   */\n      revert\n        /* \"#utility.yul\":2638:2697   */\n    tag_263:\n        /* \"#utility.yul\":2355:2703   */\n      swap3\n      pop\n      swap3\n      swap1\n      pop\n      jump\t// out\n        /* \"#utility.yul\":2708:2855   */\n    tag_231:\n        /* \"#utility.yul\":2780:2800   */\n      dup1\n      calldataload\n        /* \"#utility.yul\":2829:2830   */\n      0x04\n        /* \"#utility.yul\":2819:2831   */\n      dup2\n      lt\n        /* \"#utility.yul\":2809:2849   */\n      tag_265\n      jumpi\n        /* \"#utility.yul\":2845:2846   */\n      0x00\n        /* \"#utility.yul\":2842:2843   */\n      dup1\n        /* \"#utility.yul\":2835:2847   */\n      revert\n        /* \"#utility.yul\":2809:2849   */\n    tag_265:\n        /* \"#utility.yul\":2708:2855   */\n      swap2\n      swap1\n      pop\n      jump\t// out\n        /* \"#utility.yul\":2860:3472   */\n    tag_42:\n        /* \"#utility.yul\":2958:2964   */\n      0x00\n        /* \"#utility.yul\":2966:2972   */\n      dup1\n        /* \"#utility.yul\":2974:2980   */\n      0x00\n        /* \"#utility.yul\":2982:2988   */\n      dup1\n        /* \"#utility.yul\":3035:3037   */\n      0x60\n        /* \"#utility.yul\":3023:3032   */\n      dup6\n        /* \"#utility.yul\":3014:3021   */\n      dup8\n        /* \"#utility.yul\":3010:3033   */\n      sub\n        /* \"#utility.yul\":3006:3038   */\n      slt\n        /* \"#utility.yul\":3003:3055   */\n      iszero\n      tag_267\n      jumpi\n        /* \"#utility.yul\":3051:3052   */\n      0x00\n        /* \"#utility.yul\":3048:3049   */\n      dup1\n        /* \"#utility.yul\":3041:3053   */\n      revert\n        /* \"#utility.yul\":3003:3055   */\n    tag_267:\n        /* \"#utility.yul\":3091:3100   */\n      dup5\n        /* \"#utility.yul\":3078:3101   */\n      calldataload\n        /* \"#utility.yul\":3124:3142   */\n      0xffffffffffffffff\n        /* \"#utility.yul\":3116:3122   */\n      dup2\n        /* \"#utility.yul\":3113:3143   */\n      gt\n        /* \"#utility.yul\":3110:3160   */\n      iszero\n      tag_268\n      jumpi\n        /* \"#utility.yul\":3156:3157   */\n      0x00\n        /* \"#utility.yul\":3153:3154   */\n      dup1\n        /* \"#utility.yul\":3146:3158   */\n      revert\n        /* \"#utility.yul\":3110:3160   */\n    tag_268:\n        /* \"#utility.yul\":3195:3254   */\n      tag_269\n        /* \"#utility.yul\":3246:3253   */\n      dup8\n        /* \"#utility.yul\":3237:3243   */\n      dup3\n        /* \"#utility.yul\":3226:3235   */\n      dup9\n        /* \"#utility.yul\":3222:3244   */\n      add\n        /* \"#utility.yul\":3195:3254   */\n      tag_230\n      jump\t// in\n    tag_269:\n        /* \"#utility.yul\":3273:3281   */\n      swap1\n      swap6\n      pop\n        /* \"#utility.yul\":3169:3254   */\n      swap4\n      pop\n      pop\n        /* \"#utility.yul\":3377:3379   */\n      0x20\n        /* \"#utility.yul\":3362:3380   */\n      dup6\n      add\n        /* \"#utility.yul\":3349:3381   */\n      calldataload\n      swap2\n      pop\n        /* \"#utility.yul\":3424:3466   */\n      tag_270\n        /* \"#utility.yul\":3462:3464   */\n      0x40\n        /* \"#utility.yul\":3447:3465   */\n      dup7\n      add\n        /* \"#utility.yul\":3424:3466   */\n      tag_231\n      jump\t// in\n    tag_270:\n        /* \"#utility.yul\":3414:3466   */\n      swap1\n      pop\n        /* \"#utility.yul\":2860:3472   */\n      swap3\n      swap6\n      swap2\n      swap5\n      pop\n      swap3\n      pop\n      jump\t// out\n        /* \"#utility.yul\":3708:4626   */\n    tag_50:\n        /* \"#utility.yul\":3827:3833   */\n      0x00\n        /* \"#utility.yul\":3835:3841   */\n      dup1\n        /* \"#utility.yul\":3843:3849   */\n      0x00\n        /* \"#utility.yul\":3851:3857   */\n      dup1\n        /* \"#utility.yul\":3859:3865   */\n      0x00\n        /* \"#utility.yul\":3867:3873   */\n      dup1\n        /* \"#utility.yul\":3920:3923   */\n      0x80\n        /* \"#utility.yul\":3908:3917   */\n      dup8\n        /* \"#utility.yul\":3899:3906   */\n      dup10\n        /* \"#utility.yul\":3895:3918   */\n      sub\n        /* \"#utility.yul\":3891:3924   */\n      slt\n        /* \"#utility.yul\":3888:3941   */\n      iszero\n      tag_273\n      jumpi\n        /* \"#utility.yul\":3937:3938   */\n      0x00\n        /* \"#utility.yul\":3934:3935   */\n      dup1\n        /* \"#utility.yul\":3927:3939   */\n      revert\n        /* \"#utility.yul\":3888:3941   */\n    tag_273:\n        /* \"#utility.yul\":3977:3986   */\n      dup7\n        /* \"#utility.yul\":3964:3987   */\n      calldataload\n        /* \"#utility.yul\":4010:4028   */\n      0xffffffffffffffff\n        /* \"#utility.yul\":4002:4008   */\n      dup2\n        /* \"#utility.yul\":3999:4029   */\n      gt\n        /* \"#utility.yul\":3996:4046   */\n      iszero\n      tag_274\n      jumpi\n        /* \"#utility.yul\":4042:4043   */\n      0x00\n        /* \"#utility.yul\":4039:4040   */\n      dup1\n        /* \"#utility.yul\":4032:4044   */\n      revert\n        /* \"#utility.yul\":3996:4046   */\n    tag_274:\n        /* \"#utility.yul\":4081:4140   */\n      tag_275\n        /* \"#utility.yul\":4132:4139   */\n      dup10\n        /* \"#utility.yul\":4123:4129   */\n      dup3\n        /* \"#utility.yul\":4112:4121   */\n      dup11\n        /* \"#utility.yul\":4108:4130   */\n      add\n        /* \"#utility.yul\":4081:4140   */\n      tag_230\n      jump\t// in\n    tag_275:\n        /* \"#utility.yul\":4159:4167   */\n      swap1\n      swap8\n      pop\n        /* \"#utility.yul\":4055:4140   */\n      swap6\n      pop\n      pop\n        /* \"#utility.yul\":4247:4249   */\n      0x20\n        /* \"#utility.yul\":4232:4250   */\n      dup8\n      add\n        /* \"#utility.yul\":4219:4251   */\n      calldataload\n        /* \"#utility.yul\":4276:4294   */\n      0xffffffffffffffff\n        /* \"#utility.yul\":4263:4295   */\n      dup2\n      gt\n        /* \"#utility.yul\":4260:4312   */\n      iszero\n      tag_276\n      jumpi\n        /* \"#utility.yul\":4308:4309   */\n      0x00\n        /* \"#utility.yul\":4305:4306   */\n      dup1\n        /* \"#utility.yul\":4298:4310   */\n      revert\n        /* \"#utility.yul\":4260:4312   */\n    tag_276:\n        /* \"#utility.yul\":4347:4408   */\n      tag_277\n        /* \"#utility.yul\":4400:4407   */\n      dup10\n        /* \"#utility.yul\":4389:4397   */\n      dup3\n        /* \"#utility.yul\":4378:4387   */\n      dup11\n        /* \"#utility.yul\":4374:4398   */\n      add\n        /* \"#utility.yul\":4347:4408   */\n      tag_230\n      jump\t// in\n    tag_277:\n        /* \"#utility.yul\":4427:4435   */\n      swap1\n      swap6\n      pop\n        /* \"#utility.yul\":4321:4408   */\n      swap4\n      pop\n      pop\n        /* \"#utility.yul\":4531:4533   */\n      0x40\n        /* \"#utility.yul\":4516:4534   */\n      dup8\n      add\n        /* \"#utility.yul\":4503:4535   */\n      calldataload\n      swap2\n      pop\n        /* \"#utility.yul\":4578:4620   */\n      tag_278\n        /* \"#utility.yul\":4616:4618   */\n      0x60\n        /* \"#utility.yul\":4601:4619   */\n      dup9\n      add\n        /* \"#utility.yul\":4578:4620   */\n      tag_231\n      jump\t// in\n    tag_278:\n        /* \"#utility.yul\":4568:4620   */\n      swap1\n      pop\n        /* \"#utility.yul\":3708:4626   */\n      swap3\n      swap6\n      pop\n      swap3\n      swap6\n      pop\n      swap3\n      swap6\n      jump\t// out\n        /* \"#utility.yul\":4631:4920   */\n    tag_232:\n        /* \"#utility.yul\":4673:4676   */\n      0x00\n        /* \"#utility.yul\":4711:4716   */\n      dup2\n        /* \"#utility.yul\":4705:4717   */\n      mload\n        /* \"#utility.yul\":4738:4744   */\n      dup1\n        /* \"#utility.yul\":4733:4736   */\n      dup5\n        /* \"#utility.yul\":4726:4745   */\n      mstore\n        /* \"#utility.yul\":4794:4800   */\n      dup1\n        /* \"#utility.yul\":4787:4791   */\n      0x20\n        /* \"#utility.yul\":4780:4785   */\n      dup5\n        /* \"#utility.yul\":4776:4792   */\n      add\n        /* \"#utility.yul\":4769:4773   */\n      0x20\n        /* \"#utility.yul\":4764:4767   */\n      dup7\n        /* \"#utility.yul\":4760:4774   */\n      add\n        /* \"#utility.yul\":4754:4801   */\n      mcopy\n        /* \"#utility.yul\":4846:4847   */\n      0x00\n        /* \"#utility.yul\":4839:4843   */\n      0x20\n        /* \"#utility.yul\":4830:4836   */\n      dup3\n        /* \"#utility.yul\":4825:4828   */\n      dup7\n        /* \"#utility.yul\":4821:4837   */\n      add\n        /* \"#utility.yul\":4817:4844   */\n      add\n        /* \"#utility.yul\":4810:4848   */\n      mstore\n        /* \"#utility.yul\":4909:4913   */\n      0x20\n        /* \"#utility.yul\":4902:4904   */\n      0x1f\n        /* \"#utility.yul\":4898:4905   */\n      not\n        /* \"#utility.yul\":4893:4895   */\n      0x1f\n        /* \"#utility.yul\":4885:4891   */\n      dup4\n        /* \"#utility.yul\":4881:4896   */\n      add\n        /* \"#utility.yul\":4877:4906   */\n      and\n        /* \"#utility.yul\":4872:4875   */\n      dup6\n        /* \"#utility.yul\":4868:4907   */\n      add\n        /* \"#utility.yul\":4864:4914   */\n      add\n        /* \"#utility.yul\":4857:4914   */\n      swap2\n      pop\n      pop\n        /* \"#utility.yul\":4631:4920   */\n      swap3\n      swap2\n      pop\n      pop\n      jump\t// out\n        /* \"#utility.yul\":4925:5062   */\n    tag_233:\n        /* \"#utility.yul\":5003:5004   */\n      0x04\n        /* \"#utility.yul\":4996:5001   */\n      dup2\n        /* \"#utility.yul\":4993:5005   */\n      lt\n        /* \"#utility.yul\":4983:5029   */\n      tag_282\n      jumpi\n        /* \"#utility.yul\":5009:5027   */\n      tag_282\n      tag_121\n      jump\t// in\n    tag_282:\n        /* \"#utility.yul\":5038:5056   */\n      swap1\n      mstore\n        /* \"#utility.yul\":4925:5062   */\n      jump\t// out\n        /* \"#utility.yul\":5067:6431   */\n    tag_63:\n        /* \"#utility.yul\":5251:5255   */\n      0x00\n        /* \"#utility.yul\":5299:5301   */\n      0x20\n        /* \"#utility.yul\":5288:5297   */\n      dup3\n        /* \"#utility.yul\":5284:5302   */\n      add\n        /* \"#utility.yul\":5329:5331   */\n      0x20\n        /* \"#utility.yul\":5318:5327   */\n      dup4\n        /* \"#utility.yul\":5311:5332   */\n      mstore\n        /* \"#utility.yul\":5352:5358   */\n      dup1\n        /* \"#utility.yul\":5387:5393   */\n      dup5\n        /* \"#utility.yul\":5381:5394   */\n      mload\n        /* \"#utility.yul\":5418:5424   */\n      dup1\n        /* \"#utility.yul\":5410:5416   */\n      dup4\n        /* \"#utility.yul\":5403:5425   */\n      mstore\n        /* \"#utility.yul\":5456:5458   */\n      0x40\n        /* \"#utility.yul\":5445:5454   */\n      dup6\n        /* \"#utility.yul\":5441:5459   */\n      add\n        /* \"#utility.yul\":5434:5459   */\n      swap2\n      pop\n        /* \"#utility.yul\":5518:5520   */\n      0x40\n        /* \"#utility.yul\":5508:5514   */\n      dup2\n        /* \"#utility.yul\":5505:5506   */\n      0x05\n        /* \"#utility.yul\":5501:5515   */\n      shl\n        /* \"#utility.yul\":5490:5499   */\n      dup7\n        /* \"#utility.yul\":5486:5516   */\n      add\n        /* \"#utility.yul\":5482:5521   */\n      add\n        /* \"#utility.yul\":5468:5521   */\n      swap3\n      pop\n        /* \"#utility.yul\":5556:5558   */\n      0x20\n        /* \"#utility.yul\":5548:5554   */\n      dup7\n        /* \"#utility.yul\":5544:5559   */\n      add\n        /* \"#utility.yul\":5577:5578   */\n      0x00\n        /* \"#utility.yul\":5587:6402   */\n    tag_284:\n        /* \"#utility.yul\":5601:5607   */\n      dup3\n        /* \"#utility.yul\":5598:5599   */\n      dup2\n        /* \"#utility.yul\":5595:5608   */\n      lt\n        /* \"#utility.yul\":5587:6402   */\n      iszero\n      tag_286\n      jumpi\n        /* \"#utility.yul\":5694:5696   */\n      0x3f\n        /* \"#utility.yul\":5690:5697   */\n      not\n        /* \"#utility.yul\":5678:5687   */\n      dup8\n        /* \"#utility.yul\":5670:5676   */\n      dup7\n        /* \"#utility.yul\":5666:5688   */\n      sub\n        /* \"#utility.yul\":5662:5698   */\n      add\n        /* \"#utility.yul\":5657:5660   */\n      dup5\n        /* \"#utility.yul\":5650:5699   */\n      mstore\n        /* \"#utility.yul\":5728:5734   */\n      dup2\n        /* \"#utility.yul\":5722:5735   */\n      mload\n        /* \"#utility.yul\":5774:5776   */\n      dup1\n        /* \"#utility.yul\":5768:5777   */\n      mload\n        /* \"#utility.yul\":5805:5809   */\n      0xc0\n        /* \"#utility.yul\":5797:5803   */\n      dup8\n        /* \"#utility.yul\":5790:5810   */\n      mstore\n        /* \"#utility.yul\":5837:5887   */\n      tag_287\n        /* \"#utility.yul\":5881:5885   */\n      0xc0\n        /* \"#utility.yul\":5873:5879   */\n      dup9\n        /* \"#utility.yul\":5869:5886   */\n      add\n        /* \"#utility.yul\":5855:5867   */\n      dup3\n        /* \"#utility.yul\":5837:5887   */\n      tag_232\n      jump\t// in\n    tag_287:\n        /* \"#utility.yul\":5823:5887   */\n      swap1\n      pop\n        /* \"#utility.yul\":5938:5940   */\n      0x20\n        /* \"#utility.yul\":5934:5936   */\n      dup3\n        /* \"#utility.yul\":5930:5941   */\n      add\n        /* \"#utility.yul\":5924:5942   */\n      mload\n        /* \"#utility.yul\":5919:5921   */\n      0x20\n        /* \"#utility.yul\":5911:5917   */\n      dup9\n        /* \"#utility.yul\":5907:5922   */\n      add\n        /* \"#utility.yul\":5900:5943   */\n      mstore\n        /* \"#utility.yul\":5994:5996   */\n      0x40\n        /* \"#utility.yul\":5990:5992   */\n      dup3\n        /* \"#utility.yul\":5986:5997   */\n      add\n        /* \"#utility.yul\":5980:5998   */\n      mload\n        /* \"#utility.yul\":5975:5977   */\n      0x40\n        /* \"#utility.yul\":5967:5973   */\n      dup9\n        /* \"#utility.yul\":5963:5978   */\n      add\n        /* \"#utility.yul\":5956:5999   */\n      mstore\n        /* \"#utility.yul\":6048:6052   */\n      0x60\n        /* \"#utility.yul\":6044:6046   */\n      dup3\n        /* \"#utility.yul\":6040:6053   */\n      add\n        /* \"#utility.yul\":6034:6054   */\n      mload\n        /* \"#utility.yul\":6067:6124   */\n      tag_288\n        /* \"#utility.yul\":6118:6122   */\n      0x60\n        /* \"#utility.yul\":6110:6116   */\n      dup10\n        /* \"#utility.yul\":6106:6123   */\n      add\n        /* \"#utility.yul\":6090:6104   */\n      dup3\n        /* \"#utility.yul\":6067:6124   */\n      tag_233\n      jump\t// in\n    tag_288:\n      pop\n        /* \"#utility.yul\":6177:6181   */\n      0x80\n        /* \"#utility.yul\":6169:6182   */\n      dup3\n      dup2\n      add\n        /* \"#utility.yul\":6163:6183   */\n      mload\n        /* \"#utility.yul\":6144:6161   */\n      swap1\n      dup9\n      add\n        /* \"#utility.yul\":6137:6184   */\n      mstore\n        /* \"#utility.yul\":6241:6245   */\n      0xa0\n        /* \"#utility.yul\":6233:6246   */\n      swap2\n      dup3\n      add\n        /* \"#utility.yul\":6227:6247   */\n      mload\n      sub(shl(0xa0, 0x01), 0x01)\n        /* \"#utility.yul\":6223:6292   */\n      and\n        /* \"#utility.yul\":6204:6221   */\n      swap2\n      swap1\n      swap7\n      add\n        /* \"#utility.yul\":6197:6293   */\n      mstore\n        /* \"#utility.yul\":6357:6359   */\n      0x20\n        /* \"#utility.yul\":6380:6392   */\n      swap4\n      dup5\n      add\n      swap4\n        /* \"#utility.yul\":6345:6360   */\n      swap2\n      swap1\n      swap2\n      add\n      swap1\n        /* \"#utility.yul\":5623:5624   */\n      0x01\n        /* \"#utility.yul\":5616:5625   */\n      add\n        /* \"#utility.yul\":5587:6402   */\n      jump(tag_284)\n    tag_286:\n      pop\n        /* \"#utility.yul\":6419:6425   */\n      swap3\n      swap7\n        /* \"#utility.yul\":5067:6431   */\n      swap6\n      pop\n      pop\n      pop\n      pop\n      pop\n      pop\n      jump\t// out\n        /* \"#utility.yul\":6436:7990   */\n    tag_70:\n        /* \"#utility.yul\":6628:6632   */\n      0x00\n        /* \"#utility.yul\":6676:6678   */\n      0x20\n        /* \"#utility.yul\":6665:6674   */\n      dup3\n        /* \"#utility.yul\":6661:6679   */\n      add\n        /* \"#utility.yul\":6706:6708   */\n      0x20\n        /* \"#utility.yul\":6695:6704   */\n      dup4\n        /* \"#utility.yul\":6688:6709   */\n      mstore\n        /* \"#utility.yul\":6729:6735   */\n      dup1\n        /* \"#utility.yul\":6764:6770   */\n      dup5\n        /* \"#utility.yul\":6758:6771   */\n      mload\n        /* \"#utility.yul\":6795:6801   */\n      dup1\n        /* \"#utility.yul\":6787:6793   */\n      dup4\n        /* \"#utility.yul\":6780:6802   */\n      mstore\n        /* \"#utility.yul\":6833:6835   */\n      0x40\n        /* \"#utility.yul\":6822:6831   */\n      dup6\n        /* \"#utility.yul\":6818:6836   */\n      add\n        /* \"#utility.yul\":6811:6836   */\n      swap2\n      pop\n        /* \"#utility.yul\":6895:6897   */\n      0x40\n        /* \"#utility.yul\":6885:6891   */\n      dup2\n        /* \"#utility.yul\":6882:6883   */\n      0x05\n        /* \"#utility.yul\":6878:6892   */\n      shl\n        /* \"#utility.yul\":6867:6876   */\n      dup7\n        /* \"#utility.yul\":6863:6893   */\n      add\n        /* \"#utility.yul\":6859:6898   */\n      add\n        /* \"#utility.yul\":6845:6898   */\n      swap3\n      pop\n        /* \"#utility.yul\":6933:6935   */\n      0x20\n        /* \"#utility.yul\":6925:6931   */\n      dup7\n        /* \"#utility.yul\":6921:6936   */\n      add\n        /* \"#utility.yul\":6954:6955   */\n      0x00\n        /* \"#utility.yul\":6964:7961   */\n    tag_290:\n        /* \"#utility.yul\":6978:6984   */\n      dup3\n        /* \"#utility.yul\":6975:6976   */\n      dup2\n        /* \"#utility.yul\":6972:6985   */\n      lt\n        /* \"#utility.yul\":6964:7961   */\n      iszero\n      tag_286\n      jumpi\n        /* \"#utility.yul\":7071:7073   */\n      0x3f\n        /* \"#utility.yul\":7067:7074   */\n      not\n        /* \"#utility.yul\":7055:7064   */\n      dup8\n        /* \"#utility.yul\":7047:7053   */\n      dup7\n        /* \"#utility.yul\":7043:7065   */\n      sub\n        /* \"#utility.yul\":7039:7075   */\n      add\n        /* \"#utility.yul\":7034:7037   */\n      dup5\n        /* \"#utility.yul\":7027:7076   */\n      mstore\n        /* \"#utility.yul\":7105:7111   */\n      dup2\n        /* \"#utility.yul\":7099:7112   */\n      mload\n        /* \"#utility.yul\":7151:7153   */\n      dup1\n        /* \"#utility.yul\":7145:7154   */\n      mload\n        /* \"#utility.yul\":7182:7186   */\n      0xe0\n        /* \"#utility.yul\":7174:7180   */\n      dup8\n        /* \"#utility.yul\":7167:7187   */\n      mstore\n        /* \"#utility.yul\":7214:7264   */\n      tag_293\n        /* \"#utility.yul\":7258:7262   */\n      0xe0\n        /* \"#utility.yul\":7250:7256   */\n      dup9\n        /* \"#utility.yul\":7246:7263   */\n      add\n        /* \"#utility.yul\":7232:7244   */\n      dup3\n        /* \"#utility.yul\":7214:7264   */\n      tag_232\n      jump\t// in\n    tag_293:\n        /* \"#utility.yul\":7200:7264   */\n      swap1\n      pop\n        /* \"#utility.yul\":7313:7315   */\n      0x20\n        /* \"#utility.yul\":7309:7311   */\n      dup3\n        /* \"#utility.yul\":7305:7316   */\n      add\n        /* \"#utility.yul\":7299:7317   */\n      mload\n        /* \"#utility.yul\":7366:7372   */\n      dup8\n        /* \"#utility.yul\":7358:7364   */\n      dup3\n        /* \"#utility.yul\":7354:7373   */\n      sub\n        /* \"#utility.yul\":7349:7351   */\n      0x20\n        /* \"#utility.yul\":7341:7347   */\n      dup10\n        /* \"#utility.yul\":7337:7352   */\n      add\n        /* \"#utility.yul\":7330:7374   */\n      mstore\n        /* \"#utility.yul\":7401:7442   */\n      tag_294\n        /* \"#utility.yul\":7435:7441   */\n      dup3\n        /* \"#utility.yul\":7419:7433   */\n      dup3\n        /* \"#utility.yul\":7401:7442   */\n      tag_232\n      jump\t// in\n    tag_294:\n        /* \"#utility.yul\":7387:7442   */\n      swap2\n      pop\n      pop\n        /* \"#utility.yul\":7493:7495   */\n      0x40\n        /* \"#utility.yul\":7489:7491   */\n      dup3\n        /* \"#utility.yul\":7485:7496   */\n      add\n        /* \"#utility.yul\":7479:7497   */\n      mload\n        /* \"#utility.yul\":7474:7476   */\n      0x40\n        /* \"#utility.yul\":7466:7472   */\n      dup9\n        /* \"#utility.yul\":7462:7477   */\n      add\n        /* \"#utility.yul\":7455:7498   */\n      mstore\n        /* \"#utility.yul\":7547:7551   */\n      0x60\n        /* \"#utility.yul\":7543:7545   */\n      dup3\n        /* \"#utility.yul\":7539:7552   */\n      add\n        /* \"#utility.yul\":7533:7553   */\n      mload\n        /* \"#utility.yul\":7566:7623   */\n      tag_295\n        /* \"#utility.yul\":7617:7621   */\n      0x60\n        /* \"#utility.yul\":7609:7615   */\n      dup10\n        /* \"#utility.yul\":7605:7622   */\n      add\n        /* \"#utility.yul\":7589:7603   */\n      dup3\n        /* \"#utility.yul\":7566:7623   */\n      tag_233\n      jump\t// in\n    tag_295:\n      pop\n        /* \"#utility.yul\":7676:7680   */\n      0x80\n        /* \"#utility.yul\":7668:7681   */\n      dup3\n      dup2\n      add\n        /* \"#utility.yul\":7662:7682   */\n      mload\n        /* \"#utility.yul\":7643:7660   */\n      swap1\n      dup9\n      add\n        /* \"#utility.yul\":7636:7683   */\n      mstore\n        /* \"#utility.yul\":7740:7744   */\n      0xa0\n        /* \"#utility.yul\":7732:7745   */\n      dup1\n      dup4\n      add\n        /* \"#utility.yul\":7726:7746   */\n      mload\n      sub(shl(0xa0, 0x01), 0x01)\n        /* \"#utility.yul\":7722:7791   */\n      and\n        /* \"#utility.yul\":7703:7720   */\n      swap1\n      dup9\n      add\n        /* \"#utility.yul\":7696:7792   */\n      mstore\n        /* \"#utility.yul\":7845:7849   */\n      0xc0\n        /* \"#utility.yul\":7837:7850   */\n      swap2\n      dup3\n      add\n        /* \"#utility.yul\":7831:7851   */\n      mload\n        /* \"#utility.yul\":7812:7829   */\n      swap2\n      swap1\n      swap7\n      add\n        /* \"#utility.yul\":7805:7852   */\n      mstore\n        /* \"#utility.yul\":7916:7918   */\n      0x20\n        /* \"#utility.yul\":7939:7951   */\n      swap4\n      dup5\n      add\n      swap4\n        /* \"#utility.yul\":7904:7919   */\n      swap2\n      swap1\n      swap2\n      add\n      swap1\n        /* \"#utility.yul\":7000:7001   */\n      0x01\n        /* \"#utility.yul\":6993:7002   */\n      add\n        /* \"#utility.yul\":6964:7961   */\n      jump(tag_290)\n        /* \"#utility.yul\":7995:8122   */\n    tag_76:\n        /* \"#utility.yul\":8056:8066   */\n      0x4e487b71\n        /* \"#utility.yul\":8051:8054   */\n      0xe0\n        /* \"#utility.yul\":8047:8067   */\n      shl\n        /* \"#utility.yul\":8044:8045   */\n      0x00\n        /* \"#utility.yul\":8037:8068   */\n      mstore\n        /* \"#utility.yul\":8087:8091   */\n      0x32\n        /* \"#utility.yul\":8084:8085   */\n      0x04\n        /* \"#utility.yul\":8077:8092   */\n      mstore\n        /* \"#utility.yul\":8111:8115   */\n      0x24\n        /* \"#utility.yul\":8108:8109   */\n      0x00\n        /* \"#utility.yul\":8101:8116   */\n      revert\n        /* \"#utility.yul\":9183:9310   */\n    tag_234:\n        /* \"#utility.yul\":9244:9254   */\n      0x4e487b71\n        /* \"#utility.yul\":9239:9242   */\n      0xe0\n        /* \"#utility.yul\":9235:9255   */\n      shl\n        /* \"#utility.yul\":9232:9233   */\n      0x00\n        /* \"#utility.yul\":9225:9256   */\n      mstore\n        /* \"#utility.yul\":9275:9279   */\n      0x11\n        /* \"#utility.yul\":9272:9273   */\n      0x04\n        /* \"#utility.yul\":9265:9280   */\n      mstore\n        /* \"#utility.yul\":9299:9303   */\n      0x24\n        /* \"#utility.yul\":9296:9297   */\n      0x00\n        /* \"#utility.yul\":9289:9304   */\n      revert\n        /* \"#utility.yul\":9315:9450   */\n    tag_89:\n        /* \"#utility.yul\":9354:9357   */\n      0x00\n        /* \"#utility.yul\":9375:9392   */\n      0x01\n      dup3\n      add\n        /* \"#utility.yul\":9372:9415   */\n      tag_303\n      jumpi\n        /* \"#utility.yul\":9395:9413   */\n      tag_303\n      tag_234\n      jump\t// in\n    tag_303:\n      pop\n        /* \"#utility.yul\":9442:9443   */\n      0x01\n        /* \"#utility.yul\":9431:9444   */\n      add\n      swap1\n        /* \"#utility.yul\":9315:9450   */\n      jump\t// out\n        /* \"#utility.yul\":9455:9870   */\n    tag_99:\n        /* \"#utility.yul\":9657:9659   */\n      0x20\n        /* \"#utility.yul\":9639:9660   */\n      dup1\n      dup3\n      mstore\n        /* \"#utility.yul\":9696:9698   */\n      0x33\n        /* \"#utility.yul\":9676:9694   */\n      swap1\n      dup3\n      add\n        /* \"#utility.yul\":9669:9699   */\n      mstore\n        /* \"#utility.yul\":9735:9769   */\n      0x596f752048617665206e6f7420746865207065726d697373696f6e20746f2065\n        /* \"#utility.yul\":9730:9732   */\n      0x40\n        /* \"#utility.yul\":9715:9733   */\n      dup3\n      add\n        /* \"#utility.yul\":9708:9770   */\n      mstore\n      shl(0x69, 0x3c32b1baba103a3434b990333ab731ba34b7b7)\n        /* \"#utility.yul\":9801:9803   */\n      0x60\n        /* \"#utility.yul\":9786:9804   */\n      dup3\n      add\n        /* \"#utility.yul\":9779:9828   */\n      mstore\n        /* \"#utility.yul\":9860:9863   */\n      0x80\n        /* \"#utility.yul\":9845:9864   */\n      add\n      swap1\n        /* \"#utility.yul\":9455:9870   */\n      jump\t// out\n        /* \"#utility.yul\":10575:10981   */\n    tag_118:\n        /* \"#utility.yul\":10777:10779   */\n      0x20\n        /* \"#utility.yul\":10759:10780   */\n      dup1\n      dup3\n      mstore\n        /* \"#utility.yul\":10816:10818   */\n      0x2a\n        /* \"#utility.yul\":10796:10814   */\n      swap1\n      dup3\n      add\n        /* \"#utility.yul\":10789:10819   */\n      mstore\n        /* \"#utility.yul\":10855:10889   */\n      0x456c656374696f6e20636f6d6d6973696f6e206e6f7420616c6c6f7765642074\n        /* \"#utility.yul\":10850:10852   */\n      0x40\n        /* \"#utility.yul\":10835:10853   */\n      dup3\n      add\n        /* \"#utility.yul\":10828:10890   */\n      mstore\n      shl(0xb1, 0x37903932b3b4b9ba32b9)\n        /* \"#utility.yul\":10921:10923   */\n      0x60\n        /* \"#utility.yul\":10906:10924   */\n      dup3\n      add\n        /* \"#utility.yul\":10899:10939   */\n      mstore\n        /* \"#utility.yul\":10971:10974   */\n      0x80\n        /* \"#utility.yul\":10956:10975   */\n      add\n      swap1\n        /* \"#utility.yul\":10575:10981   */\n      jump\t// out\n        /* \"#utility.yul\":10986:11366   */\n    tag_177:\n        /* \"#utility.yul\":11065:11066   */\n      0x01\n        /* \"#utility.yul\":11061:11073   */\n      dup2\n      dup2\n      shr\n      swap1\n        /* \"#utility.yul\":11108:11120   */\n      dup3\n      and\n      dup1\n        /* \"#utility.yul\":11129:11190   */\n      tag_309\n      jumpi\n        /* \"#utility.yul\":11183:11187   */\n      0x7f\n        /* \"#utility.yul\":11175:11181   */\n      dup3\n        /* \"#utility.yul\":11171:11188   */\n      and\n        /* \"#utility.yul\":11161:11188   */\n      swap2\n      pop\n        /* \"#utility.yul\":11129:11190   */\n    tag_309:\n        /* \"#utility.yul\":11236:11238   */\n      0x20\n        /* \"#utility.yul\":11228:11234   */\n      dup3\n        /* \"#utility.yul\":11225:11239   */\n      lt\n        /* \"#utility.yul\":11205:11223   */\n      dup2\n        /* \"#utility.yul\":11202:11240   */\n      sub\n        /* \"#utility.yul\":11199:11360   */\n      tag_173\n      jumpi\n        /* \"#utility.yul\":11282:11292   */\n      0x4e487b71\n        /* \"#utility.yul\":11277:11280   */\n      0xe0\n        /* \"#utility.yul\":11273:11293   */\n      shl\n        /* \"#utility.yul\":11270:11271   */\n      0x00\n        /* \"#utility.yul\":11263:11294   */\n      mstore\n        /* \"#utility.yul\":11317:11321   */\n      0x22\n        /* \"#utility.yul\":11314:11315   */\n      0x04\n        /* \"#utility.yul\":11307:11322   */\n      mstore\n        /* \"#utility.yul\":11345:11349   */\n      0x24\n        /* \"#utility.yul\":11342:11343   */\n      0x00\n        /* \"#utility.yul\":11335:11350   */\n      revert\n        /* \"#utility.yul\":11497:12015   */\n    tag_236:\n        /* \"#utility.yul\":11599:11601   */\n      0x1f\n        /* \"#utility.yul\":11594:11597   */\n      dup3\n        /* \"#utility.yul\":11591:11602   */\n      gt\n        /* \"#utility.yul\":11588:12009   */\n      iszero\n      tag_313\n      jumpi\n        /* \"#utility.yul\":11635:11640   */\n      dup1\n        /* \"#utility.yul\":11632:11633   */\n      0x00\n        /* \"#utility.yul\":11625:11641   */\n      mstore\n        /* \"#utility.yul\":11679:11683   */\n      0x20\n        /* \"#utility.yul\":11676:11677   */\n      0x00\n        /* \"#utility.yul\":11666:11684   */\n      keccak256\n        /* \"#utility.yul\":11749:11751   */\n      0x1f\n        /* \"#utility.yul\":11737:11747   */\n      dup5\n        /* \"#utility.yul\":11733:11752   */\n      add\n        /* \"#utility.yul\":11730:11731   */\n      0x05\n        /* \"#utility.yul\":11726:11753   */\n      shr\n        /* \"#utility.yul\":11720:11724   */\n      dup2\n        /* \"#utility.yul\":11716:11754   */\n      add\n        /* \"#utility.yul\":11785:11789   */\n      0x20\n        /* \"#utility.yul\":11773:11783   */\n      dup6\n        /* \"#utility.yul\":11770:11790   */\n      lt\n        /* \"#utility.yul\":11767:11814   */\n      iszero\n      tag_314\n      jumpi\n      pop\n        /* \"#utility.yul\":11808:11812   */\n      dup1\n        /* \"#utility.yul\":11767:11814   */\n    tag_314:\n        /* \"#utility.yul\":11863:11865   */\n      0x1f\n        /* \"#utility.yul\":11858:11861   */\n      dup5\n        /* \"#utility.yul\":11854:11866   */\n      add\n        /* \"#utility.yul\":11851:11852   */\n      0x05\n        /* \"#utility.yul\":11847:11867   */\n      shr\n        /* \"#utility.yul\":11841:11845   */\n      dup3\n        /* \"#utility.yul\":11837:11868   */\n      add\n        /* \"#utility.yul\":11827:11868   */\n      swap2\n      pop\n        /* \"#utility.yul\":11918:11999   */\n    tag_315:\n        /* \"#utility.yul\":11936:11938   */\n      dup2\n        /* \"#utility.yul\":11929:11934   */\n      dup2\n        /* \"#utility.yul\":11926:11939   */\n      lt\n        /* \"#utility.yul\":11918:11999   */\n      iszero\n      tag_317\n      jumpi\n        /* \"#utility.yul\":11995:11996   */\n      0x00\n        /* \"#utility.yul\":11981:11997   */\n      dup2\n      sstore\n        /* \"#utility.yul\":11962:11963   */\n      0x01\n        /* \"#utility.yul\":11951:11964   */\n      add\n        /* \"#utility.yul\":11918:11999   */\n      jump(tag_315)\n    tag_317:\n        /* \"#utility.yul\":11922:11925   */\n      pop\n      pop\n        /* \"#utility.yul\":11588:12009   */\n    tag_313:\n        /* \"#utility.yul\":11497:12015   */\n      pop\n      pop\n      pop\n      jump\t// out\n        /* \"#utility.yul\":12191:13490   */\n    tag_123:\n        /* \"#utility.yul\":12317:12320   */\n      dup2\n        /* \"#utility.yul\":12311:12321   */\n      mload\n        /* \"#utility.yul\":12344:12362   */\n      0xffffffffffffffff\n        /* \"#utility.yul\":12336:12342   */\n      dup2\n        /* \"#utility.yul\":12333:12363   */\n      gt\n        /* \"#utility.yul\":12330:12386   */\n      iszero\n      tag_321\n      jumpi\n        /* \"#utility.yul\":12366:12384   */\n      tag_321\n      tag_167\n      jump\t// in\n    tag_321:\n        /* \"#utility.yul\":12395:12492   */\n      tag_322\n        /* \"#utility.yul\":12485:12491   */\n      dup2\n        /* \"#utility.yul\":12445:12483   */\n      tag_323\n        /* \"#utility.yul\":12477:12481   */\n      dup5\n        /* \"#utility.yul\":12471:12482   */\n      sload\n        /* \"#utility.yul\":12445:12483   */\n      tag_177\n      jump\t// in\n    tag_323:\n        /* \"#utility.yul\":12439:12443   */\n      dup5\n        /* \"#utility.yul\":12395:12492   */\n      tag_236\n      jump\t// in\n    tag_322:\n        /* \"#utility.yul\":12541:12545   */\n      0x20\n        /* \"#utility.yul\":12572:12574   */\n      0x1f\n        /* \"#utility.yul\":12561:12575   */\n      dup3\n      gt\n        /* \"#utility.yul\":12589:12590   */\n      0x01\n        /* \"#utility.yul\":12584:13233   */\n      dup2\n      eq\n      tag_325\n      jumpi\n        /* \"#utility.yul\":13277:13278   */\n      0x00\n        /* \"#utility.yul\":13294:13300   */\n      dup4\n        /* \"#utility.yul\":13291:13380   */\n      iszero\n      tag_326\n      jumpi\n      pop\n        /* \"#utility.yul\":13346:13365   */\n      dup5\n      dup3\n      add\n        /* \"#utility.yul\":13340:13366   */\n      mload\n        /* \"#utility.yul\":13291:13380   */\n    tag_326:\n      not(0x00)\n        /* \"#utility.yul\":12148:12149   */\n      0x03\n        /* \"#utility.yul\":12144:12155   */\n      dup6\n      swap1\n      shl\n        /* \"#utility.yul\":12140:12164   */\n      shr\n        /* \"#utility.yul\":12136:12165   */\n      not\n        /* \"#utility.yul\":12126:12166   */\n      and\n        /* \"#utility.yul\":12172:12173   */\n      0x01\n        /* \"#utility.yul\":12168:12179   */\n      dup5\n      swap1\n      shl\n        /* \"#utility.yul\":12123:12180   */\n      or\n        /* \"#utility.yul\":13393:13474   */\n      dup5\n      sstore\n        /* \"#utility.yul\":12554:13484   */\n      jump(tag_317)\n        /* \"#utility.yul\":12584:13233   */\n    tag_325:\n        /* \"#utility.yul\":11444:11445   */\n      0x00\n        /* \"#utility.yul\":11437:11451   */\n      dup5\n      dup2\n      mstore\n        /* \"#utility.yul\":11481:11485   */\n      0x20\n        /* \"#utility.yul\":11468:11486   */\n      dup2\n      keccak256\n      not(0x1f)\n        /* \"#utility.yul\":12620:12640   */\n      dup6\n      and\n      swap2\n        /* \"#utility.yul\":12738:12960   */\n    tag_329:\n        /* \"#utility.yul\":12752:12759   */\n      dup3\n        /* \"#utility.yul\":12749:12750   */\n      dup2\n        /* \"#utility.yul\":12746:12760   */\n      lt\n        /* \"#utility.yul\":12738:12960   */\n      iszero\n      tag_331\n      jumpi\n        /* \"#utility.yul\":12834:12853   */\n      dup8\n      dup6\n      add\n        /* \"#utility.yul\":12828:12854   */\n      mload\n        /* \"#utility.yul\":12813:12855   */\n      dup3\n      sstore\n        /* \"#utility.yul\":12941:12945   */\n      0x20\n        /* \"#utility.yul\":12926:12946   */\n      swap5\n      dup6\n      add\n      swap5\n        /* \"#utility.yul\":12894:12895   */\n      0x01\n        /* \"#utility.yul\":12882:12896   */\n      swap1\n      swap3\n      add\n      swap2\n        /* \"#utility.yul\":12768:12780   */\n      add\n        /* \"#utility.yul\":12738:12960   */\n      jump(tag_329)\n    tag_331:\n        /* \"#utility.yul\":12742:12745   */\n      pop\n        /* \"#utility.yul\":12988:12994   */\n      dup5\n        /* \"#utility.yul\":12979:12986   */\n      dup3\n        /* \"#utility.yul\":12976:12995   */\n      lt\n        /* \"#utility.yul\":12973:13174   */\n      iszero\n      tag_332\n      jumpi\n        /* \"#utility.yul\":13049:13068   */\n      dup7\n      dup5\n      add\n        /* \"#utility.yul\":13043:13069   */\n      mload\n      not(0x00)\n        /* \"#utility.yul\":13132:13133   */\n      0x03\n        /* \"#utility.yul\":13128:13142   */\n      dup8\n      swap1\n      shl\n        /* \"#utility.yul\":13144:13147   */\n      0xf8\n        /* \"#utility.yul\":13124:13148   */\n      and\n        /* \"#utility.yul\":13120:13157   */\n      shr\n        /* \"#utility.yul\":13116:13158   */\n      not\n        /* \"#utility.yul\":13101:13159   */\n      and\n        /* \"#utility.yul\":13086:13160   */\n      dup2\n      sstore\n        /* \"#utility.yul\":12973:13174   */\n    tag_332:\n      pop\n      pop\n      pop\n      pop\n        /* \"#utility.yul\":13220:13221   */\n      0x01\n        /* \"#utility.yul\":13204:13218   */\n      swap1\n      dup2\n      shl\n        /* \"#utility.yul\":13200:13222   */\n      add\n        /* \"#utility.yul\":13187:13223   */\n      swap1\n      sstore\n      pop\n        /* \"#utility.yul\":12191:13490   */\n      jump\t// out\n        /* \"#utility.yul\":14316:14441   */\n    tag_160:\n        /* \"#utility.yul\":14381:14390   */\n      dup1\n      dup3\n      add\n        /* \"#utility.yul\":14402:14412   */\n      dup1\n      dup3\n      gt\n        /* \"#utility.yul\":14399:14435   */\n      iszero\n      tag_337\n      jumpi\n        /* \"#utility.yul\":14415:14433   */\n      tag_337\n      tag_234\n      jump\t// in\n    tag_337:\n        /* \"#utility.yul\":14316:14441   */\n      swap3\n      swap2\n      pop\n      pop\n      jump\t// out\n        /* \"#utility.yul\":14446:14574   */\n    tag_164:\n        /* \"#utility.yul\":14513:14522   */\n      dup2\n      dup2\n      sub\n        /* \"#utility.yul\":14534:14545   */\n      dup2\n      dup2\n      gt\n        /* \"#utility.yul\":14531:14568   */\n      iszero\n      tag_337\n      jumpi\n        /* \"#utility.yul\":14548:14566   */\n      tag_337\n      tag_234\n      jump\t// in\n\n    auxdata: 0xa2646970667358221220fb4848285c7c9c3f7623351db058e0a3f1e2a29ec2fe2d6f30e5f5ee9f6a4a2d64736f6c634300081a0033\n}\n",
				"bytecode": {
					"linkReferences": {},
					"object": "6080604052600160025560016003553480156018575f80fd5b505f80546001600160a01b03191633179055611537806100375f395ff3fe608060405234801561000f575f80fd5b50600436106100e5575f3560e01c8063982c777d11610088578063aab46b7f11610063578063aab46b7f146101ad578063b28d92ae146101bf578063dfbf53ae146101d4578063fdbc4006146101e7575f80fd5b8063982c777d1461017f5780639fa4e44014610192578063a15a36c71461019a575f80fd5b80636ce2ccc0116100c35780636ce2ccc01461013c5780638182a11f1461014457806381ba732f146101525780638fdd8f8114610165575f80fd5b806306457d07146100e95780632c0a3f8914610112578063581c281c14610127575b5f80fd5b6100fc6100f7366004610edb565b6101fc565b6040516101099190610f55565b60405180910390f35b610125610120366004610f85565b61020d565b005b61012f610362565b6040516101099190610fb9565b610125610396565b604051428152602001610109565b61012561016036600461102b565b61042a565b335b6040516001600160a01b039091168152602001610109565b61012561018d366004611084565b61060e565b6101256108a8565b6101256101a8366004610f85565b6108e0565b5f54610167906001600160a01b031681565b6101c7610991565b604051610109919061114d565b600154610167906001600160a01b031681565b6101ef610b48565b60405161010991906111ff565b610204610e14565b50610e49815290565b5f82815260076020526040902060040154156102705760405162461bcd60e51b815260206004820152601660248201527f596f75206861766520616c726561647920766f7465640000000000000000000060448201526064015b60405180910390fd5b5f828152600760205260409020600501546001600160a01b031633146102cf5760405162461bcd60e51b8152602060048201526014602482015273165bdd48185c99481b9bdd08185d5d1bdc9a5e9960621b6044820152606401610267565b5f811180156102de5750600381105b61032a5760405162461bcd60e51b815260206004820152601b60248201527f43616e646964617465204964206973206e6f7420636f727265637400000000006044820152606401610267565b5f82815260076020908152604080832060040184905583835260089091528120600601805491610359836112e7565b91905055505050565b5f6004545f0361037157505f90565b42600554118015610385575060065460ff16155b156103905750600190565b50600290565b5f546001600160a01b031633146103bf5760405162461bcd60e51b8152600401610267906112ff565b5f805b600354811015610426575f8181526008602052604090206006015482101561041e575f8181526008602052604090206006810154600590910154600180546001600160a01b0319166001600160a01b0390921691909117905591505b6001016103c2565b5050565b81601281101561046f5760405162461bcd60e51b815260206004820152601060248201526f0b2deea40c2e4ca40c4cad8deee4062760831b6044820152606401610267565b61047833610d89565b6104c45760405162461bcd60e51b815260206004820152601a60248201527f596f752061726520616c726561647920726567697374657265640000000000006044820152606401610267565b5f546001600160a01b031633036104ed5760405162461bcd60e51b815260040161026790611352565b6040518060c0016040528086868080601f0160208091040260200160405190810160405280939291908181526020018383808284375f9201919091525050509082525060208101859052600254604082015260600183600381111561055457610554610fa5565b81525f602080830182905233604093840152600254825260079052208151819061057e908261141a565b5060208201518160010155604082015181600201556060820151816003015f6101000a81548160ff021916908360038111156105bc576105bc610fa5565b02179055506080820151600482015560a090910151600590910180546001600160a01b0319166001600160a01b0390921691909117905560028054905f610602836112e7565b91905055505050505050565b8160128110156106535760405162461bcd60e51b815260206004820152601060248201526f0b2deea40c2e4ca40c4cad8deee4062760831b6044820152606401610267565b61065c33610dd3565b6106a85760405162461bcd60e51b815260206004820152601a60248201527f596f752061726520616c726561647920726567697374657265640000000000006044820152606401610267565b60038054106107085760405162461bcd60e51b815260206004820152602660248201527f43616e64696461746520526567697374726174696f6e2066756c6c6564202c2060448201526534973297101960d11b6064820152608401610267565b5f546001600160a01b031633036107315760405162461bcd60e51b815260040161026790611352565b6040518060e0016040528088888080601f0160208091040260200160405190810160405280939291908181526020018383808284375f92019190915250505090825250604080516020601f8901819004810282018101909252878152918101919088908890819084018382808284375f92019190915250505090825250602081018590526040018360038111156107ca576107ca610fa5565b81526003546020808301829052336040808501919091525f606090940184905291835260089052902081518190610801908261141a565b5060208201516001820190610816908261141a565b50604082015181600201556060820151816003015f6101000a81548160ff0219169083600381111561084a5761084a610fa5565b02179055506080820151600482015560a08201516005820180546001600160a01b0319166001600160a01b0390921691909117905560c09091015160069091015560038054905f61089a836112e7565b919050555050505050505050565b5f546001600160a01b031633146108d15760405162461bcd60e51b8152600401610267906112ff565b6006805460ff19166001179055565b5f546001600160a01b031633146109095760405162461bcd60e51b8152600401610267906112ff565b610e1081116109705760405162461bcd60e51b815260206004820152602d60248201527f5f656e6474696d65206475726174696f6e206d7573742062652067726561746560448201526c39103a3430b71018903437bab960991b6064820152608401610267565b61097a82426114d5565b600481905561098a9082906114d5565b6005555050565b60605f60016002546109a391906114ee565b67ffffffffffffffff8111156109bb576109bb610ec7565b6040519080825280602002602001820160405280156109f457816020015b6109e1610e32565b8152602001906001900390816109d95790505b5090505f5b8151811015610b425760075f610a108360016114d5565b81526020019081526020015f206040518060c00160405290815f82018054610a379061139c565b80601f0160208091040260200160405190810160405280929190818152602001828054610a639061139c565b8015610aae5780601f10610a8557610100808354040283529160200191610aae565b820191905f5260205f20905b815481529060010190602001808311610a9157829003601f168201915b5050509183525050600182015460208201526002820154604082015260038083015460609092019160ff1690811115610ae957610ae9610fa5565b6003811115610afa57610afa610fa5565b8152600482015460208201526005909101546001600160a01b03166040909101528251839083908110610b2f57610b2f6112bf565b60209081029190910101526001016109f9565b50919050565b60605f6001600354610b5a91906114ee565b67ffffffffffffffff811115610b7257610b72610ec7565b604051908082528060200260200182016040528015610bab57816020015b610b98610e75565b815260200190600190039081610b905790505b5090505f5b8151811015610b425760085f610bc78360016114d5565b81526020019081526020015f206040518060e00160405290815f82018054610bee9061139c565b80601f0160208091040260200160405190810160405280929190818152602001828054610c1a9061139c565b8015610c655780601f10610c3c57610100808354040283529160200191610c65565b820191905f5260205f20905b815481529060010190602001808311610c4857829003601f168201915b50505050508152602001600182018054610c7e9061139c565b80601f0160208091040260200160405190810160405280929190818152602001828054610caa9061139c565b8015610cf55780601f10610ccc57610100808354040283529160200191610cf5565b820191905f5260205f20905b815481529060010190602001808311610cd857829003601f168201915b50505091835250506002820154602082015260038083015460409092019160ff1690811115610d2657610d26610fa5565b6003811115610d3757610d37610fa5565b81526004820154602082015260058201546001600160a01b031660408201526006909101546060909101528251839083908110610d7657610d766112bf565b6020908102919091010152600101610bb0565b5f60015b600254811015610dca575f818152600760205260409020600501546001600160a01b03808516911603610dc257505f92915050565b600101610d8d565b50600192915050565b5f60015b600354811015610dca575f818152600860205260409020600501546001600160a01b03808516911603610e0c57505f92915050565b600101610dd7565b60405180606001604052806003906020820280368337509192915050565b6040518060c00160405280606081526020015f81526020015f81526020015f6003811115610e6257610e62610fa5565b81525f6020820181905260409091015290565b6040518060e0016040528060608152602001606081526020015f81526020015f6003811115610ea657610ea6610fa5565b81526020015f81526020015f6001600160a01b031681526020015f81525090565b634e487b7160e01b5f52604160045260245ffd5b5f60608284031215610eeb575f80fd5b82601f830112610ef9575f80fd5b6040516060810181811067ffffffffffffffff82111715610f1c57610f1c610ec7565b604052806060840185811115610f30575f80fd5b845b81811015610f4a578035835260209283019201610f32565b509195945050505050565b6060810181835f5b6003811015610f7c578151835260209283019290910190600101610f5d565b50505092915050565b5f8060408385031215610f96575f80fd5b50508035926020909101359150565b634e487b7160e01b5f52602160045260245ffd5b6020810160038310610fcd57610fcd610fa5565b91905290565b5f8083601f840112610fe3575f80fd5b50813567ffffffffffffffff811115610ffa575f80fd5b602083019150836020828501011115611011575f80fd5b9250929050565b803560048110611026575f80fd5b919050565b5f805f806060858703121561103e575f80fd5b843567ffffffffffffffff811115611054575f80fd5b61106087828801610fd3565b9095509350506020850135915061107960408601611018565b905092959194509250565b5f805f805f8060808789031215611099575f80fd5b863567ffffffffffffffff8111156110af575f80fd5b6110bb89828a01610fd3565b909750955050602087013567ffffffffffffffff8111156110da575f80fd5b6110e689828a01610fd3565b909550935050604087013591506110ff60608801611018565b90509295509295509295565b5f81518084528060208401602086015e5f602082860101526020601f19601f83011685010191505092915050565b6004811061114957611149610fa5565b9052565b5f602082016020835280845180835260408501915060408160051b8601019250602086015f5b828110156111f357603f198786030184528151805160c0875261119960c088018261110b565b9050602082015160208801526040820151604088015260608201516111c16060890182611139565b506080828101519088015260a0918201516001600160a01b031691909601526020938401939190910190600101611173565b50929695505050505050565b5f602082016020835280845180835260408501915060408160051b8601019250602086015f5b828110156111f357603f198786030184528151805160e0875261124b60e088018261110b565b905060208201518782036020890152611264828261110b565b9150506040820151604088015260608201516112836060890182611139565b506080828101519088015260a0808301516001600160a01b03169088015260c09182015191909601526020938401939190910190600101611225565b634e487b7160e01b5f52603260045260245ffd5b634e487b7160e01b5f52601160045260245ffd5b5f600182016112f8576112f86112d3565b5060010190565b60208082526033908201527f596f752048617665206e6f7420746865207065726d697373696f6e20746f20656040820152723c32b1baba103a3434b990333ab731ba34b7b760691b606082015260800190565b6020808252602a908201527f456c656374696f6e20636f6d6d6973696f6e206e6f7420616c6c6f776564207460408201526937903932b3b4b9ba32b960b11b606082015260800190565b600181811c908216806113b057607f821691505b602082108103610b4257634e487b7160e01b5f52602260045260245ffd5b601f82111561141557805f5260205f20601f840160051c810160208510156113f35750805b601f840160051c820191505b81811015611412575f81556001016113ff565b50505b505050565b815167ffffffffffffffff81111561143457611434610ec7565b61144881611442845461139c565b846113ce565b6020601f82116001811461147a575f83156114635750848201515b5f19600385901b1c1916600184901b178455611412565b5f84815260208120601f198516915b828110156114a95787850151825560209485019460019092019101611489565b50848210156114c657868401515f19600387901b60f8161c191681555b50505050600190811b01905550565b808201808211156114e8576114e86112d3565b92915050565b818103818111156114e8576114e86112d356fea2646970667358221220fb4848285c7c9c3f7623351db058e0a3f1e2a29ec2fe2d6f30e5f5ee9f6a4a2d64736f6c634300081a0033",
					"opcodes": "PUSH1 0x80 PUSH1 0x40 MSTORE PUSH1 0x1 PUSH1 0x2 SSTORE PUSH1 0x1 PUSH1 0x3 SSTORE CALLVALUE DUP1 ISZERO PUSH1 0x18 JUMPI PUSH0 DUP1 REVERT JUMPDEST POP PUSH0 DUP1 SLOAD PUSH1 0x1 PUSH1 0x1 PUSH1 0xA0 SHL SUB NOT AND CALLER OR SWAP1 SSTORE PUSH2 0x1537 DUP1 PUSH2 0x37 PUSH0 CODECOPY PUSH0 RETURN INVALID PUSH1 0x80 PUSH1 0x40 MSTORE CALLVALUE DUP1 ISZERO PUSH2 0xF JUMPI PUSH0 DUP1 REVERT JUMPDEST POP PUSH1 0x4 CALLDATASIZE LT PUSH2 0xE5 JUMPI PUSH0 CALLDATALOAD PUSH1 0xE0 SHR DUP1 PUSH4 0x982C777D GT PUSH2 0x88 JUMPI DUP1 PUSH4 0xAAB46B7F GT PUSH2 0x63 JUMPI DUP1 PUSH4 0xAAB46B7F EQ PUSH2 0x1AD JUMPI DUP1 PUSH4 0xB28D92AE EQ PUSH2 0x1BF JUMPI DUP1 PUSH4 0xDFBF53AE EQ PUSH2 0x1D4 JUMPI DUP1 PUSH4 0xFDBC4006 EQ PUSH2 0x1E7 JUMPI PUSH0 DUP1 REVERT JUMPDEST DUP1 PUSH4 0x982C777D EQ PUSH2 0x17F JUMPI DUP1 PUSH4 0x9FA4E440 EQ PUSH2 0x192 JUMPI DUP1 PUSH4 0xA15A36C7 EQ PUSH2 0x19A JUMPI PUSH0 DUP1 REVERT JUMPDEST DUP1 PUSH4 0x6CE2CCC0 GT PUSH2 0xC3 JUMPI DUP1 PUSH4 0x6CE2CCC0 EQ PUSH2 0x13C JUMPI DUP1 PUSH4 0x8182A11F EQ PUSH2 0x144 JUMPI DUP1 PUSH4 0x81BA732F EQ PUSH2 0x152 JUMPI DUP1 PUSH4 0x8FDD8F81 EQ PUSH2 0x165 JUMPI PUSH0 DUP1 REVERT JUMPDEST DUP1 PUSH4 0x6457D07 EQ PUSH2 0xE9 JUMPI DUP1 PUSH4 0x2C0A3F89 EQ PUSH2 0x112 JUMPI DUP1 PUSH4 0x581C281C EQ PUSH2 0x127 JUMPI JUMPDEST PUSH0 DUP1 REVERT JUMPDEST PUSH2 0xFC PUSH2 0xF7 CALLDATASIZE PUSH1 0x4 PUSH2 0xEDB JUMP JUMPDEST PUSH2 0x1FC JUMP JUMPDEST PUSH1 0x40 MLOAD PUSH2 0x109 SWAP2 SWAP1 PUSH2 0xF55 JUMP JUMPDEST PUSH1 0x40 MLOAD DUP1 SWAP2 SUB SWAP1 RETURN JUMPDEST PUSH2 0x125 PUSH2 0x120 CALLDATASIZE PUSH1 0x4 PUSH2 0xF85 JUMP JUMPDEST PUSH2 0x20D JUMP JUMPDEST STOP JUMPDEST PUSH2 0x12F PUSH2 0x362 JUMP JUMPDEST PUSH1 0x40 MLOAD PUSH2 0x109 SWAP2 SWAP1 PUSH2 0xFB9 JUMP JUMPDEST PUSH2 0x125 PUSH2 0x396 JUMP JUMPDEST PUSH1 0x40 MLOAD TIMESTAMP DUP2 MSTORE PUSH1 0x20 ADD PUSH2 0x109 JUMP JUMPDEST PUSH2 0x125 PUSH2 0x160 CALLDATASIZE PUSH1 0x4 PUSH2 0x102B JUMP JUMPDEST PUSH2 0x42A JUMP JUMPDEST CALLER JUMPDEST PUSH1 0x40 MLOAD PUSH1 0x1 PUSH1 0x1 PUSH1 0xA0 SHL SUB SWAP1 SWAP2 AND DUP2 MSTORE PUSH1 0x20 ADD PUSH2 0x109 JUMP JUMPDEST PUSH2 0x125 PUSH2 0x18D CALLDATASIZE PUSH1 0x4 PUSH2 0x1084 JUMP JUMPDEST PUSH2 0x60E JUMP JUMPDEST PUSH2 0x125 PUSH2 0x8A8 JUMP JUMPDEST PUSH2 0x125 PUSH2 0x1A8 CALLDATASIZE PUSH1 0x4 PUSH2 0xF85 JUMP JUMPDEST PUSH2 0x8E0 JUMP JUMPDEST PUSH0 SLOAD PUSH2 0x167 SWAP1 PUSH1 0x1 PUSH1 0x1 PUSH1 0xA0 SHL SUB AND DUP2 JUMP JUMPDEST PUSH2 0x1C7 PUSH2 0x991 JUMP JUMPDEST PUSH1 0x40 MLOAD PUSH2 0x109 SWAP2 SWAP1 PUSH2 0x114D JUMP JUMPDEST PUSH1 0x1 SLOAD PUSH2 0x167 SWAP1 PUSH1 0x1 PUSH1 0x1 PUSH1 0xA0 SHL SUB AND DUP2 JUMP JUMPDEST PUSH2 0x1EF PUSH2 0xB48 JUMP JUMPDEST PUSH1 0x40 MLOAD PUSH2 0x109 SWAP2 SWAP1 PUSH2 0x11FF JUMP JUMPDEST PUSH2 0x204 PUSH2 0xE14 JUMP JUMPDEST POP PUSH2 0xE49 DUP2 MSTORE SWAP1 JUMP JUMPDEST PUSH0 DUP3 DUP2 MSTORE PUSH1 0x7 PUSH1 0x20 MSTORE PUSH1 0x40 SWAP1 KECCAK256 PUSH1 0x4 ADD SLOAD ISZERO PUSH2 0x270 JUMPI PUSH1 0x40 MLOAD PUSH3 0x461BCD PUSH1 0xE5 SHL DUP2 MSTORE PUSH1 0x20 PUSH1 0x4 DUP3 ADD MSTORE PUSH1 0x16 PUSH1 0x24 DUP3 ADD MSTORE PUSH32 0x596F75206861766520616C726561647920766F74656400000000000000000000 PUSH1 0x44 DUP3 ADD MSTORE PUSH1 0x64 ADD JUMPDEST PUSH1 0x40 MLOAD DUP1 SWAP2 SUB SWAP1 REVERT JUMPDEST PUSH0 DUP3 DUP2 MSTORE PUSH1 0x7 PUSH1 0x20 MSTORE PUSH1 0x40 SWAP1 KECCAK256 PUSH1 0x5 ADD SLOAD PUSH1 0x1 PUSH1 0x1 PUSH1 0xA0 SHL SUB AND CALLER EQ PUSH2 0x2CF JUMPI PUSH1 0x40 MLOAD PUSH3 0x461BCD PUSH1 0xE5 SHL DUP2 MSTORE PUSH1 0x20 PUSH1 0x4 DUP3 ADD MSTORE PUSH1 0x14 PUSH1 0x24 DUP3 ADD MSTORE PUSH20 0x165BDD48185C99481B9BDD08185D5D1BDC9A5E99 PUSH1 0x62 SHL PUSH1 0x44 DUP3 ADD MSTORE PUSH1 0x64 ADD PUSH2 0x267 JUMP JUMPDEST PUSH0 DUP2 GT DUP1 ISZERO PUSH2 0x2DE JUMPI POP PUSH1 0x3 DUP2 LT JUMPDEST PUSH2 0x32A JUMPI PUSH1 0x40 MLOAD PUSH3 0x461BCD PUSH1 0xE5 SHL DUP2 MSTORE PUSH1 0x20 PUSH1 0x4 DUP3 ADD MSTORE PUSH1 0x1B PUSH1 0x24 DUP3 ADD MSTORE PUSH32 0x43616E646964617465204964206973206E6F7420636F72726563740000000000 PUSH1 0x44 DUP3 ADD MSTORE PUSH1 0x64 ADD PUSH2 0x267 JUMP JUMPDEST PUSH0 DUP3 DUP2 MSTORE PUSH1 0x7 PUSH1 0x20 SWAP1 DUP2 MSTORE PUSH1 0x40 DUP1 DUP4 KECCAK256 PUSH1 0x4 ADD DUP5 SWAP1 SSTORE DUP4 DUP4 MSTORE PUSH1 0x8 SWAP1 SWAP2 MSTORE DUP2 KECCAK256 PUSH1 0x6 ADD DUP1 SLOAD SWAP2 PUSH2 0x359 DUP4 PUSH2 0x12E7 JUMP JUMPDEST SWAP2 SWAP1 POP SSTORE POP POP POP JUMP JUMPDEST PUSH0 PUSH1 0x4 SLOAD PUSH0 SUB PUSH2 0x371 JUMPI POP PUSH0 SWAP1 JUMP JUMPDEST TIMESTAMP PUSH1 0x5 SLOAD GT DUP1 ISZERO PUSH2 0x385 JUMPI POP PUSH1 0x6 SLOAD PUSH1 0xFF AND ISZERO JUMPDEST ISZERO PUSH2 0x390 JUMPI POP PUSH1 0x1 SWAP1 JUMP JUMPDEST POP PUSH1 0x2 SWAP1 JUMP JUMPDEST PUSH0 SLOAD PUSH1 0x1 PUSH1 0x1 PUSH1 0xA0 SHL SUB AND CALLER EQ PUSH2 0x3BF JUMPI PUSH1 0x40 MLOAD PUSH3 0x461BCD PUSH1 0xE5 SHL DUP2 MSTORE PUSH1 0x4 ADD PUSH2 0x267 SWAP1 PUSH2 0x12FF JUMP JUMPDEST PUSH0 DUP1 JUMPDEST PUSH1 0x3 SLOAD DUP2 LT ISZERO PUSH2 0x426 JUMPI PUSH0 DUP2 DUP2 MSTORE PUSH1 0x8 PUSH1 0x20 MSTORE PUSH1 0x40 SWAP1 KECCAK256 PUSH1 0x6 ADD SLOAD DUP3 LT ISZERO PUSH2 0x41E JUMPI PUSH0 DUP2 DUP2 MSTORE PUSH1 0x8 PUSH1 0x20 MSTORE PUSH1 0x40 SWAP1 KECCAK256 PUSH1 0x6 DUP2 ADD SLOAD PUSH1 0x5 SWAP1 SWAP2 ADD SLOAD PUSH1 0x1 DUP1 SLOAD PUSH1 0x1 PUSH1 0x1 PUSH1 0xA0 SHL SUB NOT AND PUSH1 0x1 PUSH1 0x1 PUSH1 0xA0 SHL SUB SWAP1 SWAP3 AND SWAP2 SWAP1 SWAP2 OR SWAP1 SSTORE SWAP2 POP JUMPDEST PUSH1 0x1 ADD PUSH2 0x3C2 JUMP JUMPDEST POP POP JUMP JUMPDEST DUP2 PUSH1 0x12 DUP2 LT ISZERO PUSH2 0x46F JUMPI PUSH1 0x40 MLOAD PUSH3 0x461BCD PUSH1 0xE5 SHL DUP2 MSTORE PUSH1 0x20 PUSH1 0x4 DUP3 ADD MSTORE PUSH1 0x10 PUSH1 0x24 DUP3 ADD MSTORE PUSH16 0xB2DEEA40C2E4CA40C4CAD8DEEE40627 PUSH1 0x83 SHL PUSH1 0x44 DUP3 ADD MSTORE PUSH1 0x64 ADD PUSH2 0x267 JUMP JUMPDEST PUSH2 0x478 CALLER PUSH2 0xD89 JUMP JUMPDEST PUSH2 0x4C4 JUMPI PUSH1 0x40 MLOAD PUSH3 0x461BCD PUSH1 0xE5 SHL DUP2 MSTORE PUSH1 0x20 PUSH1 0x4 DUP3 ADD MSTORE PUSH1 0x1A PUSH1 0x24 DUP3 ADD MSTORE PUSH32 0x596F752061726520616C72656164792072656769737465726564000000000000 PUSH1 0x44 DUP3 ADD MSTORE PUSH1 0x64 ADD PUSH2 0x267 JUMP JUMPDEST PUSH0 SLOAD PUSH1 0x1 PUSH1 0x1 PUSH1 0xA0 SHL SUB AND CALLER SUB PUSH2 0x4ED JUMPI PUSH1 0x40 MLOAD PUSH3 0x461BCD PUSH1 0xE5 SHL DUP2 MSTORE PUSH1 0x4 ADD PUSH2 0x267 SWAP1 PUSH2 0x1352 JUMP JUMPDEST PUSH1 0x40 MLOAD DUP1 PUSH1 0xC0 ADD PUSH1 0x40 MSTORE DUP1 DUP7 DUP7 DUP1 DUP1 PUSH1 0x1F ADD PUSH1 0x20 DUP1 SWAP2 DIV MUL PUSH1 0x20 ADD PUSH1 0x40 MLOAD SWAP1 DUP2 ADD PUSH1 0x40 MSTORE DUP1 SWAP4 SWAP3 SWAP2 SWAP1 DUP2 DUP2 MSTORE PUSH1 0x20 ADD DUP4 DUP4 DUP1 DUP3 DUP5 CALLDATACOPY PUSH0 SWAP3 ADD SWAP2 SWAP1 SWAP2 MSTORE POP POP POP SWAP1 DUP3 MSTORE POP PUSH1 0x20 DUP2 ADD DUP6 SWAP1 MSTORE PUSH1 0x2 SLOAD PUSH1 0x40 DUP3 ADD MSTORE PUSH1 0x60 ADD DUP4 PUSH1 0x3 DUP2 GT ISZERO PUSH2 0x554 JUMPI PUSH2 0x554 PUSH2 0xFA5 JUMP JUMPDEST DUP2 MSTORE PUSH0 PUSH1 0x20 DUP1 DUP4 ADD DUP3 SWAP1 MSTORE CALLER PUSH1 0x40 SWAP4 DUP5 ADD MSTORE PUSH1 0x2 SLOAD DUP3 MSTORE PUSH1 0x7 SWAP1 MSTORE KECCAK256 DUP2 MLOAD DUP2 SWAP1 PUSH2 0x57E SWAP1 DUP3 PUSH2 0x141A JUMP JUMPDEST POP PUSH1 0x20 DUP3 ADD MLOAD DUP2 PUSH1 0x1 ADD SSTORE PUSH1 0x40 DUP3 ADD MLOAD DUP2 PUSH1 0x2 ADD SSTORE PUSH1 0x60 DUP3 ADD MLOAD DUP2 PUSH1 0x3 ADD PUSH0 PUSH2 0x100 EXP DUP2 SLOAD DUP2 PUSH1 0xFF MUL NOT AND SWAP1 DUP4 PUSH1 0x3 DUP2 GT ISZERO PUSH2 0x5BC JUMPI PUSH2 0x5BC PUSH2 0xFA5 JUMP JUMPDEST MUL OR SWAP1 SSTORE POP PUSH1 0x80 DUP3 ADD MLOAD PUSH1 0x4 DUP3 ADD SSTORE PUSH1 0xA0 SWAP1 SWAP2 ADD MLOAD PUSH1 0x5 SWAP1 SWAP2 ADD DUP1 SLOAD PUSH1 0x1 PUSH1 0x1 PUSH1 0xA0 SHL SUB NOT AND PUSH1 0x1 PUSH1 0x1 PUSH1 0xA0 SHL SUB SWAP1 SWAP3 AND SWAP2 SWAP1 SWAP2 OR SWAP1 SSTORE PUSH1 0x2 DUP1 SLOAD SWAP1 PUSH0 PUSH2 0x602 DUP4 PUSH2 0x12E7 JUMP JUMPDEST SWAP2 SWAP1 POP SSTORE POP POP POP POP POP POP JUMP JUMPDEST DUP2 PUSH1 0x12 DUP2 LT ISZERO PUSH2 0x653 JUMPI PUSH1 0x40 MLOAD PUSH3 0x461BCD PUSH1 0xE5 SHL DUP2 MSTORE PUSH1 0x20 PUSH1 0x4 DUP3 ADD MSTORE PUSH1 0x10 PUSH1 0x24 DUP3 ADD MSTORE PUSH16 0xB2DEEA40C2E4CA40C4CAD8DEEE40627 PUSH1 0x83 SHL PUSH1 0x44 DUP3 ADD MSTORE PUSH1 0x64 ADD PUSH2 0x267 JUMP JUMPDEST PUSH2 0x65C CALLER PUSH2 0xDD3 JUMP JUMPDEST PUSH2 0x6A8 JUMPI PUSH1 0x40 MLOAD PUSH3 0x461BCD PUSH1 0xE5 SHL DUP2 MSTORE PUSH1 0x20 PUSH1 0x4 DUP3 ADD MSTORE PUSH1 0x1A PUSH1 0x24 DUP3 ADD MSTORE PUSH32 0x596F752061726520616C72656164792072656769737465726564000000000000 PUSH1 0x44 DUP3 ADD MSTORE PUSH1 0x64 ADD PUSH2 0x267 JUMP JUMPDEST PUSH1 0x3 DUP1 SLOAD LT PUSH2 0x708 JUMPI PUSH1 0x40 MLOAD PUSH3 0x461BCD PUSH1 0xE5 SHL DUP2 MSTORE PUSH1 0x20 PUSH1 0x4 DUP3 ADD MSTORE PUSH1 0x26 PUSH1 0x24 DUP3 ADD MSTORE PUSH32 0x43616E64696461746520526567697374726174696F6E2066756C6C6564202C20 PUSH1 0x44 DUP3 ADD MSTORE PUSH6 0x349732971019 PUSH1 0xD1 SHL PUSH1 0x64 DUP3 ADD MSTORE PUSH1 0x84 ADD PUSH2 0x267 JUMP JUMPDEST PUSH0 SLOAD PUSH1 0x1 PUSH1 0x1 PUSH1 0xA0 SHL SUB AND CALLER SUB PUSH2 0x731 JUMPI PUSH1 0x40 MLOAD PUSH3 0x461BCD PUSH1 0xE5 SHL DUP2 MSTORE PUSH1 0x4 ADD PUSH2 0x267 SWAP1 PUSH2 0x1352 JUMP JUMPDEST PUSH1 0x40 MLOAD DUP1 PUSH1 0xE0 ADD PUSH1 0x40 MSTORE DUP1 DUP9 DUP9 DUP1 DUP1 PUSH1 0x1F ADD PUSH1 0x20 DUP1 SWAP2 DIV MUL PUSH1 0x20 ADD PUSH1 0x40 MLOAD SWAP1 DUP2 ADD PUSH1 0x40 MSTORE DUP1 SWAP4 SWAP3 SWAP2 SWAP1 DUP2 DUP2 MSTORE PUSH1 0x20 ADD DUP4 DUP4 DUP1 DUP3 DUP5 CALLDATACOPY PUSH0 SWAP3 ADD SWAP2 SWAP1 SWAP2 MSTORE POP POP POP SWAP1 DUP3 MSTORE POP PUSH1 0x40 DUP1 MLOAD PUSH1 0x20 PUSH1 0x1F DUP10 ADD DUP2 SWAP1 DIV DUP2 MUL DUP3 ADD DUP2 ADD SWAP1 SWAP3 MSTORE DUP8 DUP2 MSTORE SWAP2 DUP2 ADD SWAP2 SWAP1 DUP9 SWAP1 DUP9 SWAP1 DUP2 SWAP1 DUP5 ADD DUP4 DUP3 DUP1 DUP3 DUP5 CALLDATACOPY PUSH0 SWAP3 ADD SWAP2 SWAP1 SWAP2 MSTORE POP POP POP SWAP1 DUP3 MSTORE POP PUSH1 0x20 DUP2 ADD DUP6 SWAP1 MSTORE PUSH1 0x40 ADD DUP4 PUSH1 0x3 DUP2 GT ISZERO PUSH2 0x7CA JUMPI PUSH2 0x7CA PUSH2 0xFA5 JUMP JUMPDEST DUP2 MSTORE PUSH1 0x3 SLOAD PUSH1 0x20 DUP1 DUP4 ADD DUP3 SWAP1 MSTORE CALLER PUSH1 0x40 DUP1 DUP6 ADD SWAP2 SWAP1 SWAP2 MSTORE PUSH0 PUSH1 0x60 SWAP1 SWAP5 ADD DUP5 SWAP1 MSTORE SWAP2 DUP4 MSTORE PUSH1 0x8 SWAP1 MSTORE SWAP1 KECCAK256 DUP2 MLOAD DUP2 SWAP1 PUSH2 0x801 SWAP1 DUP3 PUSH2 0x141A JUMP JUMPDEST POP PUSH1 0x20 DUP3 ADD MLOAD PUSH1 0x1 DUP3 ADD SWAP1 PUSH2 0x816 SWAP1 DUP3 PUSH2 0x141A JUMP JUMPDEST POP PUSH1 0x40 DUP3 ADD MLOAD DUP2 PUSH1 0x2 ADD SSTORE PUSH1 0x60 DUP3 ADD MLOAD DUP2 PUSH1 0x3 ADD PUSH0 PUSH2 0x100 EXP DUP2 SLOAD DUP2 PUSH1 0xFF MUL NOT AND SWAP1 DUP4 PUSH1 0x3 DUP2 GT ISZERO PUSH2 0x84A JUMPI PUSH2 0x84A PUSH2 0xFA5 JUMP JUMPDEST MUL OR SWAP1 SSTORE POP PUSH1 0x80 DUP3 ADD MLOAD PUSH1 0x4 DUP3 ADD SSTORE PUSH1 0xA0 DUP3 ADD MLOAD PUSH1 0x5 DUP3 ADD DUP1 SLOAD PUSH1 0x1 PUSH1 0x1 PUSH1 0xA0 SHL SUB NOT AND PUSH1 0x1 PUSH1 0x1 PUSH1 0xA0 SHL SUB SWAP1 SWAP3 AND SWAP2 SWAP1 SWAP2 OR SWAP1 SSTORE PUSH1 0xC0 SWAP1 SWAP2 ADD MLOAD PUSH1 0x6 SWAP1 SWAP2 ADD SSTORE PUSH1 0x3 DUP1 SLOAD SWAP1 PUSH0 PUSH2 0x89A DUP4 PUSH2 0x12E7 JUMP JUMPDEST SWAP2 SWAP1 POP SSTORE POP POP POP POP POP POP POP POP JUMP JUMPDEST PUSH0 SLOAD PUSH1 0x1 PUSH1 0x1 PUSH1 0xA0 SHL SUB AND CALLER EQ PUSH2 0x8D1 JUMPI PUSH1 0x40 MLOAD PUSH3 0x461BCD PUSH1 0xE5 SHL DUP2 MSTORE PUSH1 0x4 ADD PUSH2 0x267 SWAP1 PUSH2 0x12FF JUMP JUMPDEST PUSH1 0x6 DUP1 SLOAD PUSH1 0xFF NOT AND PUSH1 0x1 OR SWAP1 SSTORE JUMP JUMPDEST PUSH0 SLOAD PUSH1 0x1 PUSH1 0x1 PUSH1 0xA0 SHL SUB AND CALLER EQ PUSH2 0x909 JUMPI PUSH1 0x40 MLOAD PUSH3 0x461BCD PUSH1 0xE5 SHL DUP2 MSTORE PUSH1 0x4 ADD PUSH2 0x267 SWAP1 PUSH2 0x12FF JUMP JUMPDEST PUSH2 0xE10 DUP2 GT PUSH2 0x970 JUMPI PUSH1 0x40 MLOAD PUSH3 0x461BCD PUSH1 0xE5 SHL DUP2 MSTORE PUSH1 0x20 PUSH1 0x4 DUP3 ADD MSTORE PUSH1 0x2D PUSH1 0x24 DUP3 ADD MSTORE PUSH32 0x5F656E6474696D65206475726174696F6E206D75737420626520677265617465 PUSH1 0x44 DUP3 ADD MSTORE PUSH13 0x39103A3430B71018903437BAB9 PUSH1 0x99 SHL PUSH1 0x64 DUP3 ADD MSTORE PUSH1 0x84 ADD PUSH2 0x267 JUMP JUMPDEST PUSH2 0x97A DUP3 TIMESTAMP PUSH2 0x14D5 JUMP JUMPDEST PUSH1 0x4 DUP2 SWAP1 SSTORE PUSH2 0x98A SWAP1 DUP3 SWAP1 PUSH2 0x14D5 JUMP JUMPDEST PUSH1 0x5 SSTORE POP POP JUMP JUMPDEST PUSH1 0x60 PUSH0 PUSH1 0x1 PUSH1 0x2 SLOAD PUSH2 0x9A3 SWAP2 SWAP1 PUSH2 0x14EE JUMP JUMPDEST PUSH8 0xFFFFFFFFFFFFFFFF DUP2 GT ISZERO PUSH2 0x9BB JUMPI PUSH2 0x9BB PUSH2 0xEC7 JUMP JUMPDEST PUSH1 0x40 MLOAD SWAP1 DUP1 DUP3 MSTORE DUP1 PUSH1 0x20 MUL PUSH1 0x20 ADD DUP3 ADD PUSH1 0x40 MSTORE DUP1 ISZERO PUSH2 0x9F4 JUMPI DUP2 PUSH1 0x20 ADD JUMPDEST PUSH2 0x9E1 PUSH2 0xE32 JUMP JUMPDEST DUP2 MSTORE PUSH1 0x20 ADD SWAP1 PUSH1 0x1 SWAP1 SUB SWAP1 DUP2 PUSH2 0x9D9 JUMPI SWAP1 POP JUMPDEST POP SWAP1 POP PUSH0 JUMPDEST DUP2 MLOAD DUP2 LT ISZERO PUSH2 0xB42 JUMPI PUSH1 0x7 PUSH0 PUSH2 0xA10 DUP4 PUSH1 0x1 PUSH2 0x14D5 JUMP JUMPDEST DUP2 MSTORE PUSH1 0x20 ADD SWAP1 DUP2 MSTORE PUSH1 0x20 ADD PUSH0 KECCAK256 PUSH1 0x40 MLOAD DUP1 PUSH1 0xC0 ADD PUSH1 0x40 MSTORE SWAP1 DUP2 PUSH0 DUP3 ADD DUP1 SLOAD PUSH2 0xA37 SWAP1 PUSH2 0x139C JUMP JUMPDEST DUP1 PUSH1 0x1F ADD PUSH1 0x20 DUP1 SWAP2 DIV MUL PUSH1 0x20 ADD PUSH1 0x40 MLOAD SWAP1 DUP2 ADD PUSH1 0x40 MSTORE DUP1 SWAP3 SWAP2 SWAP1 DUP2 DUP2 MSTORE PUSH1 0x20 ADD DUP3 DUP1 SLOAD PUSH2 0xA63 SWAP1 PUSH2 0x139C JUMP JUMPDEST DUP1 ISZERO PUSH2 0xAAE JUMPI DUP1 PUSH1 0x1F LT PUSH2 0xA85 JUMPI PUSH2 0x100 DUP1 DUP4 SLOAD DIV MUL DUP4 MSTORE SWAP2 PUSH1 0x20 ADD SWAP2 PUSH2 0xAAE JUMP JUMPDEST DUP3 ADD SWAP2 SWAP1 PUSH0 MSTORE PUSH1 0x20 PUSH0 KECCAK256 SWAP1 JUMPDEST DUP2 SLOAD DUP2 MSTORE SWAP1 PUSH1 0x1 ADD SWAP1 PUSH1 0x20 ADD DUP1 DUP4 GT PUSH2 0xA91 JUMPI DUP3 SWAP1 SUB PUSH1 0x1F AND DUP3 ADD SWAP2 JUMPDEST POP POP POP SWAP2 DUP4 MSTORE POP POP PUSH1 0x1 DUP3 ADD SLOAD PUSH1 0x20 DUP3 ADD MSTORE PUSH1 0x2 DUP3 ADD SLOAD PUSH1 0x40 DUP3 ADD MSTORE PUSH1 0x3 DUP1 DUP4 ADD SLOAD PUSH1 0x60 SWAP1 SWAP3 ADD SWAP2 PUSH1 0xFF AND SWAP1 DUP2 GT ISZERO PUSH2 0xAE9 JUMPI PUSH2 0xAE9 PUSH2 0xFA5 JUMP JUMPDEST PUSH1 0x3 DUP2 GT ISZERO PUSH2 0xAFA JUMPI PUSH2 0xAFA PUSH2 0xFA5 JUMP JUMPDEST DUP2 MSTORE PUSH1 0x4 DUP3 ADD SLOAD PUSH1 0x20 DUP3 ADD MSTORE PUSH1 0x5 SWAP1 SWAP2 ADD SLOAD PUSH1 0x1 PUSH1 0x1 PUSH1 0xA0 SHL SUB AND PUSH1 0x40 SWAP1 SWAP2 ADD MSTORE DUP3 MLOAD DUP4 SWAP1 DUP4 SWAP1 DUP2 LT PUSH2 0xB2F JUMPI PUSH2 0xB2F PUSH2 0x12BF JUMP JUMPDEST PUSH1 0x20 SWAP1 DUP2 MUL SWAP2 SWAP1 SWAP2 ADD ADD MSTORE PUSH1 0x1 ADD PUSH2 0x9F9 JUMP JUMPDEST POP SWAP2 SWAP1 POP JUMP JUMPDEST PUSH1 0x60 PUSH0 PUSH1 0x1 PUSH1 0x3 SLOAD PUSH2 0xB5A SWAP2 SWAP1 PUSH2 0x14EE JUMP JUMPDEST PUSH8 0xFFFFFFFFFFFFFFFF DUP2 GT ISZERO PUSH2 0xB72 JUMPI PUSH2 0xB72 PUSH2 0xEC7 JUMP JUMPDEST PUSH1 0x40 MLOAD SWAP1 DUP1 DUP3 MSTORE DUP1 PUSH1 0x20 MUL PUSH1 0x20 ADD DUP3 ADD PUSH1 0x40 MSTORE DUP1 ISZERO PUSH2 0xBAB JUMPI DUP2 PUSH1 0x20 ADD JUMPDEST PUSH2 0xB98 PUSH2 0xE75 JUMP JUMPDEST DUP2 MSTORE PUSH1 0x20 ADD SWAP1 PUSH1 0x1 SWAP1 SUB SWAP1 DUP2 PUSH2 0xB90 JUMPI SWAP1 POP JUMPDEST POP SWAP1 POP PUSH0 JUMPDEST DUP2 MLOAD DUP2 LT ISZERO PUSH2 0xB42 JUMPI PUSH1 0x8 PUSH0 PUSH2 0xBC7 DUP4 PUSH1 0x1 PUSH2 0x14D5 JUMP JUMPDEST DUP2 MSTORE PUSH1 0x20 ADD SWAP1 DUP2 MSTORE PUSH1 0x20 ADD PUSH0 KECCAK256 PUSH1 0x40 MLOAD DUP1 PUSH1 0xE0 ADD PUSH1 0x40 MSTORE SWAP1 DUP2 PUSH0 DUP3 ADD DUP1 SLOAD PUSH2 0xBEE SWAP1 PUSH2 0x139C JUMP JUMPDEST DUP1 PUSH1 0x1F ADD PUSH1 0x20 DUP1 SWAP2 DIV MUL PUSH1 0x20 ADD PUSH1 0x40 MLOAD SWAP1 DUP2 ADD PUSH1 0x40 MSTORE DUP1 SWAP3 SWAP2 SWAP1 DUP2 DUP2 MSTORE PUSH1 0x20 ADD DUP3 DUP1 SLOAD PUSH2 0xC1A SWAP1 PUSH2 0x139C JUMP JUMPDEST DUP1 ISZERO PUSH2 0xC65 JUMPI DUP1 PUSH1 0x1F LT PUSH2 0xC3C JUMPI PUSH2 0x100 DUP1 DUP4 SLOAD DIV MUL DUP4 MSTORE SWAP2 PUSH1 0x20 ADD SWAP2 PUSH2 0xC65 JUMP JUMPDEST DUP3 ADD SWAP2 SWAP1 PUSH0 MSTORE PUSH1 0x20 PUSH0 KECCAK256 SWAP1 JUMPDEST DUP2 SLOAD DUP2 MSTORE SWAP1 PUSH1 0x1 ADD SWAP1 PUSH1 0x20 ADD DUP1 DUP4 GT PUSH2 0xC48 JUMPI DUP3 SWAP1 SUB PUSH1 0x1F AND DUP3 ADD SWAP2 JUMPDEST POP POP POP POP POP DUP2 MSTORE PUSH1 0x20 ADD PUSH1 0x1 DUP3 ADD DUP1 SLOAD PUSH2 0xC7E SWAP1 PUSH2 0x139C JUMP JUMPDEST DUP1 PUSH1 0x1F ADD PUSH1 0x20 DUP1 SWAP2 DIV MUL PUSH1 0x20 ADD PUSH1 0x40 MLOAD SWAP1 DUP2 ADD PUSH1 0x40 MSTORE DUP1 SWAP3 SWAP2 SWAP1 DUP2 DUP2 MSTORE PUSH1 0x20 ADD DUP3 DUP1 SLOAD PUSH2 0xCAA SWAP1 PUSH2 0x139C JUMP JUMPDEST DUP1 ISZERO PUSH2 0xCF5 JUMPI DUP1 PUSH1 0x1F LT PUSH2 0xCCC JUMPI PUSH2 0x100 DUP1 DUP4 SLOAD DIV MUL DUP4 MSTORE SWAP2 PUSH1 0x20 ADD SWAP2 PUSH2 0xCF5 JUMP JUMPDEST DUP3 ADD SWAP2 SWAP1 PUSH0 MSTORE PUSH1 0x20 PUSH0 KECCAK256 SWAP1 JUMPDEST DUP2 SLOAD DUP2 MSTORE SWAP1 PUSH1 0x1 ADD SWAP1 PUSH1 0x20 ADD DUP1 DUP4 GT PUSH2 0xCD8 JUMPI DUP3 SWAP1 SUB PUSH1 0x1F AND DUP3 ADD SWAP2 JUMPDEST POP POP POP SWAP2 DUP4 MSTORE POP POP PUSH1 0x2 DUP3 ADD SLOAD PUSH1 0x20 DUP3 ADD MSTORE PUSH1 0x3 DUP1 DUP4 ADD SLOAD PUSH1 0x40 SWAP1 SWAP3 ADD SWAP2 PUSH1 0xFF AND SWAP1 DUP2 GT ISZERO PUSH2 0xD26 JUMPI PUSH2 0xD26 PUSH2 0xFA5 JUMP JUMPDEST PUSH1 0x3 DUP2 GT ISZERO PUSH2 0xD37 JUMPI PUSH2 0xD37 PUSH2 0xFA5 JUMP JUMPDEST DUP2 MSTORE PUSH1 0x4 DUP3 ADD SLOAD PUSH1 0x20 DUP3 ADD MSTORE PUSH1 0x5 DUP3 ADD SLOAD PUSH1 0x1 PUSH1 0x1 PUSH1 0xA0 SHL SUB AND PUSH1 0x40 DUP3 ADD MSTORE PUSH1 0x6 SWAP1 SWAP2 ADD SLOAD PUSH1 0x60 SWAP1 SWAP2 ADD MSTORE DUP3 MLOAD DUP4 SWAP1 DUP4 SWAP1 DUP2 LT PUSH2 0xD76 JUMPI PUSH2 0xD76 PUSH2 0x12BF JUMP JUMPDEST PUSH1 0x20 SWAP1 DUP2 MUL SWAP2 SWAP1 SWAP2 ADD ADD MSTORE PUSH1 0x1 ADD PUSH2 0xBB0 JUMP JUMPDEST PUSH0 PUSH1 0x1 JUMPDEST PUSH1 0x2 SLOAD DUP2 LT ISZERO PUSH2 0xDCA JUMPI PUSH0 DUP2 DUP2 MSTORE PUSH1 0x7 PUSH1 0x20 MSTORE PUSH1 0x40 SWAP1 KECCAK256 PUSH1 0x5 ADD SLOAD PUSH1 0x1 PUSH1 0x1 PUSH1 0xA0 SHL SUB DUP1 DUP6 AND SWAP2 AND SUB PUSH2 0xDC2 JUMPI POP PUSH0 SWAP3 SWAP2 POP POP JUMP JUMPDEST PUSH1 0x1 ADD PUSH2 0xD8D JUMP JUMPDEST POP PUSH1 0x1 SWAP3 SWAP2 POP POP JUMP JUMPDEST PUSH0 PUSH1 0x1 JUMPDEST PUSH1 0x3 SLOAD DUP2 LT ISZERO PUSH2 0xDCA JUMPI PUSH0 DUP2 DUP2 MSTORE PUSH1 0x8 PUSH1 0x20 MSTORE PUSH1 0x40 SWAP1 KECCAK256 PUSH1 0x5 ADD SLOAD PUSH1 0x1 PUSH1 0x1 PUSH1 0xA0 SHL SUB DUP1 DUP6 AND SWAP2 AND SUB PUSH2 0xE0C JUMPI POP PUSH0 SWAP3 SWAP2 POP POP JUMP JUMPDEST PUSH1 0x1 ADD PUSH2 0xDD7 JUMP JUMPDEST PUSH1 0x40 MLOAD DUP1 PUSH1 0x60 ADD PUSH1 0x40 MSTORE DUP1 PUSH1 0x3 SWAP1 PUSH1 0x20 DUP3 MUL DUP1 CALLDATASIZE DUP4 CALLDATACOPY POP SWAP2 SWAP3 SWAP2 POP POP JUMP JUMPDEST PUSH1 0x40 MLOAD DUP1 PUSH1 0xC0 ADD PUSH1 0x40 MSTORE DUP1 PUSH1 0x60 DUP2 MSTORE PUSH1 0x20 ADD PUSH0 DUP2 MSTORE PUSH1 0x20 ADD PUSH0 DUP2 MSTORE PUSH1 0x20 ADD PUSH0 PUSH1 0x3 DUP2 GT ISZERO PUSH2 0xE62 JUMPI PUSH2 0xE62 PUSH2 0xFA5 JUMP JUMPDEST DUP2 MSTORE PUSH0 PUSH1 0x20 DUP3 ADD DUP2 SWAP1 MSTORE PUSH1 0x40 SWAP1 SWAP2 ADD MSTORE SWAP1 JUMP JUMPDEST PUSH1 0x40 MLOAD DUP1 PUSH1 0xE0 ADD PUSH1 0x40 MSTORE DUP1 PUSH1 0x60 DUP2 MSTORE PUSH1 0x20 ADD PUSH1 0x60 DUP2 MSTORE PUSH1 0x20 ADD PUSH0 DUP2 MSTORE PUSH1 0x20 ADD PUSH0 PUSH1 0x3 DUP2 GT ISZERO PUSH2 0xEA6 JUMPI PUSH2 0xEA6 PUSH2 0xFA5 JUMP JUMPDEST DUP2 MSTORE PUSH1 0x20 ADD PUSH0 DUP2 MSTORE PUSH1 0x20 ADD PUSH0 PUSH1 0x1 PUSH1 0x1 PUSH1 0xA0 SHL SUB AND DUP2 MSTORE PUSH1 0x20 ADD PUSH0 DUP2 MSTORE POP SWAP1 JUMP JUMPDEST PUSH4 0x4E487B71 PUSH1 0xE0 SHL PUSH0 MSTORE PUSH1 0x41 PUSH1 0x4 MSTORE PUSH1 0x24 PUSH0 REVERT JUMPDEST PUSH0 PUSH1 0x60 DUP3 DUP5 SUB SLT ISZERO PUSH2 0xEEB JUMPI PUSH0 DUP1 REVERT JUMPDEST DUP3 PUSH1 0x1F DUP4 ADD SLT PUSH2 0xEF9 JUMPI PUSH0 DUP1 REVERT JUMPDEST PUSH1 0x40 MLOAD PUSH1 0x60 DUP2 ADD DUP2 DUP2 LT PUSH8 0xFFFFFFFFFFFFFFFF DUP3 GT OR ISZERO PUSH2 0xF1C JUMPI PUSH2 0xF1C PUSH2 0xEC7 JUMP JUMPDEST PUSH1 0x40 MSTORE DUP1 PUSH1 0x60 DUP5 ADD DUP6 DUP2 GT ISZERO PUSH2 0xF30 JUMPI PUSH0 DUP1 REVERT JUMPDEST DUP5 JUMPDEST DUP2 DUP2 LT ISZERO PUSH2 0xF4A JUMPI DUP1 CALLDATALOAD DUP4 MSTORE PUSH1 0x20 SWAP3 DUP4 ADD SWAP3 ADD PUSH2 0xF32 JUMP JUMPDEST POP SWAP2 SWAP6 SWAP5 POP POP POP POP POP JUMP JUMPDEST PUSH1 0x60 DUP2 ADD DUP2 DUP4 PUSH0 JUMPDEST PUSH1 0x3 DUP2 LT ISZERO PUSH2 0xF7C JUMPI DUP2 MLOAD DUP4 MSTORE PUSH1 0x20 SWAP3 DUP4 ADD SWAP3 SWAP1 SWAP2 ADD SWAP1 PUSH1 0x1 ADD PUSH2 0xF5D JUMP JUMPDEST POP POP POP SWAP3 SWAP2 POP POP JUMP JUMPDEST PUSH0 DUP1 PUSH1 0x40 DUP4 DUP6 SUB SLT ISZERO PUSH2 0xF96 JUMPI PUSH0 DUP1 REVERT JUMPDEST POP POP DUP1 CALLDATALOAD SWAP3 PUSH1 0x20 SWAP1 SWAP2 ADD CALLDATALOAD SWAP2 POP JUMP JUMPDEST PUSH4 0x4E487B71 PUSH1 0xE0 SHL PUSH0 MSTORE PUSH1 0x21 PUSH1 0x4 MSTORE PUSH1 0x24 PUSH0 REVERT JUMPDEST PUSH1 0x20 DUP2 ADD PUSH1 0x3 DUP4 LT PUSH2 0xFCD JUMPI PUSH2 0xFCD PUSH2 0xFA5 JUMP JUMPDEST SWAP2 SWAP1 MSTORE SWAP1 JUMP JUMPDEST PUSH0 DUP1 DUP4 PUSH1 0x1F DUP5 ADD SLT PUSH2 0xFE3 JUMPI PUSH0 DUP1 REVERT JUMPDEST POP DUP2 CALLDATALOAD PUSH8 0xFFFFFFFFFFFFFFFF DUP2 GT ISZERO PUSH2 0xFFA JUMPI PUSH0 DUP1 REVERT JUMPDEST PUSH1 0x20 DUP4 ADD SWAP2 POP DUP4 PUSH1 0x20 DUP3 DUP6 ADD ADD GT ISZERO PUSH2 0x1011 JUMPI PUSH0 DUP1 REVERT JUMPDEST SWAP3 POP SWAP3 SWAP1 POP JUMP JUMPDEST DUP1 CALLDATALOAD PUSH1 0x4 DUP2 LT PUSH2 0x1026 JUMPI PUSH0 DUP1 REVERT JUMPDEST SWAP2 SWAP1 POP JUMP JUMPDEST PUSH0 DUP1 PUSH0 DUP1 PUSH1 0x60 DUP6 DUP8 SUB SLT ISZERO PUSH2 0x103E JUMPI PUSH0 DUP1 REVERT JUMPDEST DUP5 CALLDATALOAD PUSH8 0xFFFFFFFFFFFFFFFF DUP2 GT ISZERO PUSH2 0x1054 JUMPI PUSH0 DUP1 REVERT JUMPDEST PUSH2 0x1060 DUP8 DUP3 DUP9 ADD PUSH2 0xFD3 JUMP JUMPDEST SWAP1 SWAP6 POP SWAP4 POP POP PUSH1 0x20 DUP6 ADD CALLDATALOAD SWAP2 POP PUSH2 0x1079 PUSH1 0x40 DUP7 ADD PUSH2 0x1018 JUMP JUMPDEST SWAP1 POP SWAP3 SWAP6 SWAP2 SWAP5 POP SWAP3 POP JUMP JUMPDEST PUSH0 DUP1 PUSH0 DUP1 PUSH0 DUP1 PUSH1 0x80 DUP8 DUP10 SUB SLT ISZERO PUSH2 0x1099 JUMPI PUSH0 DUP1 REVERT JUMPDEST DUP7 CALLDATALOAD PUSH8 0xFFFFFFFFFFFFFFFF DUP2 GT ISZERO PUSH2 0x10AF JUMPI PUSH0 DUP1 REVERT JUMPDEST PUSH2 0x10BB DUP10 DUP3 DUP11 ADD PUSH2 0xFD3 JUMP JUMPDEST SWAP1 SWAP8 POP SWAP6 POP POP PUSH1 0x20 DUP8 ADD CALLDATALOAD PUSH8 0xFFFFFFFFFFFFFFFF DUP2 GT ISZERO PUSH2 0x10DA JUMPI PUSH0 DUP1 REVERT JUMPDEST PUSH2 0x10E6 DUP10 DUP3 DUP11 ADD PUSH2 0xFD3 JUMP JUMPDEST SWAP1 SWAP6 POP SWAP4 POP POP PUSH1 0x40 DUP8 ADD CALLDATALOAD SWAP2 POP PUSH2 0x10FF PUSH1 0x60 DUP9 ADD PUSH2 0x1018 JUMP JUMPDEST SWAP1 POP SWAP3 SWAP6 POP SWAP3 SWAP6 POP SWAP3 SWAP6 JUMP JUMPDEST PUSH0 DUP2 MLOAD DUP1 DUP5 MSTORE DUP1 PUSH1 0x20 DUP5 ADD PUSH1 0x20 DUP7 ADD MCOPY PUSH0 PUSH1 0x20 DUP3 DUP7 ADD ADD MSTORE PUSH1 0x20 PUSH1 0x1F NOT PUSH1 0x1F DUP4 ADD AND DUP6 ADD ADD SWAP2 POP POP SWAP3 SWAP2 POP POP JUMP JUMPDEST PUSH1 0x4 DUP2 LT PUSH2 0x1149 JUMPI PUSH2 0x1149 PUSH2 0xFA5 JUMP JUMPDEST SWAP1 MSTORE JUMP JUMPDEST PUSH0 PUSH1 0x20 DUP3 ADD PUSH1 0x20 DUP4 MSTORE DUP1 DUP5 MLOAD DUP1 DUP4 MSTORE PUSH1 0x40 DUP6 ADD SWAP2 POP PUSH1 0x40 DUP2 PUSH1 0x5 SHL DUP7 ADD ADD SWAP3 POP PUSH1 0x20 DUP7 ADD PUSH0 JUMPDEST DUP3 DUP2 LT ISZERO PUSH2 0x11F3 JUMPI PUSH1 0x3F NOT DUP8 DUP7 SUB ADD DUP5 MSTORE DUP2 MLOAD DUP1 MLOAD PUSH1 0xC0 DUP8 MSTORE PUSH2 0x1199 PUSH1 0xC0 DUP9 ADD DUP3 PUSH2 0x110B JUMP JUMPDEST SWAP1 POP PUSH1 0x20 DUP3 ADD MLOAD PUSH1 0x20 DUP9 ADD MSTORE PUSH1 0x40 DUP3 ADD MLOAD PUSH1 0x40 DUP9 ADD MSTORE PUSH1 0x60 DUP3 ADD MLOAD PUSH2 0x11C1 PUSH1 0x60 DUP10 ADD DUP3 PUSH2 0x1139 JUMP JUMPDEST POP PUSH1 0x80 DUP3 DUP2 ADD MLOAD SWAP1 DUP9 ADD MSTORE PUSH1 0xA0 SWAP2 DUP3 ADD MLOAD PUSH1 0x1 PUSH1 0x1 PUSH1 0xA0 SHL SUB AND SWAP2 SWAP1 SWAP7 ADD MSTORE PUSH1 0x20 SWAP4 DUP5 ADD SWAP4 SWAP2 SWAP1 SWAP2 ADD SWAP1 PUSH1 0x1 ADD PUSH2 0x1173 JUMP JUMPDEST POP SWAP3 SWAP7 SWAP6 POP POP POP POP POP POP JUMP JUMPDEST PUSH0 PUSH1 0x20 DUP3 ADD PUSH1 0x20 DUP4 MSTORE DUP1 DUP5 MLOAD DUP1 DUP4 MSTORE PUSH1 0x40 DUP6 ADD SWAP2 POP PUSH1 0x40 DUP2 PUSH1 0x5 SHL DUP7 ADD ADD SWAP3 POP PUSH1 0x20 DUP7 ADD PUSH0 JUMPDEST DUP3 DUP2 LT ISZERO PUSH2 0x11F3 JUMPI PUSH1 0x3F NOT DUP8 DUP7 SUB ADD DUP5 MSTORE DUP2 MLOAD DUP1 MLOAD PUSH1 0xE0 DUP8 MSTORE PUSH2 0x124B PUSH1 0xE0 DUP9 ADD DUP3 PUSH2 0x110B JUMP JUMPDEST SWAP1 POP PUSH1 0x20 DUP3 ADD MLOAD DUP8 DUP3 SUB PUSH1 0x20 DUP10 ADD MSTORE PUSH2 0x1264 DUP3 DUP3 PUSH2 0x110B JUMP JUMPDEST SWAP2 POP POP PUSH1 0x40 DUP3 ADD MLOAD PUSH1 0x40 DUP9 ADD MSTORE PUSH1 0x60 DUP3 ADD MLOAD PUSH2 0x1283 PUSH1 0x60 DUP10 ADD DUP3 PUSH2 0x1139 JUMP JUMPDEST POP PUSH1 0x80 DUP3 DUP2 ADD MLOAD SWAP1 DUP9 ADD MSTORE PUSH1 0xA0 DUP1 DUP4 ADD MLOAD PUSH1 0x1 PUSH1 0x1 PUSH1 0xA0 SHL SUB AND SWAP1 DUP9 ADD MSTORE PUSH1 0xC0 SWAP2 DUP3 ADD MLOAD SWAP2 SWAP1 SWAP7 ADD MSTORE PUSH1 0x20 SWAP4 DUP5 ADD SWAP4 SWAP2 SWAP1 SWAP2 ADD SWAP1 PUSH1 0x1 ADD PUSH2 0x1225 JUMP JUMPDEST PUSH4 0x4E487B71 PUSH1 0xE0 SHL PUSH0 MSTORE PUSH1 0x32 PUSH1 0x4 MSTORE PUSH1 0x24 PUSH0 REVERT JUMPDEST PUSH4 0x4E487B71 PUSH1 0xE0 SHL PUSH0 MSTORE PUSH1 0x11 PUSH1 0x4 MSTORE PUSH1 0x24 PUSH0 REVERT JUMPDEST PUSH0 PUSH1 0x1 DUP3 ADD PUSH2 0x12F8 JUMPI PUSH2 0x12F8 PUSH2 0x12D3 JUMP JUMPDEST POP PUSH1 0x1 ADD SWAP1 JUMP JUMPDEST PUSH1 0x20 DUP1 DUP3 MSTORE PUSH1 0x33 SWAP1 DUP3 ADD MSTORE PUSH32 0x596F752048617665206E6F7420746865207065726D697373696F6E20746F2065 PUSH1 0x40 DUP3 ADD MSTORE PUSH19 0x3C32B1BABA103A3434B990333AB731BA34B7B7 PUSH1 0x69 SHL PUSH1 0x60 DUP3 ADD MSTORE PUSH1 0x80 ADD SWAP1 JUMP JUMPDEST PUSH1 0x20 DUP1 DUP3 MSTORE PUSH1 0x2A SWAP1 DUP3 ADD MSTORE PUSH32 0x456C656374696F6E20636F6D6D6973696F6E206E6F7420616C6C6F7765642074 PUSH1 0x40 DUP3 ADD MSTORE PUSH10 0x37903932B3B4B9BA32B9 PUSH1 0xB1 SHL PUSH1 0x60 DUP3 ADD MSTORE PUSH1 0x80 ADD SWAP1 JUMP JUMPDEST PUSH1 0x1 DUP2 DUP2 SHR SWAP1 DUP3 AND DUP1 PUSH2 0x13B0 JUMPI PUSH1 0x7F DUP3 AND SWAP2 POP JUMPDEST PUSH1 0x20 DUP3 LT DUP2 SUB PUSH2 0xB42 JUMPI PUSH4 0x4E487B71 PUSH1 0xE0 SHL PUSH0 MSTORE PUSH1 0x22 PUSH1 0x4 MSTORE PUSH1 0x24 PUSH0 REVERT JUMPDEST PUSH1 0x1F DUP3 GT ISZERO PUSH2 0x1415 JUMPI DUP1 PUSH0 MSTORE PUSH1 0x20 PUSH0 KECCAK256 PUSH1 0x1F DUP5 ADD PUSH1 0x5 SHR DUP2 ADD PUSH1 0x20 DUP6 LT ISZERO PUSH2 0x13F3 JUMPI POP DUP1 JUMPDEST PUSH1 0x1F DUP5 ADD PUSH1 0x5 SHR DUP3 ADD SWAP2 POP JUMPDEST DUP2 DUP2 LT ISZERO PUSH2 0x1412 JUMPI PUSH0 DUP2 SSTORE PUSH1 0x1 ADD PUSH2 0x13FF JUMP JUMPDEST POP POP JUMPDEST POP POP POP JUMP JUMPDEST DUP2 MLOAD PUSH8 0xFFFFFFFFFFFFFFFF DUP2 GT ISZERO PUSH2 0x1434 JUMPI PUSH2 0x1434 PUSH2 0xEC7 JUMP JUMPDEST PUSH2 0x1448 DUP2 PUSH2 0x1442 DUP5 SLOAD PUSH2 0x139C JUMP JUMPDEST DUP5 PUSH2 0x13CE JUMP JUMPDEST PUSH1 0x20 PUSH1 0x1F DUP3 GT PUSH1 0x1 DUP2 EQ PUSH2 0x147A JUMPI PUSH0 DUP4 ISZERO PUSH2 0x1463 JUMPI POP DUP5 DUP3 ADD MLOAD JUMPDEST PUSH0 NOT PUSH1 0x3 DUP6 SWAP1 SHL SHR NOT AND PUSH1 0x1 DUP5 SWAP1 SHL OR DUP5 SSTORE PUSH2 0x1412 JUMP JUMPDEST PUSH0 DUP5 DUP2 MSTORE PUSH1 0x20 DUP2 KECCAK256 PUSH1 0x1F NOT DUP6 AND SWAP2 JUMPDEST DUP3 DUP2 LT ISZERO PUSH2 0x14A9 JUMPI DUP8 DUP6 ADD MLOAD DUP3 SSTORE PUSH1 0x20 SWAP5 DUP6 ADD SWAP5 PUSH1 0x1 SWAP1 SWAP3 ADD SWAP2 ADD PUSH2 0x1489 JUMP JUMPDEST POP DUP5 DUP3 LT ISZERO PUSH2 0x14C6 JUMPI DUP7 DUP5 ADD MLOAD PUSH0 NOT PUSH1 0x3 DUP8 SWAP1 SHL PUSH1 0xF8 AND SHR NOT AND DUP2 SSTORE JUMPDEST POP POP POP POP PUSH1 0x1 SWAP1 DUP2 SHL ADD SWAP1 SSTORE POP JUMP JUMPDEST DUP1 DUP3 ADD DUP1 DUP3 GT ISZERO PUSH2 0x14E8 JUMPI PUSH2 0x14E8 PUSH2 0x12D3 JUMP JUMPDEST SWAP3 SWAP2 POP POP JUMP JUMPDEST DUP2 DUP2 SUB DUP2 DUP2 GT ISZERO PUSH2 0x14E8 JUMPI PUSH2 0x14E8 PUSH2 0x12D3 JUMP INVALID LOG2 PUSH5 0x6970667358 0x22 SLT KECCAK256 0xFB BASEFEE BASEFEE 0x28 TLOAD PUSH29 0x9C3F7623351DB058E0A3F1E2A29EC2FE2D6F30E5F5EE9F6A4A2D64736F PUSH13 0x634300081A0033000000000000 "
				},
				"gasEstimates": {
					"creation": {
						"codeDepositCost": "1086200",
						"executionCost": "69571",
						"totalCost": "1155771"
					},
					"external": {
						"announceVotingResult()": "infinite",
						"arrManipulation(uint256[3])": "infinite",
						"blocktimestamp()": "220",
						"calledByMsgSender()": "289",
						"castVote(uint256,uint256)": "51287",
						"electionCommission()": "2357",
						"emergencyStopVoting()": "26551",
						"getCandidateList()": "infinite",
						"getVoterList()": "infinite",
						"getVotingStatus()": "6706",
						"registerCandidate(string,string,uint256,uint8)": "infinite",
						"registerVoter(string,uint256,uint8)": "infinite",
						"setVotingPeriod(uint256,uint256)": "infinite",
						"winner()": "2402"
					},
					"internal": {
						"isCandidateNotRegistered(address)": "infinite",
						"isVoterNotRegistered(address)": "infinite"
					}
				},
				"methodIdentifiers": {
					"announceVotingResult()": "6ce2ccc0",
					"arrManipulation(uint256[3])": "06457d07",
					"blocktimestamp()": "8182a11f",
					"calledByMsgSender()": "8fdd8f81",
					"castVote(uint256,uint256)": "2c0a3f89",
					"electionCommission()": "aab46b7f",
					"emergencyStopVoting()": "9fa4e440",
					"getCandidateList()": "fdbc4006",
					"getVoterList()": "b28d92ae",
					"getVotingStatus()": "581c281c",
					"registerCandidate(string,string,uint256,uint8)": "982c777d",
					"registerVoter(string,uint256,uint8)": "81ba732f",
					"setVotingPeriod(uint256,uint256)": "a15a36c7",
					"winner()": "dfbf53ae"
				}
			},
			"storageLayout": {
				"storage": [
					{
						"astId": 33,
						"contract": "contracts/Code Eater/Vote.sol:Vote",
						"label": "electionCommission",
						"offset": 0,
						"slot": "0",
						"type": "t_address"
					},
					{
						"astId": 35,
						"contract": "contracts/Code Eater/Vote.sol:Vote",
						"label": "winner",
						"offset": 0,
						"slot": "1",
						"type": "t_address"
					},
					{
						"astId": 38,
						"contract": "contracts/Code Eater/Vote.sol:Vote",
						"label": "nextVoterId",
						"offset": 0,
						"slot": "2",
						"type": "t_uint256"
					},
					{
						"astId": 41,
						"contract": "contracts/Code Eater/Vote.sol:Vote",
						"label": "nextCandidateId",
						"offset": 0,
						"slot": "3",
						"type": "t_uint256"
					},
					{
						"astId": 43,
						"contract": "contracts/Code Eater/Vote.sol:Vote",
						"label": "startTime",
						"offset": 0,
						"slot": "4",
						"type": "t_uint256"
					},
					{
						"astId": 45,
						"contract": "contracts/Code Eater/Vote.sol:Vote",
						"label": "endTime",
						"offset": 0,
						"slot": "5",
						"type": "t_uint256"
					},
					{
						"astId": 47,
						"contract": "contracts/Code Eater/Vote.sol:Vote",
						"label": "stopVoting",
						"offset": 0,
						"slot": "6",
						"type": "t_bool"
					},
					{
						"astId": 52,
						"contract": "contracts/Code Eater/Vote.sol:Vote",
						"label": "voterDetails",
						"offset": 0,
						"slot": "7",
						"type": "t_mapping(t_uint256,t_struct(Voter)15_storage)"
					},
					{
						"astId": 57,
						"contract": "contracts/Code Eater/Vote.sol:Vote",
						"label": "candidateDetails",
						"offset": 0,
						"slot": "8",
						"type": "t_mapping(t_uint256,t_struct(Candidate)31_storage)"
					}
				],
				"types": {
					"t_address": {
						"encoding": "inplace",
						"label": "address",
						"numberOfBytes": "20"
					},
					"t_bool": {
						"encoding": "inplace",
						"label": "bool",
						"numberOfBytes": "1"
					},
					"t_enum(Gender)66": {
						"encoding": "inplace",
						"label": "enum Vote.Gender",
						"numberOfBytes": "1"
					},
					"t_mapping(t_uint256,t_struct(Candidate)31_storage)": {
						"encoding": "mapping",
						"key": "t_uint256",
						"label": "mapping(uint256 => struct Vote.Candidate)",
						"numberOfBytes": "32",
						"value": "t_struct(Candidate)31_storage"
					},
					"t_mapping(t_uint256,t_struct(Voter)15_storage)": {
						"encoding": "mapping",
						"key": "t_uint256",
						"label": "mapping(uint256 => struct Vote.Voter)",
						"numberOfBytes": "32",
						"value": "t_struct(Voter)15_storage"
					},
					"t_string_storage": {
						"encoding": "bytes",
						"label": "string",
						"numberOfBytes": "32"
					},
					"t_struct(Candidate)31_storage": {
						"encoding": "inplace",
						"label": "struct Vote.Candidate",
						"members": [
							{
								"astId": 17,
								"contract": "contracts/Code Eater/Vote.sol:Vote",
								"label": "name",
								"offset": 0,
								"slot": "0",
								"type": "t_string_storage"
							},
							{
								"astId": 19,
								"contract": "contracts/Code Eater/Vote.sol:Vote",
								"label": "party",
								"offset": 0,
								"slot": "1",
								"type": "t_string_storage"
							},
							{
								"astId": 21,
								"contract": "contracts/Code Eater/Vote.sol:Vote",
								"label": "age",
								"offset": 0,
								"slot": "2",
								"type": "t_uint256"
							},
							{
								"astId": 24,
								"contract": "contracts/Code Eater/Vote.sol:Vote",
								"label": "gender",
								"offset": 0,
								"slot": "3",
								"type": "t_enum(Gender)66"
							},
							{
								"astId": 26,
								"contract": "contracts/Code Eater/Vote.sol:Vote",
								"label": "candidateId",
								"offset": 0,
								"slot": "4",
								"type": "t_uint256"
							},
							{
								"astId": 28,
								"contract": "contracts/Code Eater/Vote.sol:Vote",
								"label": "candidateAddress",
								"offset": 0,
								"slot": "5",
								"type": "t_address"
							},
							{
								"astId": 30,
								"contract": "contracts/Code Eater/Vote.sol:Vote",
								"label": "votes",
								"offset": 0,
								"slot": "6",
								"type": "t_uint256"
							}
						],
						"numberOfBytes": "224"
					},
					"t_struct(Voter)15_storage": {
						"encoding": "inplace",
						"label": "struct Vote.Voter",
						"members": [
							{
								"astId": 3,
								"contract": "contracts/Code Eater/Vote.sol:Vote",
								"label": "name",
								"offset": 0,
								"slot": "0",
								"type": "t_string_storage"
							},
							{
								"astId": 5,
								"contract": "contracts/Code Eater/Vote.sol:Vote",
								"label": "age",
								"offset": 0,
								"slot": "1",
								"type": "t_uint256"
							},
							{
								"astId": 7,
								"contract": "contracts/Code Eater/Vote.sol:Vote",
								"label": "voterId",
								"offset": 0,
								"slot": "2",
								"type": "t_uint256"
							},
							{
								"astId": 10,
								"contract": "contracts/Code Eater/Vote.sol:Vote",
								"label": "gender",
								"offset": 0,
								"slot": "3",
								"type": "t_enum(Gender)66"
							},
							{
								"astId": 12,
								"contract": "contracts/Code Eater/Vote.sol:Vote",
								"label": "voteCandidateId",
								"offset": 0,
								"slot": "4",
								"type": "t_uint256"
							},
							{
								"astId": 14,
								"contract": "contracts/Code Eater/Vote.sol:Vote",
								"label": "voterAddress",
								"offset": 0,
								"slot": "5",
								"type": "t_address"
							}
						],
						"numberOfBytes": "192"
					},
					"t_uint256": {
						"encoding": "inplace",
						"label": "uint256",
						"numberOfBytes": "32"
					}
				}
			},
			"userdoc": {
				"kind": "user",
				"methods": {},
				"version": 1
			}
		}
	}
}